:020000040800F2
:1000000000C00020FD21000845220008452200080C
:100010004522000845220008452200080000000093
:100020000000000000000000000000004522000861
:100030004522000800000000452200086F15000856
:1000400045220008452200084522000845220008F4
:1000500045220008452200085116000857160008DE
:100060005D1600086316000869160008452200089E
:1000700045220008452200084522000845220008C4
:1000800045220008452200084522000845220008B4
:100090004522000845220008452200086F16000886
:1000A0004522000885120008452200089912000820
:1000B0009D120008B1120008C51200084522000870
:1000C0004522000845220008452200084522000874
:1000D00045220008AD200008C5200008E1200008E6
:1000E0008516000845220008452200084522000820
:1000F00015130008452200082913000845220008AE
:100100004522000845220008D912000845220008AF
:10011000FD20000815210008ED1200080113000859
:100120004522000845220008452200084522000813
:1001300000000000000000000000000000000000BF
:1001400000000000000000000000000000000000AF
:10015000000000000000000000000000000000009F
:10016000000000000000000000000000000000008F
:10017000000000000000000000000000000000007F
:10018000000000000000000000000000000000006F
:10019000000000000000000000000000000000005F
:1001A000000000000000000000000000000000004F
:1001B000000000000000000000000000000000003F
:1001C000000000000000000000000000000000002F
:1001D000000000000000000000000000000000001F
:0401E0005FF8E0F1F3
:1001E40010B5054C237833B9044B13B10448AFF36D
:1001F40000800123237010BD98000020000000003F
:10020400082B000808B5034B1BB103490348AFF39F
:10021400008008BD000000009C000020082B00089E
:100224000121082002F00EB808B50021082002F0D0
:1002340073F84FF47A7002F0ADF80820012102F04F
:100244006BF8BDE808404FF47A7002F0A3B8704729
:1002540038B50E4B054618784FF47A73B3FBF0F3B8
:100264000B4A1068B0FBF3F000F0A0F8044658B94C
:100274000F2D09D8024629464FF0FF3000F042F80E
:100284002046044B1D6038BD0120FCE7000000201F
:100294002C00002004000020074A08B5136803203E
:1002A40043F01003136000F01BF80020FFF7D0FFA9
:1002B400FFF7CDFF002008BD00200240034A044B95
:1002C40011681B780B441360704700BFB400002012
:1002D40000000020014B1868704700BFB4000020E4
:1002E40007490302CA6803F4E06322F4E0621204DB
:1002F400120C134343F0BF6343F40033CB607047E5
:1003040000ED00E0164B30B5DC68C4F30224C4F100
:100314000703251D042B28BF0423062D4FF0FF35AA
:1003240098BF002405FA03F388BF033C21EA0303C2
:10033400A34005FA04F422EA0402002843EA020373
:10034400ACBF00F16040074A4FEA0313DBB2ABBF16
:1003540000F5614000F00F0080F80033135430BD05
:1003640000ED00E014ED00E0002808DB0123420961
:1003740000F01F0003FA00F0014B43F8220070471D
:1003840000E100E000280DDB0122430900F01F001A
:1003940002FA00F0044A203342F82300BFF34F8FDF
:1003A400BFF36F8F704700BF00E100E00138B0F188
:1003B400807F0BD24FF0E023F021054A586182F888
:1003C40023100020072298611A61704701207047AA
:1003D40000ED00E0002809DB0122430900F01F00C2
:1003E40002FA00F0024A603342F82300704700BF6B
:1003F40000E100E0704708B5FFF7FCFF08BD704757
:1004040010B5044650B1437903F0FF0213B90271E9
:10041400FFF7F5FF01230020637110BD0120FCE705
:1004240010B5044640B10223037101F03DF80020E9
:1004340020616071207110BD0120FCE7012210B51C
:10044400046801F01001236802FA01F123EA0101B2
:1004540021600271002010BD90F82130022B06D0DB
:1004640004238363002380F820300120704703684D
:100474001A6822F00E021A601A6822F001021A6049
:100484000123D0E90F218B4053604FF48073038420
:100494000020704708B590F82130022B03D00423C4
:1004A4008363012008BD036843491A6822F00E02E1
:1004B4001A601A6822F001021A60404A934241D934
:1004C4008B4238D014318B4237D014318B4236D022
:1004D40014318B4223D014318B4223D014318B42FC
:1004E40023D0934224D002F56272934223D0143273
:1004F400934222D01432934221D01432934214BF37
:100504004FF480334FF480532D4A53604FF480737B
:100514000384436B002B4DD098470020C2E74FF46F
:100524008053F1E74FF48033EEE74FF48013EBE7A9
:100534004FF08073E8E70123E6E71023E4E74FF484
:100544008073E1E78B422ED01E498B422DD01431AB
:100554008B422CD014318B4219D014318B4219D0D8
:1005640014318B4219D093421AD0174A93421AD0AD
:100574001432934219D01432934218D01432934255
:1005840014BF4FF480334FF48053104ABDE74FF447
:100594008053FAE74FF48033F7E74FF48013F4E71E
:1005A4004FF08073F1E70123EFE71023EDE74FF4F9
:1005B4008073EAE7184675E70800024080000240AD
:1005C400000402401C0002400804024000000240F3
:1005D400044A08B55169014202D0506101F020F883
:1005E40008BD00BF000401402DE9F341054638B3BE
:1005F4000368DB0710D42B689F075ED42B681907A8
:1006040000F195802B685A0700F1C180E869002841
:1006140040F02C81002029E0904C636803F00C0327
:10062400042B07D0636803F00C03082B0AD163681A
:10063400DE0307D523689C03DDD56B68002BDAD174
:10064400012013E06B68B3F5803F12D1236843F4B3
:1006540080332360FFF73EFE064623689803CAD41E
:10066400FFF738FE801B6428F7D9032002B0BDE8E9
:10067400F0819BB9236823F480332360236823F437
:1006840080232360FFF726FE064623689903B2D52C
:10069400FFF720FE801B6428F7D9E6E7B3F5A02F07
:1006A400236803D143F480232360CFE723F480330A
:1006B4002360236823F48023CBE7684C636813F03A
:1006C4000C0F07D0636803F00C03082B10D1636888
:1006D400DA030DD423689B0702D52B69012BAFD114
:1006E40023686A6923F0F80343EAC203236085E7B9
:1006F4002A695B4B6AB101221A60FFF7EBFD0646DB
:1007040023689F07ECD4FFF7E5FD801B0228F7D987
:10071400ABE71A60FFF7DEFD0646236898077FF50E
:100724006DAFFFF7D7FD801B0228F6D99DE7AA69B4
:100734004A4E4B4BE2B10122C3F88024FFF7CAFDB5
:100744000446736A9B070DD54FF4FA52454B1B6858
:10075400B3FBF2F3019300BF019B5A1E0192002BDD
:10076400F9D14FE7FFF7B6FD001B0228E9D97CE772
:10077400C3F88024FFF7AEFD0446736A9F077FF534
:1007840041AFFFF7A7FD001B0228F6D96DE7334CF4
:10079400E369D80024D40127E36943F08053E3617B
:1007A400E36903F080530093009B2F4E3368D9050F
:1007B40018D5EB68012B26D1236A43F00103236289
:1007C400FFF788FD41F288380646236A9B073FD528
:1007D400002F3FF41BAFE36923F08053E36115E777
:1007E4000027E2E7336843F480733360FFF772FD58
:1007F40080463368DA05DCD4FFF76CFDA0EB080013
:100804006428F6D931E7ABB9236A41F2883823F07A
:1008140001032362236A23F004032362FFF75AFDD2
:100824000646236A9807D3D5FFF754FD801B40453D
:10083400F7D91AE7052B236A03D143F00403236293
:10084400BAE723F001032362236A23F00403B6E723
:10085400FFF740FD801B4045B7D906E70010024072
:10086400000042422C000020007000402A4C6368C3
:1008740003F00C03082B3ED00022284B02281A66F2
:100884002CD1FFF727FD06462368990120D42B6A53
:10089400B3F5803F05D16268A96822F400320A43A7
:1008A4006260696A62680B4322F474121343012282
:1008B40063601A4B1A66FFF70DFD054623689A011B
:1008C4003FF5A8AEFFF706FD401B0228F6D9CCE69B
:1008D400FFF700FD801B0228D6D9C6E6FFF7FAFC15
:1008E400054623689B017FF595AEFFF7F3FC401B9B
:1008F4000228F6D9B9E601283FF4B8AE63682A6A3B
:1009040003F4803191427FF49BAE6A6A03F470135E
:1009140093423FF47FAE93E600100240000042424F
:1009240030B5184B87B002AC03F1100522461868A5
:100934005968083303C2AB421446F7D140F201238D
:100944001149ADF804304B6803F00C02082A17D1A2
:10095400C3F3834218326A44DB0312F8100C0CD53B
:100964004B680A4AC3F34043504318336B4413F8AB
:10097400143CB0FBF3F007B030BD054B5843FAE725
:100984000248F8E7202B00080010024000127A0009
:1009940000093D002DE9F0410D46044610B901203F
:1009A400BDE8F081444A136803F007038B4228D35F
:1009B40021688E0730D4CA0743D43F4A136803F032
:1009C4000703AB4265D822683C4D12F0040F6CD18A
:1009D400130706D56B68226923F4605343EAC20304
:1009E4006B60FFF79DFF6B68354AC3F30313D35C59
:1009F400D840344B1860344B1868FFF729FC0020AA
:100A0400CEE7136823F007030B431360136803F066
:100A140007038B42C3D1CBE7284B11F0040F1EBF51
:100A24005A6842F4E0625A60080742BF5A6842F4C6
:100A340060525A605A68A06822F0F00202435A6079
:100A4400B9E762681D4E012A33681AD113F4003FD6
:100A5400A5D0736841F2883823F00303134373600D
:100A6400FFF738FC07467368626803F00C03B3EBC6
:100A7400820FA2D0FFF72EFCC01B4045F3D9032000
:100A84008EE7022A02D113F0007FE1E713F0020F90
:100A9400DEE7136823F007032B431360136803F0A6
:100AA4000703AB427FF47BAF8DE76B68E16823F407
:100AB400E0630B436B608BE70020024000100240B0
:100AC400742B00082C00002004000020704770479D
:100AD400036810B51A69044691070ED5DA689207BF
:100AE4000BD56FF002021A61012202779B699B0702
:100AF40077D000F051FC0023237723681A6950074C
:100B040010D5DA6851070DD56FF004021A6102227C
:100B140022779B69204613F4407F68D000F03CFCA8
:100B24000023237723681A6912070FD5DA681007A0
:100B34000CD56FF008021A6104222277DB69204683
:100B440099075AD000F028FC0023237723681A69F8
:100B5400D20610D5DA68D0060DD56FF010021A61EE
:100B640008222277DB69204613F4407F4BD000F043
:100B740013FC0023237723681A69D10708D5DA68A0
:100B8400D20705D56FF0010220461A6100F0E1FB9F
:100B940023681A69100608D5DA68110605D56FF0BE
:100BA400800220461A6100F0AEF823681A695206E2
:100BB40008D5DA68500605D56FF0400220461A6160
:100BC400FFF785FF23681A69910622D5DA68920631
:100BD4001FD56FF020022046BDE810401A6100F0D6
:100BE40091B800F0D7FB2046FFF770FF83E700F0D1
:100BF400D1FB2046FFF76AFF92E700F0CBFB2046CB
:100C0400FFF764FFA0E700F0C5FB2046FFF75EFF97
:100C1400AFE710BD244A0368904212D002F5006287
:100C240090420ED0B0F1804F0BD0A2F59832904292
:100C340007D002F58062904203D002F580629042B0
:100C44001DD14A6823F070031343174A904212D00F
:100C540002F5006290420ED0B0F1804F0BD0A2F5A5
:100C64009832904207D002F58062904203D002F598
:100C74008062904203D1CA6823F4407313434A69E3
:100C840023F08003134303608B68C3620B688362A1
:100C9400054B984203D003F50063984201D10B69D8
:100CA4000363012343617047002C014010B50446DF
:100CB40030B390F83D3003F0FF021BB980F83C20BC
:100CC40001F026F90223206884F83D30211DFFF746
:100CD400A1FF0123002084F8463084F83E3084F8D4
:100CE4003F3084F8403084F8413084F8423084F84E
:100CF400433084F8443084F8453084F83D3010BDE6
:100D04000120FCE7704770470368DA6822F49072A8
:100D1400DA605A6922F001025A61026B012A02BFA9
:100D2400DA6822F01002DA60202380F83E300023D3
:100D34000363704790F83D30202B18D1A9B1A2B1BC
:100D440090F83C30012B12D0C284002382842122EB
:100D540001620168036480F83C3080F83D20CA6871
:100D6400184642F08002CA60704701207047022092
:100D7400704708B50023406AC385C38401F056F95F
:100D840008BD704707B58168836AB1F5805F026862
:100D940034D10169002934D15268C2F3080223F81E
:100DA400022BC28D8362013A92B2C2851ABB0368D8
:100DB400D96821F02001D960D96821F48071D96003
:100DC400596921F001015961202180F83E10016B1D
:100DD400012920D10263D96821F01001D960196872
:100DE400C90605D501921A6801925B680193019BBB
:100DF400818DFFF7C6FF03B05DF804FB39B90169C3
:100E040029B95268D2B21A70836A0133C9E75268A9
:100E140002F07F02F7E701F003F9ECE7036837B566
:100E24001A68044612F00F0FD9685D690CD1950653
:100E340067D58D0665D590F83E30222B5BD103B083
:100E4400BDE83040FFF79EBF05F0010001F4907546
:100E5400054356D0D50705D5CB0542BF236C43F0D7
:100E640001032364550704D518B1236C43F002032E
:100E74002364930704D518B1236C43F0040323645B
:100E8400150707D501F0200303431EBF236C43F06D
:100E940008032364236C73B3920608D58B0606D526
:100EA40094F83E30222B02D12046FFF76BFF2368D3
:100EB40020465B69256C03F0400305F008051D43DB
:100EC4001BD0FFF721FF23685A69550610D55A69CC
:100ED400A06B22F040025A6150B1534B4363FFF7B9
:100EE400D9FA40B1A06B436B03B0BDE8304018475A
:100EF400204601F09BF803B030BD01F097F825645B
:100F0400F9E7206B012855D1D00653D5CD0651D52C
:100F1400002101911A6801925A680192019A5A6952
:100F240012F040022AD0A06B0268526892B2002AE2
:100F3400E1D0A58D9542DED9E2858269202A15D0BB
:100F4400DA6822F48072DA605A6922F001025A6186
:100F54005A6922F040025A61202284F83E2021631B
:100F6400DA6822F01002DA60FFF776FAE38DA18DD9
:100F7400C91A89B22046FFF704FFBCE7E18D88B2A5
:100F8400E18D89B20029B6D0A18D091A89B2002950
:100F9400B1D0D86820F49070D860586920F001006E
:100FA4005861202084F83E002263DA6822F010029F
:100FB400DA60DFE7100626D50D0624D594F83D2027
:100FC400212A98D1A168226AB1F5805F16D12169DE
:100FD400A1B932F8021BC1F3080159602262E28C04
:100FE400013A92B2E284002A85D1DA6822F08002C2
:100FF400DA60DA6842F04002DA607CE7511C216270
:1010040012785A60EBE750067FF575AF4A067FF514
:1010140072AFDA68204622F04002DA60202384F8B6
:101024003D3001F000F866E7770D000890F83C3099
:10103400012B11D02423026880F83D30D36823F0BB
:101044000C0343F00803D360202380F83D300023D1
:1010540080F83C30184670470220704790F83C30C6
:10106400012B11D02423026880F83D30D36823F08B
:101074000C0343F00403D360202380F83D300023A5
:1010840080F83C30184670470220704790F83D20A5
:1010940090F83E0010437047C28582858162034602
:1010A40022220020186483F83C0083F83E201B6849
:1010B400DA6842F48072DA605A6942F001025A61D5
:1010C400DA6842F02002DA60704770B490F83E604B
:1010D400202E10D161B15AB190F83C40012C0AD0B5
:1010E400012480F83C400024046370BCFFF7D4BFA3
:1010F400012070BC70470220FBE7836810B50446EA
:101104002BB10322014698470023C4E9023310BDE2
:10111400836810B5044613B103220146984720465C
:1011240010BD0000164A034690421BD0B0F1804F18
:101134001AD0A2F59432904218D002F580629042FF
:1011440016D002F58062904214D04FF6FF700D4A1B
:10115400934211D00C4A934210D00C4A934208BFD8
:10116400072070470020F2E70120F0E70220F1E7B2
:101174000320F2E7042070470520704706207047DB
:10118400002C0140001000400014004000340140D5
:10119400014670B5044651F8100FFFF7C3FF05462A
:1011A400084600F0E7FD0023084A04F1600642F80F
:1011B4002530E36004F1B005B54204D0103D284663
:1011C400FFF7A6FFF8E7204670BD00BFB800002077
:1011D400F8B504460846FFF7A5FF4FF6FF7398429B
:1011E40000D1FEE7236903B1FEE71C4D04F10C02B4
:1011F40045F820200E2204F110063046C4E90C33D1
:10120400C4E90E33C4E91033C4E91623216184F818
:101214002C30A36484F84C3084F84D30E46000F042
:1012240027FD04F1600504F1B00728461035FFF7E7
:1012340064FFBD42F9D100234FF6FF72C4E90033C5
:10124400C4E90632C4E90833A360636180233046ED
:10125400A362BDE8F840FFF729BD00BFB800002035
:10126400002310B5044683668367C0F88830C0F84D
:101274009830C0F8A8300361FFF7AAFF204610BDDC
:10128400034B186810B10430FFF722BC704700BF4D
:10129400B8000020FFF7F4BF034B586810B10430C6
:1012A400FFF716BC704700BFB8000020034B9868D6
:1012B40010B10430FFF70CBC704700BFB800002029
:1012C400034BD86810B10430FFF702BC704700BF6D
:1012D400B8000020034B186910B10430FFF7F8BBC5
:1012E400704700BFB8000020034B586910B10430A8
:1012F400FFF7EEBB704700BFB8000020034B9869AE
:1013040010B10430FFF7E4BB704700BFB800002001
:10131400034BD86910B10430FFF7DABB704700BF44
:10132400B8000020FFF7F4BF826810B50AB901F0D5
:10133400E5FBC368BDE81040184708B500B9FEE7EF
:1013440000F094FC0068836E13B16030FFF7ECFF8B
:1013540008BDFFF7F2BF10B500B9FEE7037F013BFC
:10136400072B10D8DFE803F014040F100F0F0F122F
:10137400022400F07BFC0068063400EB0410836850
:101384000BB1FFF7D1FF10BD0324F2E70424F0E70B
:101394000124EEE7FFF7DFBFFFF7DDBF01F042BA3C
:1013A40001F048BA88B006285AD8DFE800F00411E2
:1013B4001D2935414D002B4B2B489A6942F00402FC
:1013C4009A619B6903F004030193019B08B0704781
:1013D400244B26489A6942F008029A619B6903F0FB
:1013E40008030293029BF1E71E4B21489A6942F0DD
:1013F40010029A619B6903F010030393039BE5E7D2
:10140400184B1C489A6942F020029A619B6903F0C8
:1014140020030493049BD9E7124B17489A6942F0BE
:1014240040029A619B6903F040030593059BCDE755
:101434000C4B12489A6942F080029A619B6903F04E
:1014440080030693069BC1E7064B0D489A6942F454
:1014540080729A619B6903F480730793079BB5E7D5
:101464000020B3E70010024000080140000C0140D6
:10147400001001400014014000180140001C01400C
:101484000020014008B5074900F0C5FBC0F3C43093
:10149400012802D0022802D0FEE7002008BD102057
:1014A400FCE700BF842B00080268094B9A420DD167
:1014B40003F5CE331A6942F000521A611A6922F018
:1014C40000521A61DA6922F00052DA61704700BFF3
:1014D4000074004010B50B4986B0044600F079FB57
:1014E400019060B12046FFF7CDFF30F010030146B4
:1014F40005D101A8FEF7A2FF01A8FEF791FF06B0EF
:1015040010BD00BF842B0008F8B51449064600F04E
:1015140060FBFFF707FE124D044655F8203073B9FF
:101524000E49304600F055FB0746B020FFF736FF62
:1015340006463946FFF794FE55F824301E6055F8E8
:1015440024301C6844B12046FFF722FE2046BDE843
:10155400F840B021FFF724BFF8BD00BFA82B000856
:10156400B8000020FEF7B6BE704708B5FEF7A6FE29
:10157400FEF741FFFFF7F8FF08BD70470F4B84B03B
:10158400DA6942F08052DA61DA6902F0805201923B
:10159400019A9A6942F001029A619A6902F0010281
:1015A4000292029A5A6942F040025A615B6903F05E
:1015B40040030393039B04B0704700BF0010024034
:1015C4000C4BD3F8FC20D2015EBFD3F8FC2042F0D0
:1015D4008072C3F8FC200022074B5A601A6842F05C
:1015E40001021A6000BF00BF00BF5868B0FA80F063
:1015F4004009704700ED00E0001000E008B5FFF777
:10160400BDFFFFF7DDFFFEF747FEFFF7B6FF00F073
:10161400B5FDBDE808400148FEF7F2BE24000020F5
:101624000023012803F1010202D013464008F8E721
:101634001421DBB24B43044A181D1044816811B1D4
:1016440013441B6918477047D80000200120FEF797
:10165400BFBF0220FEF7BCBF0420FEF7B9BF0820BD
:10166400FEF7B6BF1020FEF7B3BF38B5052420251A
:10167400A8B2FEF7ADFF013C4FEA4505F8D138BDED
:1016840038B506244FF48065A8B2FEF7A1FF013CEB
:101694004FEA4505F8D138BD0721204B06221975BC
:1016A400082183F82810092183F83C100A2183F8C3
:1016B400501017211A7083F86410002283F87810F0
:1016C40083F88C1083F8A01083F8B4102821DA6012
:1016D4001A625A639A64DA651A67C3F88420C3F8F5
:1016E4009820C3F8AC20C3F8C02083F8C810C3F80E
:1016F400D42083F8DC10C3F8E82083F8F010C3F892
:10170400FC2083F80411C3F8102183F81811C3F8DE
:10171400242183F82C11C3F838217047D800002005
:1017240038B5054CA4F5A075143C201DFFF7F0FC5A
:10173400AC42F9D138BD00BF18020020A04B82B0E2
:101744009A69013842F001029A619B6903F001032E
:101754000193019B2B2834D8DFE810F02C003500CE
:101764003C00430048004F0054005B0060006700E9
:10177400700075007C0085008A0091009A00A30027
:10178400A800AF00B800BD00C4003300330033002C
:10179400C900D000D500DC00E100E800ED00F40051
:1017A400F900FE00030108010D01120119012001D5
:1017B40027012D01834A536843F0E06343F001039A
:1017C400536002B070477F4A536823F0010343F02B
:1017D400E063F5E77B4A536843F0E06343F00203B8
:1017E400EEE7784A536823F00203F0E7754A53683A
:1017F40043F0E06343F00403E2E7724A536823F0E2
:101804000403E4E76F4A536843F0E06343F00803DA
:10181400D6E76C4A536823F00803D8E7694A53684B
:1018240043F0E06343F03003CAE7664A536823F0A9
:10183400300343F0E06343F01003C1E7614A5368A7
:1018440023F03003C3E75F4A536843F0E06343F097
:10185400C003B5E75B4A536823F0C00343F0E06379
:1018640043F04003ACE7574A536823F0C003AEE7A4
:10187400544A536843F0E06343F44073A0E7514A89
:10188400536823F4407343F0E06343F4007397E731
:101894004C4A536823F4407343F0E06343F4807389
:1018A4008EE7484A536823F4407390E7454A5368E7
:1018B40043F0E06343F4406382E7424A536823F40D
:1018C400406343F0E06343F4006379E73D4A5368BF
:1018D40023F440637BE73B4A536843F0E06343F4FB
:1018E40080536DE7374A536823F480536FE7354AD2
:1018F400536843F0E06343F4004361E7314A5368BB
:1019040023F4004363E72F4A536843F0E06343F44E
:10191400803355E72B4A536823F4803357E7294A29
:10192400536843F0E06343F4003349E7254A5368BE
:1019340023F400334BE7234A536843F0E06343F452
:1019440080233DE71F4A536823F480233FE71D4A61
:10195400536843F0E16333E71A4A536823F40023DE
:1019640035E7184A536843F0E26329E7154A536898
:1019740023F480132BE7134A536823F0E0631FE733
:10198400104A536823F0E06343F0807318E70D4A6C
:10199400536823F0E06343F0007311E7094A536886
:1019A40023F0E06343F080630AE7064AD36943F413
:1019B4008063D36105E7034AD36923F48063F8E7BE
:1019C400001002400000014091FAA1F3B3FA83F33E
:1019D40070B50D0E0F2691FAA1F1B1FA81F14459B7
:1019E4009B0006FA03F3890024EA030402FA01F1D6
:1019F4002143415170BD91FAA1F3B3FA83F370B559
:101A04000D0E042691FAA1F1B1FA81F144599B001B
:101A140006FA03F3890024EA030402FA01F12143DC
:101A2400415170BD431C04D00C3151F80C3C5A1C7C
:101A340001D100207047834201F10C01F5D101204E
:101A440070470000431C2DE9F34106460F4600D1C0
:101A5400FEE7574B00F00F02C0F3031001F0070834
:101A640053F82240FFF79EFCB8F1010F054643D11D
:101A740094FAA4F3B3FA83F30321200E2A589B00AB
:101A840001FA03F322EA030394FAA4F2B2FA82F20B
:101A94009200914001220B432B502146284608F125
:101AA400FF38FFF791FFB8F1010F06D817F00802CD
:101AB40018BF04222146FFF79EFF94FAA4F2230ED6
:101AC400E958B2FA82F39A000F23934094FAA4F2ED
:101AD400B2FA82F2C7F301170B409200012F23FAE6
:101AE40002F321D0022F4AD0082B30D10422214600
:101AF4002846FFF769FF2AE0C7F30620B8F1030F71
:101B040003D8DFE808F0050F0903FEE70022C4E765
:101B1400FFF714FE0822C0E77F2801D0FFF70EFE6E
:101B24000922BAE74246B8E7042B04D10822214629
:101B34002846FFF749FFEA68230A22EA142293FAA7
:101B4400A3F30124B3FA83F39C401443EC60194BD0
:101B54009A6942F001029A619B6903F001030193BF
:101B6400019BA6F10D03012B15D8134A536823F0EA
:101B7400E06343F08063536002B0BDE8F081042B5E
:101B840004D1082221462846FFF71EFFEB6823EA0A
:101B94001423EB60DBE70F2E02D0133E012EEBD8AB
:101BA400054A536823F0E06343F00073E3E700BFA2
:101BB400342B000800100240000001400B685A1C3E
:101BC40001D100207047834201D1486870470C312D
:101BD400F4E7431C01D0FFF7F1BF002070474B68C6
:101BE40013B94FF0FF307047834201D10868704742
:101BF4000C31F4E708B1FFF7F2BF4FF0FF30704744
:101C040003460868421C00D17047984201D1886895
:101C140070470C31F5E7431C01D0FFF7F1BF704763
:101C24000F4B1A6842F001021A6059680D4A0A40C3
:101C34005A601A6822F0847222F480321A601A6898
:101C440022F480221A605A6822F4FE025A604FF489
:101C54001F029A604FF00062034B9A60704700BF06
:101C6400001002400000FFF800ED00E00438704767
:101C74000368384A88B0934218D102F564429169E6
:101C840041F400619161926902F400620092009A49
:101C9400314A934237D1314BDA6942F01002DA61AA
:101CA400DB6903F010030593059B15E0B3F1804F46
:101CB40014D02B4A93421CD02A4A934231D02A4A48
:101CC4009342E5D1254BDA6942F00802DA61DB6917
:101CD40003F008030493049B08B070471F4AD169BA
:101CE40041F00101D161D26902F001020192019A2D
:101CF400CEE71A4AD16941F00201D161D26902F0FA
:101D040002020292029A194A934214D1134BDA69DD
:101D140042F02002DA61DB6903F020030693069B9C
:101D2400DAE70E4AD16941F00401D161D26902F0C7
:101D340004020392039A0E4A9342CDD1074B9A6947
:101D440042F400529A619B6903F400530793079B82
:101D5400C2E700BF002C0140001000400010024008
:101D64000004004000080040000C00400014004043
:101D7400003401400368224A93420CD121498A6904
:101D840022F400628A61204A934221D11D4AD36918
:101D940023F010030FE0B3F1804F0ED01B4A93429F
:101DA40011D01B4A93421BD01A4A9342EBD1154AD5
:101DB400D36923F00803D36170471249CA6922F03A
:101DC4000102CA61DFE70F49CA6922F00202CA614F
:101DD400114A934209D10B4AD36923F02003EAE75D
:101DE4000849CA6922F00402CA610C4A934200D02D
:101DF4007047044A936923F400539361704700BF0A
:101E0400002C01400010024000100040000400407B
:101E140000080040000C0040001400400034014061
:101E2400431C21D0194B984221D010D8A3F500634C
:101E340098421ED007D8B0F1804F1CD0A3F5806320
:101E440098421AD0FEE7124B984218D0FAE7114B89
:101E5400984216D003F50063984214D0A3F590334A
:101E64009842EFD1372070476FF00D00704736204D
:101E740070471E2070471C2070471D207047322079
:101E84007047192070472C20704700BF0010004095
:101E9400000C0040002C0140431C21D0194B9842F7
:101EA40021D010D8A3F5006398421ED007D8B0F112
:101EB400804F1CD0A3F5806398421AD0FEE7124BE2
:101EC400984218D0FAE7114B984216D003F50063F4
:101ED400984214D0A3F590339842EFD1372070473D
:101EE4006FF00D007047362070471E2070471C208D
:101EF40070471D207047322070471B2070472E20EA
:101F0400704700BF00100040000C0040002C01404E
:101F140038B50446FFF7ACFE0068FFF781FFD4E94B
:101F24001212FEF7EFF92068FFF77AFFFEF71CFAAA
:101F340022681046FFF7B0FF05461046FFF770FF12
:101F440085420BD0D4E912122846FEF7DBF920684B
:101F5400FFF7A2FFBDE83840FEF706BA38BD00001F
:101F640008B5074B90F8612053F82200FFF78EF86C
:101F740000F02200A0F122035842584108BD00BFDE
:101F84001802002008B5074B90F8612053F822008E
:101F9400FFF77CF800F02100A0F1210358425841DA
:101FA40008BD00BF1802002038B515460446B8B174
:101FB400C16490F96000FEF7E5F9B4F87230A16EDF
:101FC4009BB294F861001944064BAAB253F820005E
:101FD400FEF7B0FE94F96000BDE83840FEF7C4B9DE
:101FE40038BD00BF1802002048B1436D013306D14B
:101FF40090F86120024B53F82200FFF717B870479E
:102004001802002048B1436D013306D190F86120D5
:10201400024B53F82200FFF721B870471802002042
:10202400436C04381847836C043818471FB5036899
:102034000446186810F0010013D0002200921A68B8
:1020440000925B680093009B201FFFF789FF40BB51
:102054000122204604F15E0104B0BDE81040FFF700
:1020640034B8196811F0020106D001901A6801927F
:102074005B680193019BE7E71A6812F0040206D03B
:1020840002911A6802925B680293029BDCE719686A
:102094000907D9D503921A6803925B680393039BDB
:1020A400D2E704B010BD000008B52520FEF792F970
:1020B400024B1868BDE80840FEF7B0BE18020020C5
:1020C400262008B5FEF786F9034B586818B1BDE819
:1020D4000840FEF7A3BE08BD18020020272008B55B
:1020E400FEF778F9034B986818B1BDE80840FEF78D
:1020F40095BE08BD1802002008B53420FEF76AF921
:10210400024BD868BDE80840FEF788BE18020020DC
:1021140008B53520FEF75EF9024B1869BDE80840A2
:10212400FEF77CBE1802002003460A4910B5086871
:102134000344EFF30882934205D90C224FF0FF3099
:10214400054B1A6010BD054A054C121B9342F4D28C
:102154000B60F7E7300000206403002000C000207B
:1021640000040000FEE700001622024B4FF0FF308F
:102174001A607047640300200120704710B590B0C6
:102184002022002107A800F06BFB1422002101A8E3
:1021940000F066FB102301220224CDE90A234FF448
:1021A400601306A806940D940F93FEF71DFA00B170
:1021B400FEE70F23CDE901344FF480630390CDE9AA
:1021C4000430214601A8FEF7E5FB00B1FEE710B09C
:1021D40010BD08B50320FEF783F8BDE8084000F001
:1021E400F5B808B5AFF30080FEF71AF8FEF71CF84F
:1021F40000F0DEF8FAE700000C480D490D4A002310
:1022040002E0D458C4500433C4188C42F9D30A4AA7
:102214000A4C002301E013600432A242FBD3FFF70F
:10222400FFFC00F0DBFAFFF7DCFF70470000002042
:1022340098000020D0300008980000206C03002093
:10224400FEE70000C3B2322B2DE9F0410D462AD837
:102254002C4A00F4E06052F823400443621C4ED040
:10226400294EC4F3031756F8273004F00F0823FA55
:1022740008F3DB0710D520462449FFF7D3FB18B336
:102284002046FFF727F9012303FA08F256F827300E
:1022940023EA020346F82730052D1FD8DFE805F0AE
:1022A4001F2B2527292D00F0C002C02A27D1CF2BB0
:1022B40025D8174B00F03F0253F82220114B00F4AD
:1022C400E06053F82240C8E720461249FFF7AAFB12
:1022D4000028D8D02046FFF717F9D4E7FEE70021FD
:1022E4002046BDE8F041FFF7ADBB1021F8E72021FF
:1022F400F6E70321F4E70121F2E70921F0E7BDE85D
:10230400F08100BF602F00082C020020842B0008FD
:10231400202F0008A82B0008C3B2322B19D8184A62
:1023240000F4E06052F823301843C0F30313062B83
:1023340098BF144A00F00F0098BF52F82320124BA4
:1023440088BF002253F82030C3F30F23A9B11361CF
:10235400704700F0C002C02A0CD1CF2B0AD80B4B17
:1023640000F03F0253F82220054B00F4E06053F8DC
:102374002230D9E74FF0FF30D7E75361704700BFF1
:10238400602F000808000020342B0008202F0008CC
:10239400FFF7E8B838B5044648B1FFF7E3F8054657
:1023A40000F016F8FFF7DEF8431BA342F8D338BD5C
:1023B40008B5044B2BB1044800F00BF808B1AFF397
:1023C400008008BD0000000048020020FFF716B995
:1023D4007047B0F80431B0F80001181A00F03F005B
:1023E4007047B0F80431B0F800219BB293421ABF91
:1023F400D0F8F830985C4FF0FF30704790F8023115
:10240400B0F80601C0B2834227BFC3F13F03C0182E
:10241400C01A00F1FF30704707B503688DF8071044
:1024240001225B680DF10701984703B05DF804FBD6
:10243400B0F8722038B5436F134403F03F03A0F89B
:102444007230B0F87220B0F86E3092B293421BD062
:10245400B0F87220B0F8724095B203F14002521BFA
:10246400534203F03F03A4B202F03F0258BF5A4262
:10247400C4F140039A4228BF1A4604494267FFF751
:1024840093FD4FF0FF3038BD0020FCE735240008F1
:1024940003682DE9F0479B6804468846164698472A
:1024A40001232374D4F8E830B4F80291013382464E
:1024B400C9F1400904F1940708D194F80C312BB107
:1024C4000023384684F80C31FFF78EFD236820463C
:1024D4009B6898470028F9D035464D4501D85545A5
:1024E40015D9D14528BFD14623684A4641465B6881
:1024F40020469847236820469B689847B4F80221F1
:10250400A5EB0905C8448246C2F14009E5E7B4F8E1
:102514000221D4F8FC005319402B104419D82A4640
:10252400414600F08FF9A946B4F8023138461D44FB
:1025340005F03F05A4F80251FFF724FD30B94A46DF
:1025440038460B49C4F80891FFF72EFD3046BDE824
:10255400F087C2F140094A46414600F073F9D4F8C5
:10256400FC00A5EB090208EB090100F06BF9DBE7BD
:1025740035240008037C33B1B0F80221B0F80631E9
:102584009BB29A42FAD17047C0F8EC30009B91425A
:1025940008BF4FF0FF31C0F8F03000F11103C0F86C
:1025A400F8300023C0E9392100F15102A0F80431C8
:1025B400C0E93F23A0F8063170470000CBB2322BAC
:1025C40008D80E4A01F4E06152F823301943C0F8E8
:1025D400E810704701F0C002C02A0CD1CF2B0AD8F2
:1025E400074B01F03F0253F82220044B01F4E06151
:1025F40053F82230EAE74FF0FF31E8E7602F000894
:10260400202F0008CBB2322B08D80E4A01F4E06127
:1026140052F823301943C0F8E410704701F0C002A7
:10262400C02A0CD1CF2B0AD8074B01F03F0253F834
:102634002220044B01F4E06153F82230EAE74FF022
:10264400FF31E8E7602F0008202F000873B54FF42E
:102654007A7316460022C0E901231D4B0446036029
:102664004FF0FF33C0F8E8301A4B0D46984215D1AD
:10267400C321FFF7A3FFC221FFF7C4FF4FF0FF33CD
:10268400012E08BFC4F8E8302046D4E9392100936C
:102694004FF0FF33FFF778FF02B070BD0E4B0F49C8
:1026A4009A680F4B53F82200FFF793FA854202D140
:1026B400C3212046DDE70B492846FFF79BFA07496B
:1026C400C4F8E8002846FFF795FAC4F8E400D5E713
:1026D4003430000848020020202F0008C02E0008D3
:1026E400602F0008602E0008D0F8E83010B50133E0
:1026F40004460ED10368DB68984794F80C3143B95B
:10270400012304F1940084F80C31BDE81040FFF774
:1027140079BC10BD10B50446FFF7E6FFB4F80421F8
:10272400B4F8003192B29A4217BFD4F8F8204FF0AF
:10273400FF30D05C01331CBF03F03F03A4F8003129
:1027440010BD0000002202490248FFF77FBF00BF0E
:10275400004400404802002010B50446FFF718FE6C
:10276400E060236820465B699847002808DAFFF791
:102774000FFEE368C01AA3689842F2D34FF0FF300B
:1027840010BD2DE9F04107460C460D468E18B542A2
:10279400A5EB040807D03846FFF7DEFF031E02DB73
:1027A40005F8013BF3E74046BDE8F0812DE9F0412F
:1027B4000746884616461D4673B100243846FFF77F
:1027C400CBFF031E05DB434503D033550134A5423B
:1027D400F4D12046BDE8F0811C46FAE770B5002626
:1027E4000C4D0D4C641BA410A64209D100F08AF9CB
:1027F40000260A4D0A4C641BA410A64205D170BDE4
:1028040055F8043B98470136EEE755F8043B9847E2
:102814000136F2E7B8300008B8300008B8300008D4
:10282400C8300008024B0146186800F089B800BFA0
:1028340034000020024B0146186800F019B800BFAC
:10284400340000200A44914200F1FF3300D1704764
:1028540010B511F8014B914203F8014FF9D110BDA5
:1028640003460244934200D1704703F8011BF9E781
:1028740038B50546002940D051F8043C0C1F002B04
:10288400B8BFE41800F0E2F81C4A136833B9636077
:1028940014602846BDE8384000F0DEB8A34208D9E9
:1028A400206821188B4201BF19685B6809182160F0
:1028B400EDE71A465B680BB1A342FAD911685018C8
:1028C400A0420BD120680144501883421160E0D12A
:1028D40018685B68014411605360DAE702D90C237D
:1028E4002B60D6E7206821188B4201BF19685B680A
:1028F4000918216063605460CBE738BD5C03002095
:1029040070B50E4E0C463168054611B900F08CF8CE
:1029140030602146284600F087F8431C0AD0C41CC6
:1029240024F00304A04207D0211A284600F07CF8C2
:10293400013001D14FF0FF34204670BD6003002008
:102944002DE9F041CD1C25F0030508350C2D38BFC9
:102954000C25002D074601DBA94205D90C230026CE
:102964003B603046BDE8F0812E4E00F06FF83368CE
:102974001C4634BB29463846FFF7C2FF431C0446B5
:102984004DD134682646002E40D12368314638465E
:1029940004EB030800F048F880453AD12168033578
:1029A4006D1A25F0030508350C2D38BF0C25384663
:1029B4002946FFF7A5FF01302BD023682B44236061
:1029C4000EE02268521B1ED40B2A16D96119A342A9
:1029D400256018BF5960636808BF316062514B605D
:1029E400384604F10B0600F037F826F00706231DDD
:1029F400F21AB6D09B1BA350B3E76268A3420CBF84
:102A040032605A60ECE723466468B2E7344676687D
:102A1400B9E70C2338463B6000F01EF8A1E72560B7
:102A2400DEE700BF5C03002038B50023054D0446F3
:102A340008462B60FFF778FB431C02D12B6803B1D7
:102A4400236038BD64030020704770470148FFF7D6
:102A5400FBBF00BF680300200148FFF7F6BF00BFBB
:102A640068030020062008B500F02CF80120FFF7C9
:102A740079FB1F2938B504460D4604D91623036093
:102A84004FF0FF3038BD426C12B152F821304BB9CF
:102A9400204600F031F82A4601462046BDE8384079
:102AA40000F018B8012B0AD0591C03D11623036077
:102AB4000120E7E70024284642F8254098470020F3
:102AC400E0E70000024B01461868FFF7D2BF00BFE1
:102AD4003400002038B50023064D0446084611464C
:102AE4002B60FFF741FB431C02D12B6803B1236029
:102AF40038BD00BF64030020FFF73EBB08B5FFF7F5
:102B0400B1FF0000F8B500BFF8BC08BC9E46704792
:0C2B1400F8B500BFF8BC08BC9E46704736
:102B200002030405060708090A0B0C0D0E0F10100E
:102B30000000000001010000020200000404000087
:102B40000808000010100000202000004040000095
:102B5000808000000100010402000204040004045B
:102B60000800080410001004200020044000400465
:102B70008000800400000000000000000102030447
:102B800006070809040000000074004003800000EC
:102B9000050000000074004003000100FFFFFFFF7C
:102BA00000000000000000000000000000000040E5
:102BB00012800000000100000000004012900000A0
:102BC00000020000000C0040128000000100000024
:102BD000000000401212010001010000000000404E
:102BE0001210010001020000000C00401200010060
:102BF00002000000000000401292010002010000EB
:102C0000000000401291010002020000000C004090
:102C100012800100030000000000004012120200B8
:102C20000301000000000040121102000302000036
:102C3000000C0040120002000600000000040040EA
:102C40001295000007000000002C0140128D1000BA
:102C500007010000000400401215010007020000F7
:102C6000003401401280100008000000002C0140D8
:102C7000128E000008010000002C0140128D00009F
:102C800009000000002C0140120E010009010000A3
:102C9000002C0140120D01000A000000002C014030
:102CA000128E01000A010000002C0140128D01006B
:102CB0000B000000002C0140120E02000B0100006E
:102CC000002C0140120D02000F0000000000004027
:102CD000129100000F01000000000040128F000060
:102CE00010000000002C0140120D11001001000026
:102CF0000004004012950100100200000004004092
:102D00001294010010030000003401401200110071
:102D100011000000002C0140128D11001101000073
:102D200000040040121502001102000000040040DF
:102D3000121402001103000000340140128011003F
:102D400013000000000000401211010013010000F8
:102D500000000040120F01001400000000040040B9
:102D6000129400001500000000040040121401003D
:102D70001600000000080040129700001700000035
:102D80000008004012170100180000000008004071
:102D900012970100190000000008004012170200FD
:102DA0001A00000000000040129001001A0100000B
:102DB00000000040128F01001B00000000000040D6
:102DC000121002001B01000000000040120F020060
:102DD0001D000000002C0140128E10001E0000009B
:102DE000002C0140120E11001F000000002C0140B9
:102DF000128E110026000000000400401293000013
:102E0000260100000034014012800000270000006D
:102E100000040040121301002701000000340140AB
:102E2000120001002800000000040040129301007D
:102E30002801000000340140128001002900000038
:102E40000004004012130200290100000034014078
:102E500012000200FFFFFFFF000000000000000062
:102E60000300000000440040100800000A000000B9
:102E70000038014010060000170000000038014033
:102E8000100500001B00000000480040100000007A
:102E90002B000000004C0040100000002B0100003F
:102EA00000480040100A00003200000000500040BE
:102EB00010000000FFFFFFFF000000000000000006
:102EC0000200000000440040120800000900000059
:102ED00000380140120600001600000000380140D2
:102EE000120500001A000000004800401200000017
:102EF0002A000000004C0040120000002A010000DF
:102F000000480040120A00002C0000000050004061
:102F100012000000FFFFFFFF0000000000000000A3
:102F2000000000000100000002000000030000009B
:102F3000040000000500000006000000070000007B
:102F4000100000001100000020000000210000001F
:102F500022000000230000002400000025000000E3
:102F6000000000000100000002000000030000005B
:102F7000040000000500000006000000070000003B
:102F800008000000090000000A0000000B0000001B
:102F90000C0000000D0000000E0000000F000000FB
:102FA00010000000110000001200000013000000DB
:102FB00014000000150000001600000017000000BB
:102FC00018000000190000001A0000001B0000009B
:102FD0001C0000001D0000001E0000001F0000007B
:102FE000200000002100000022000000230000005B
:102FF000240000002500000026000000270000003B
:1030000028000000290000002A0000002B0000001A
:103010002C0000002D0000002E0000002F000000FA
:10302000300000003100000032000000000000000D
:10303000000000001D240008952400080124000859
:1030400079250008D723000819270008E72300087E
:1030500087270008B12700080000000000000000DA
:103060000000000000000000000000000000000060
:103070000000000000000000000000000000000050
:103080000000000000000000000000000000000040
:103090000000000000000000000000000000000030
:1030A0000000000000000000000000000000000020
:0830B000000000000000000018
:1030B800D7210008090200089D16000849270008C2
:0830C800E501000825170008CE
:1030D000010000001000000000080140000C014049
:1030E000001001400014014000180140001C014084
:1030F0000020014000300240000000000024F400E5
:103100007003002038000020000000007830000824
:10311000983000085830000800000000000000004F
:10312000000000000000000000000000000000009F
:10313000000000000000000000000000000000008F
:10314000000000000000000000000000000000007F
:10315000000000000000000000000000000000006F
:08316000000000000000000067
:04000005080021FDD1
:00000001FF
