:020000040800F2
:1000000000500020B11C0008F91C0008F91C000871
:10001000F91C0008F91C0008F91C00080000000089
:10002000000000000000000000000000F91C0008B3
:10003000F91C000800000000F91C00084312000829
:10004000F91C0008F91C0008F91C0008F91C00083C
:10005000F91C0008F91C0008251300082B130008E0
:1000600031130008371300083D130008F91C00087D
:10007000F91C0008F91C0008F91C0008F91C00080C
:10008000F91C0008F91C0008F91C0008F91C0008FC
:10009000F91C0008F91C0008F91C000843130008AB
:1000A000F91C000869100008F91C00087D10000800
:1000B0008110000895100008A9100008F91C00081C
:1000C000F91C0008F91C0008F91C0008F91C0008BC
:1000D000F91C0008911B0008A91B0008C51B00089B
:1000E00059130008F91C0008F91C00080000000062
:1000F0000000000000000000000000000000000000
:0C01000000000000000000005FF808F1A3
:10010C0010B5054C237833B9044B13B10448AFF345
:10011C0000800123237010BD90000020000000001F
:10012C00A425000808B5034B1BB103490348AFF3E2
:10013C00008008BD0000000094000020A4250008E9
:10014C000121C52001F0D4BD08B50021C52001F066
:10015C002DFE4FF47A7001F067FEC520012101F0ED
:10016C0025FEBDE808404FF47A7001F05DBE704783
:10017C0038B50E4B054618784FF47A73B3FBF0F391
:10018C000B4A1068B0FBF3F000F0A0F8044658B925
:10019C000F2D09D8024629464FF0FF3000F042F8E7
:1001AC002046044B1D6038BD0120FCE700000020F8
:1001BC002400002004000020074A08B5136803201F
:1001CC0043F01003136000F01BF80020FFF7D0FF82
:1001DC00FFF7CDFF002008BD00200240034A044B6E
:1001EC0011681B780B441360704700BFAC000020F3
:1001FC0000000020014B1868704700BFAC000020C5
:10020C0007490302CA6803F4E06322F4E0621204B3
:10021C00120C134343F0BF6343F40033CB607047BD
:10022C0000ED00E0164B30B5DC68C4F30224C4F1D9
:10023C000703251D042B28BF0423062D4FF0FF3583
:10024C0098BF002405FA03F388BF033C21EA03039B
:10025C00A34005FA04F422EA0402002843EA02034C
:10026C00ACBF00F16040074A4FEA0313DBB2ABBFEF
:10027C0000F5614000F00F0080F80033135430BDDE
:10028C0000ED00E014ED00E0002808DB012342093A
:10029C0000F01F0003FA00F0014B43F822007047F6
:1002AC0000E100E000280DDB0122430900F01F00F3
:1002BC0002FA00F0044A203342F82300BFF34F8FB8
:1002CC00BFF36F8F704700BF00E100E00138B0F161
:1002DC00807F0BD24FF0E023F021054A586182F861
:1002EC0023100020072298611A6170470120704783
:1002FC0000ED00E0002809DB0122430900F01F009B
:10030C0002FA00F0024A603342F82300704700BF43
:10031C0000E100E0704708B5FFF7FCFF08BD70472F
:10032C0010B5044650B1437903F0FF0213B90271C2
:10033C00FFF7F5FF01230020637110BD0120FCE7DE
:10034C0090F82130022B06D004238363002380F81D
:10035C0020300120704703681A6822F00E021A60E0
:10036C001A6822F001021A600123D0E90F218B4098
:10037C0053604FF4807303840020704708B590F8E5
:10038C002130022B03D004238363012008BD0368B2
:10039C001A6822F00E021A601A6822F001021A6022
:1003AC00174A93421CD0143293421BD014329342FE
:1003BC001AD0143293421AD0143293421AD01432F7
:1003CC0093420CBF4FF480134FF080730D4A53606F
:1003DC004FF480730384436B7BB198470020D5E7BF
:1003EC000123F3E71023F1E74FF48073EEE74FF4AA
:1003FC008053EBE74FF48033E8E71846C6E700BFBD
:10040C000800024000000240044A08B5516901424C
:10041C0002D0506100F06AFF08BD00BF000401402B
:10042C002DE9F341054638B30368DB0710D42B687C
:10043C009F075ED42B68190700F195802B685A072B
:10044C0000F1C180E869002840F02C81002029E0EF
:10045C00904C636803F00C03042B07D0636803F023
:10046C000C03082B0AD16368DE0307D523689C03B1
:10047C00DDD56B68002BDAD1012013E06B68B3F586
:10048C00803F12D1236843F480332360FFF7B2FE20
:10049C00064623689803CAD4FFF7ACFE801B642879
:1004AC00F7D9032002B0BDE8F0819BB9236823F48F
:1004BC0080332360236823F480232360FFF79AFEA4
:1004CC00064623689903B2D5FFF794FE801B642877
:1004DC00F7D9E6E7B3F5A02F236803D143F48023C3
:1004EC002360CFE723F480332360236823F4802335
:1004FC00CBE7684C636813F00C0F07D0636803F00C
:10050C000C03082B10D16368DA030DD423689B0706
:10051C0002D52B69012BAFD123686A6923F0F8034C
:10052C0043EAC203236085E72A695B4B6AB1012267
:10053C001A60FFF75FFE064623689F07ECD4FFF7AF
:10054C0059FE801B0228F7D9ABE71A60FFF752FE61
:10055C000646236898077FF56DAFFFF74BFE801BAF
:10056C000228F6D99DE7AA694A4E4B4BE2B101220B
:10057C00C3F88024FFF73EFE0446736A9B070DD533
:10058C004FF4FA52454B1B68B3FBF2F3019300BFD7
:10059C00019B5A1E0192002BF9D14FE7FFF72AFE5F
:1005AC00001B0228E9D97CE7C3F88024FFF722FE60
:1005BC000446736A9F077FF541AFFFF71BFE001BD4
:1005CC000228F6D96DE7334CE369D80024D401270F
:1005DC00E36943F08053E361E36903F080530093D4
:1005EC00009B2F4E3368D90518D5EB68012B26D10B
:1005FC00236A43F001032362FFF7FCFD41F28838C4
:10060C000646236A9B073FD5002F3FF41BAFE369D7
:10061C0023F08053E36115E70027E2E7336843F4E6
:10062C0080733360FFF7E6FD80463368DA05DCD46F
:10063C00FFF7E0FDA0EB08006428F6D931E7ABB971
:10064C00236A41F2883823F001032362236A23F0E2
:10065C0004032362FFF7CEFD0646236A9807D3D521
:10066C00FFF7C8FD801B4045F7D91AE7052B236A15
:10067C0003D143F004032362BAE723F0010323629E
:10068C00236A23F00403B6E7FFF7B4FD801B404553
:10069C00B7D906E7001002400000424224000020B7
:1006AC00007000402A4C636803F00C03082B3ED00A
:1006BC000022284B02281A662CD1FFF79BFD064618
:1006CC002368990120D42B6AB3F5803F05D1626869
:1006DC00A96822F400320A436260696A62680B43BB
:1006EC0022F474121343012263601A4B1A66FFF74B
:1006FC0081FD054623689A013FF5A8AEFFF77AFD08
:10070C00401B0228F6D9CCE6FFF774FD801B0228AB
:10071C00D6D9C6E6FFF76EFD054623689B017FF52B
:10072C0095AEFFF767FD401B0228F6D9B9E6012804
:10073C003FF4B8AE63682A6A03F4803191427FF4C7
:10074C009BAE6A6A03F4701393423FF47FAE93E658
:10075C00001002400000424230B5184B87B002AC8A
:10076C0003F11005224618685968083303C2AB42DE
:10077C001446F7D140F201231149ADF804304B680F
:10078C0003F00C02082A17D1C3F3834218326A44CF
:10079C00DB0312F8100C0CD54B680A4AC3F3404328
:1007AC00504318336B4413F8143CB0FBF3F007B010
:1007BC0030BD054B5843FAE70248F8E7BC25000862
:1007CC000010024000127A0000093D002DE9F041B2
:1007DC000D46044610B90120BDE8F081444A136867
:1007EC0003F007038B4228D321688E0730D4CA0745
:1007FC0043D43F4A136803F00703AB4265D8226821
:10080C003C4D12F0040F6CD1130706D56B682269AE
:10081C0023F4605343EAC2036B60FFF79DFF6B68E0
:10082C00354AC3F30313D35CD840344B1860344BB4
:10083C001868FFF79DFC0020CEE7136823F0070330
:10084C000B431360136803F007038B42C3D1CBE750
:10085C00284B11F0040F1EBF5A6842F4E0625A6034
:10086C00080742BF5A6842F460525A605A68A0683E
:10087C0022F0F00202435A60B9E762681D4E012A69
:10088C0033681AD113F4003FA5D0736841F288384D
:10089C0023F0030313437360FFF7ACFC0746736844
:1008AC00626803F00C03B3EB820FA2D0FFF7A2FC3B
:1008BC00C01B4045F3D903208EE7022A02D113F066
:1008CC00007FE1E713F0020FDEE7136823F0070364
:1008DC002B431360136803F00703AB427FF47BAF29
:1008EC008DE76B68E16823F4E0630B436B608BE787
:1008FC0000200240001002401026000824000020B6
:10090C000400002070477047036810B51A6904464C
:10091C0091070ED5DA6892070BD56FF002021A61B7
:10092C00012202779B699B0777D000F0F9FB00232B
:10093C00237723681A69500710D5DA6851070DD54B
:10094C006FF004021A61022222779B69204613F48D
:10095C00407F68D000F0E4FB0023237723681A69FA
:10096C0012070FD5DA6810070CD56FF008021A6160
:10097C0004222277DB69204699075AD000F0D0FB7D
:10098C000023237723681A69D20610D5DA68D006BB
:10099C000DD56FF010021A6108222277DB69204610
:1009AC0013F4407F4BD000F0BBFB0023237723686C
:1009BC001A69D10708D5DA68D20705D56FF001029C
:1009CC0020461A6100F089FB23681A69100608D5C5
:1009DC00DA68110605D56FF0800220461A6100F026
:1009EC009AF823681A69520608D5DA68500605D5B4
:1009FC006FF0400220461A61FFF785FF23681A69E1
:100A0C00910622D5DA6892061FD56FF02002204697
:100A1C00BDE810401A6100F07DB800F07FFB204665
:100A2C00FFF770FF83E700F079FB2046FFF76AFFC2
:100A3C0092E700F073FB2046FFF764FFA0E700F09D
:100A4C006DFB2046FFF75EFFAFE710BD1A4A036847
:100A5C0090420AD0B0F1804F07D0A2F59432904268
:100A6C0003D002F58062904215D14A6823F07003DE
:100A7C001343114A90420AD0B0F1804F07D0A2F52F
:100A8C009432904203D002F58062904203D1CA683E
:100A9C0023F4407313434A6923F080031343036028
:100AAC008B68C3620B688362034B984204BF0B696B
:100ABC000363012343617047002C014010B50446C9
:100ACC0030B390F83D3003F0FF021BB980F83C20A6
:100ADC0000F08CFF0223206884F83D30211DFFF7C5
:100AEC00B5FF0123002084F8463084F83E3084F8AA
:100AFC003F3084F8403084F8413084F8423084F838
:100B0C00433084F8443084F8453084F83D3010BDCF
:100B1C000120FCE7704770470368DA6822F4907292
:100B2C00DA605A6922F001025A61026B012A02BF93
:100B3C00DA6822F01002DA60202380F83E300023BD
:100B4C000363704790F83D30202B18D1A9B1A2B1A6
:100B5C0090F83C30012B12D0C284002382842122D5
:100B6C0001620168036480F83C3080F83D20CA685B
:100B7C00184642F08002CA6070470120704702207C
:100B8C00704708B50023406AC385C38400F0BCFFDE
:100B9C0008BD704707B58168836AB1F5805F02684C
:100BAC0034D10169002934D15268C2F3080223F808
:100BBC00022BC28D8362013A92B2C2851ABB0368C2
:100BCC00D96821F02001D960D96821F48071D960ED
:100BDC00596921F001015961202180F83E10016B07
:100BEC00012920D10263D96821F01001D96019685C
:100BFC00C90605D501921A6801925B680193019BA5
:100C0C00818DFFF7C6FF03B05DF804FB39B90169AC
:100C1C0029B95268D2B21A70836A0133C9E7526893
:100C2C0002F07F02F7E700F069FFECE7036837B5E5
:100C3C001A68044612F00F0FD9685D690CD195063D
:100C4C0067D58D0665D590F83E30222B5BD103B06D
:100C5C00BDE83040FFF79EBF05F0010001F4907530
:100C6C00054356D0D50705D5CB0542BF236C43F0C1
:100C7C0001032364550704D518B1236C43F0020318
:100C8C002364930704D518B1236C43F00403236445
:100C9C00150707D501F0200303431EBF236C43F057
:100CAC0008032364236C73B3920608D58B0606D510
:100CBC0094F83E30222B02D12046FFF76BFF2368BD
:100CCC0020465B69256C03F0400305F008051D43C5
:100CDC001BD0FFF721FF23685A69550610D55A69B6
:100CEC00A06B22F040025A6150B1534B4363FFF7A3
:100CFC0045FB40B1A06B436B03B0BDE830401847D7
:100D0C00204600F001FF03B030BD00F0FDFE25646D
:100D1C00F9E7206B012855D1D00653D5CD0651D516
:100D2C00002101911A6801925A680192019A5A693C
:100D3C0012F040022AD0A06B0268526892B2002ACC
:100D4C00E1D0A58D9542DED9E2858269202A15D0A5
:100D5C00DA6822F48072DA605A6922F001025A6170
:100D6C005A6922F040025A61202284F83E20216305
:100D7C00DA6822F01002DA60FFF7E2FAE38DA18D57
:100D8C00C91A89B22046FFF704FFBCE7E18D88B28F
:100D9C00E18D89B20029B6D0A18D091A89B200293A
:100DAC00B1D0D86820F49070D860586920F0010058
:100DBC005861202084F83E002263DA6822F0100289
:100DCC00DA60DFE7100626D50D0624D594F83D2011
:100DDC00212A98D1A168226AB1F5805F16D12169C8
:100DEC00A1B932F8021BC1F3080159602262E28CEE
:100DFC00013A92B2E284002A85D1DA6822F08002AC
:100E0C00DA60DA6842F04002DA607CE7511C216259
:100E1C0012785A60EBE750067FF575AF4A067FF5FE
:100E2C0072AFDA68204622F04002DA60202384F8A0
:100E3C003D3000F066FE66E78F0B000890F83C3002
:100E4C00012B11D02423026880F83D30D36823F0A5
:100E5C000C0343F00803D360202380F83D300023BB
:100E6C0080F83C30184670470220704790F83C30B0
:100E7C00012B11D02423026880F83D30D36823F075
:100E8C000C0343F00403D360202380F83D3000238F
:100E9C0080F83C30184670470220704790F83D208F
:100EAC0090F83E0010437047C285828581620346EC
:100EBC0022220020186483F83C0083F83E201B6833
:100ECC00DA6842F48072DA605A6942F001025A61BF
:100EDC00DA6842F02002DA60704770B490F83E6035
:100EEC00202E10D161B15AB190F83C40012C0AD09F
:100EFC00012480F83C400024046370BCFFF7D4BF8D
:100F0C00012070BC70470220FBE7836810B50446D3
:100F1C002BB10322014698470023C4E9023310BDCC
:100F2C00836810B5044613B1032201469847204646
:100F3C0010BD00000C4A034690420ED0B0F1804F19
:100F4C000DD0A2F5943290420BD04FF6FF7002F503
:100F5C008062934208BF0320704700207047012035
:100F6C0070470220704700BF002C0140014670B54D
:100F7C00044651F8100FFFF7DDFF0546084600F058
:100F8C00C7FC0023084A04F1600642F82530E360F0
:100F9C0004F1B005B54204D0103D2846FFF7C0FF60
:100FAC00F8E7204670BD00BFB0000020F8B504463D
:100FBC000846FFF7BFFF4FF6FF73984200D1FEE7DC
:100FCC00236903B1FEE71C4D04F10C0245F8202007
:100FDC000E2204F110063046C4E90C33C4E90E337A
:100FEC00C4E91033C4E91623216184F82C30A364BE
:100FFC0084F84C3084F84D30E46000F045FC04F18A
:10100C00600504F1B00728461035FFF77EFFBD429E
:10101C00F9D100234FF6FF72C4E90033C4E906325C
:10102C00C4E90833A360636180233046A362BDE842
:10103C00F840FFF743BD00BFB0000020002310B5FF
:10104C00044683668367C0F88830C0F89830C0F8CF
:10105C00A8300361FFF7AAFF204610BD034B1868A8
:10106C0010B10430FFF750BC704700BFB000002037
:10107C00FFF7F4BF034B586810B10430FFF744BCC2
:10108C00704700BFB0000020034B986810B10430CB
:10109C00FFF73ABC704700BFB0000020034BD86884
:1010AC0010B10430FFF730BC704700BFB000002017
:1010BC00826810B50AB901F06BFAC368BDE810403C
:1010CC00184708B500B9FEE700F0DCFB0068836E3A
:1010DC0013B16030FFF7ECFF08BDFFF7F2BF10B59E
:1010EC0000B9FEE7037F013B072B10D8DFE803F0C4
:1010FC0014040F100F0F0F12022400F0C3FB006832
:10110C00063400EB041083680BB1FFF7D1FF10BD60
:10111C000324F2E70424F0E70124EEE7FFF7DFBF36
:10112C00FFF7DDBF01F0C8B801F0CEB886B00428D7
:10113C0041D8DFE800F003101C2834001F4B204876
:10114C009A6942F004029A619B6903F004030193CB
:10115C00019B06B07047194B1A489A6942F0080275
:10116C009A619B6903F008030293029BF1E7134B0E
:10117C0015489A6942F010029A619B6903F01003BA
:10118C000393039BE5E70D4B10489A6942F020024C
:10119C009A619B6903F020030493049BD9E7074BE6
:1011AC000B489A6942F040029A619B6903F0400334
:1011BC000593059BCDE70020CBE700BF0010024054
:1011CC0000080140000C01400010014000140140D7
:1011DC0000180140F8B51449064600F016FBFFF75D
:1011EC00A9FE124D044655F8203073B90E4930460D
:1011FC0000F00BFB0746B020FFF794FF064639467C
:10120C00FFF71CFF55F824301E6055F824301C687D
:10121C0044B12046FFF7AAFE2046BDE8F840B021B5
:10122C00FFF782BFF8BD00BF20260008B0000020E9
:10123C00FEF7E0BF704708B5FEF7D0FFFFF76BF87D
:10124C00FFF7F8FF08BD70470F4B84B0DA6942F026
:10125C008052DA61DA6902F080520192019A9A693D
:10126C0042F001029A619A6902F001020292029A1A
:10127C005A6942F040025A615B6903F040030393E0
:10128C00039B04B0704700BF001002400C4BD3F816
:10129C00FC20D2015EBFD3F8FC2042F08072C3F870
:1012AC00FC200022074B5A601A6842F001021A60B7
:1012BC0000BF00BF00BF5868B0FA80F0400970470B
:1012CC0000ED00E0001000E008B5FFF7BDFFFFF7F0
:1012DC00DDFFFEF771FFFFF7B6FF00F0A5FCBDE8E0
:1012EC0008400148FFF71CB81C000020002301280F
:1012FC0003F1010202D013464008F8E71421DBB2D7
:10130C004B43044A181D1044816811B113441B69E6
:10131C0018477047C00000200120FFF775B8022065
:10132C00FFF772B80420FFF76FB80820FFF76CB80E
:10133C001020FFF769B838B505242025A8B2FFF7AF
:10134C0063F8013C4FEA4505F8D138BD38B50624A1
:10135C004FF48065A8B2FFF757F8013C4FEA4505FA
:10136C00F8D138BD0721204B06221975082183F8C6
:10137C002810092183F83C100A2183F850101721FA
:10138C001A7083F86410002283F8781083F88C109C
:10139C0083F8A01083F8B4102821DA601A625A631B
:1013AC009A64DA651A67C3F88420C3F89820C3F8E6
:1013BC00AC20C3F8C02083F8C810C3F8D42083F83D
:1013CC00DC10C3F8E82083F8F010C3F8FC2083F895
:1013DC000411C3F8102183F81811C3F8242183F8E1
:1013EC002C11C3F838217047C000002038B5054CCB
:1013FC00A4F5A075143C201DFFF792FDAC42F9D169
:10140C0038BD00BF000200207B4B82B09A690138C6
:10141C0042F001029A619B6903F001030193019B65
:10142C0023282CD8DFE810F024002D0034003B00DA
:10143C00400047004C00530058005F0068006D00EE
:10144C0074007D008200890092009B00A000A70020
:10145C00B000B500BC002B002B002B00C100C80055
:10146C002B002B002B002B00CD00D200D900E0006C
:10147C00624A536843F0E06343F00103536002B0E7
:10148C0070475E4A536823F0010343F0E063F5E7CD
:10149C005A4A536843F0E06343F00203EEE7574ABD
:1014AC00536823F00203F0E7544A536843F0E063B7
:1014BC0043F00403E2E7514A536823F00403E4E7E2
:1014CC004E4A536843F0E06343F00803D6E74B4AB7
:1014DC00536823F00803D8E7484A536843F0E063A5
:1014EC0043F03003CAE7454A536823F0300343F016
:1014FC00E06343F01003C1E7404A536823F0300324
:10150C00C3E73E4A536843F0E06343F0C003B5E7DA
:10151C003A4A536823F0C00343F0E06343F04003BE
:10152C00ACE7364A536823F0C003AEE7334A53683E
:10153C0043F0E06343F44073A0E7304A536823F46C
:10154C00407343F0E06343F4007397E72B4A53680E
:10155C0023F4407343F0E06343F480738EE7274A2F
:10156C00536823F4407390E7244A536843F0E063D4
:10157C0043F4406382E7214A536823F4406343F009
:10158C00E06343F4006379E71C4A536823F4406337
:10159C007BE71A4A536843F0E06343F480536DE7EA
:1015AC00164A536823F480536FE7144A536843F088
:1015BC00E06343F4004361E7104A536823F40043AB
:1015CC0063E70E4A536823F0E06357E70B4A53680E
:1015DC0023F0E06343F0807350E7084A536823F02C
:1015EC00E06343F0007349E7044A536823F0E06377
:1015FC0043F0806342E700BF00100240000001404E
:10160C0091FAA1F3B3FA83F370B50D0E0F2691FA8C
:10161C00A1F1B1FA81F144599B0006FA03F3890058
:10162C0024EA030402FA01F12143415170BD91FAFD
:10163C00A1F3B3FA83F370B50D0E042691FAA1F160
:10164C00B1FA81F144599B0006FA03F3890024EAAC
:10165C00030402FA01F12143415170BD431C04D033
:10166C000C3151F80C3C5A1C01D1002070478342BC
:10167C0001F10C01F5D1012070470000431C2DE94C
:10168C00F34106460F4600D1FEE7574B00F00F0220
:10169C00C0F3031001F0070853F82240FFF746FD92
:1016AC00B8F1010F054643D194FAA4F3B3FA83F3CE
:1016BC000321200E2A589B0001FA03F322EA0303AC
:1016CC0094FAA4F2B2FA82F29200914001220B43F6
:1016DC002B502146284608F1FF38FFF791FFB8F14F
:1016EC00010F06D817F0080218BF04222146FFF795
:1016FC009EFF94FAA4F2230EE958B2FA82F39A00F0
:10170C000F23934094FAA4F2B2FA82F2C7F30117B2
:10171C000B409200012F23FA02F321D0022F4AD062
:10172C00082B30D1042221462846FFF769FF2AE016
:10173C00C7F30620B8F1030F03D8DFE808F0050F54
:10174C000903FEE70022C4E7FFF75EFE0822C0E7AC
:10175C007F2801D0FFF758FE0922BAE74246B8E7C6
:10176C00042B04D1082221462846FFF749FFEA68DA
:10177C00230A22EA142293FAA3F30124B3FA83F383
:10178C009C401443EC60194B9A6942F001029A6137
:10179C009B6903F001030193019BA6F10D03012B3F
:1017AC0015D8134A536823F0E06343F08063536009
:1017BC0002B0BDE8F081042B04D108222146284652
:1017CC00FFF71EFFEB6823EA1423EB60DBE70F2E19
:1017DC0002D0133E012EEBD8054A536823F0E06388
:1017EC0043F00073E3E700BFD0250008001002406F
:1017FC00000001400B685A1C01D100207047834245
:10180C0001D1486870470C31F4E7431C01D0FFF755
:10181C00F1BF002070474B6813B94FF0FF30704791
:10182C00834201D1086870470C31F4E708B1FFF727
:10183C00F2BF4FF0FF3070470F4B1A6842F00102B5
:10184C001A6059680D4A0A405A601A6822F084726C
:10185C0022F480321A601A6822F480221A605A68C4
:10186C0022F4FE025A604FF41F029A604FF000629D
:10187C00034B9A60704700BF001002400000FFF855
:10188C0000ED00E00438704703681D4A84B09342B1
:10189C000BD11C4B9A6942F400629A619B6903F468
:1018AC0000630093009B04B07047B3F1804F10D0DD
:1018BC00154A934218D0154A9342F4D1114BDA6968
:1018CC0042F00402DA61DB6903F004030393039B27
:1018DC00E9E70C4BDA6942F00102DA61DB6903F0EB
:1018EC0001030193019BDEE7064BDA6942F0020229
:1018FC00DA61DB6903F002030293029BD3E700BFBA
:10190C00002C014000100240000400400008004080
:10191C000368124A934206D102F56442936923F498
:10192C00006393617047B3F1804F06D00C4A934229
:10193C0009D00C4A93420BD070470B4AD36923F061
:10194C000103D3617047084AD36923F00203F8E717
:10195C00054AD36923F00403F3E700BF002C0140D0
:10196C00000400400008004000100240431C10D04E
:10197C000C4B984210D007D8B0F1804F0ED0A3F585
:10198C00806398420CD0FEE7074B9842FBD119209C
:10199C0070476FF00D0070471E2070471C20704779
:1019AC001D20704700080040002C0140431C10D043
:1019BC000C4B984210D007D8B0F1804F0ED0A3F545
:1019CC00806398420CD0FEE7074B9842FBD11B205A
:1019DC0070476FF00D0070471E2070471C20704739
:1019EC001D20704700080040002C014038B504460B
:1019FC00FFF74AFF0068FFF7B9FFD4E91212FEF7B0
:101A0C0011FC2068FFF7B2FFFEF73EFC226810467F
:101A1C00FFF7CCFF05461046FFF7A8FF85420BD019
:101A2C00D4E912122846FEF7FDFB2068FFF7BEFF33
:101A3C00BDE83840FEF728BC38BD000008B5074BA0
:101A4C0090F8612053F82200FFF728FA00F02200EA
:101A5C00A0F122035842584108BD00BF00020020EB
:101A6C0008B5074B90F8612053F82200FFF716FADF
:101A7C0000F02100A0F121035842584108BD00BFDD
:101A8C000002002038B515460446B8B1C16490F97F
:101A9C006000FEF707FCB4F87230A16E9BB294F8AC
:101AAC0061001944064BAAB253F82000FFF74AF81C
:101ABC0094F96000BDE83840FEF7E6BB38BD00BFC6
:101ACC000002002048B1436D013306D190F861202B
:101ADC00024B53F82200FFF7B1B970470002002007
:101AEC0048B1436D013306D190F86120024B53F895
:101AFC002200FFF7BBB9704700020020436C04388A
:101B0C001847836C043818471FB5036804461868D7
:101B1C0010F0010013D0002200921A6800925B684A
:101B2C000093009B201FFFF789FF40BB012220463A
:101B3C0004F15E0104B0BDE81040FFF7CEB919689E
:101B4C0011F0020106D001901A6801925B680193B2
:101B5C00019BE7E71A6812F0040206D002911A689A
:101B6C0002925B680293029BDCE719680907D9D5DE
:101B7C0003921A6803925B680393039BD2E704B049
:101B8C0010BD000008B52520FEF7B4FB024B186809
:101B9C00BDE80840FFF74AB800020020262008B52F
:101BAC00FEF7A8FB034B586818B1BDE80840FFF7D7
:101BBC003DB808BD00020020272008B5FEF79AFBAF
:101BCC00034B986818B1BDE80840FFF72FB808BD63
:101BDC000002002003460A4910B508680344EFF3DD
:101BEC000882934205D90C224FF0FF30054B1A6046
:101BFC0010BD054A054C121B9342F4D20B60F7E75B
:101C0C00280000203C0300200050002000040000AD
:101C1C00FEE700001622024B4FF0FF301A607047AF
:101C2C003C0300200120704710B590B02022002109
:101C3C0007A800F05FFB1422002101A800F05AFB5A
:101C4C00102301220224CDE90A234FF4601306A8C5
:101C5C0006940D940F93FEF7E3FB00B1FEE70F2300
:101C6C00CDE901344FF480630390CDE90430214673
:101C7C0001A8FEF7ABFD00B1FEE710B010BD08B532
:101C8C000320FEF7BDFABDE8084000F0E9B808B53E
:101C9C00AFF30080FEF754FAFEF756FA00F0D2F8D4
:101CAC00FAE700000C480D490D4A002302E0D45815
:101CBC00C4500433C4188C42F9D30A4A0A4C00238A
:101CCC0001E013600432A242FBD3FFF7B5FD00F034
:101CDC00CFFAFFF7DCFF70470000002090000020D7
:101CEC00942A00089000002044030020FEE7000026
:101CFC00C3B2322B2DE9F0410D462AD8274A00F405
:101D0C00E06052F823400443621C44D0244EC4F3D8
:101D1C00031756F8273004F00F0823FA08F3DB07F3
:101D2C0010D520461F49FFF799FC10B12046FFF74C
:101D3C0051FA012303FA08F256F8273023EA02037A
:101D4C0046F82730052D15D8DFE805F015211B1DA9
:101D5C001F2300F0C002C02A1DD1CF2B1BD8124B61
:101D6C0000F03F0253F822200C4B00F4E06053F8D3
:101D7C002240C8E7FEE700212046BDE8F041FFF70E
:101D8C007DBC1021F8E72021F6E70321F4E70121BF
:101D9C00F2E70921F0E7BDE8F08100BF2429000833
:101DAC000C02002020260008E4280008C3B2322BC5
:101DBC0019D8184A00F4E06052F823301843C0F3E5
:101DCC000313042B98BF144A00F00F0098BF52F86D
:101DDC002320124B88BF002253F82030C3F30F236B
:101DEC00A9B11361704700F0C002C02A0CD1CF2BEF
:101DFC000AD80B4B00F03F0253F82220054B00F49D
:101E0C00E06053F82230D9E74FF0FF30D7E7536149
:101E1C00704700BF2429000808000020D0250008C6
:101E2C00E4280008FFF704BA38B5044648B1FFF7B8
:101E3C00FFF9054600F016F8FFF7FAF9431BA34229
:101E4C00F8D338BD08B5044B2BB1044800F00BF89F
:101E5C0008B1AFF3008008BD000000002002002094
:101E6C00FFF732BA7047B0F80431B0F80001181A15
:101E7C0000F03F007047B0F80431B0F800219BB27D
:101E8C0093421ABFD0F8F830985C4FF0FF3070478F
:101E9C0090F80231B0F80601C0B2834227BFC3F1FB
:101EAC003F03C018C01A00F1FF30704707B5036834
:101EBC008DF8071001225B680DF10701984703B0FC
:101ECC005DF804FBB0F8722038B5436F134403F08F
:101EDC003F03A0F87230B0F87220B0F86E3092B2B6
:101EEC0093421BD0B0F87220B0F8724095B203F157
:101EFC004002521B534203F03F03A4B202F03F02D4
:101F0C0058BF5A42C4F140039A4228BF1A460449AA
:101F1C004267FFF7B7FD4FF0FF3038BD0020FCE7FC
:101F2C00D11E000803682DE9F0479B6804468846DB
:101F3C001646984701232374D4F8E830B4F802917C
:101F4C0001338246C9F1400904F1940708D194F891
:101F5C000C312BB10023384684F80C31FFF7B2FD5D
:101F6C00236820469B6898470028F9D035464D4594
:101F7C0001D8554515D9D14528BFD14623684A46C5
:101F8C0041465B6820469847236820469B689847E3
:101F9C00B4F80221A5EB0905C8448246C2F14009F8
:101FAC00E5E7B4F80221D4F8FC005319402B104497
:101FBC0019D82A46414600F08FF9A946B4F80231E7
:101FCC0038461D4405F03F05A4F80251FFF748FDC3
:101FDC0030B94A4638460B49C4F80891FFF752FD10
:101FEC003046BDE8F087C2F140094A46414600F050
:101FFC0073F9D4F8FC00A5EB090208EB090100F019
:10200C006BF9DBE7D11E0008037C33B1B0F8022179
:10201C00B0F806319BB29A42FAD17047C0F8EC3056
:10202C00009B914208BF4FF0FF31C0F8F03000F137
:10203C001103C0F8F8300023C0E9392100F1510236
:10204C00A0F80431C0E93F23A0F806317047000026
:10205C00CBB2322B08D80E4A01F4E06152F823308F
:10206C001943C0F8E810704701F0C002C02A0CD127
:10207C00CF2B0AD8074B01F03F0253F82220044B18
:10208C0001F4E06153F82230EAE74FF0FF31E8E762
:10209C0024290008E4280008CBB2322B08D80E4AB9
:1020AC0001F4E06152F823301943C0F8E410704792
:1020BC0001F0C002C02A0CD1CF2B0AD8074B01F07B
:1020CC003F0253F82220044B01F4E06153F8223014
:1020DC00EAE74FF0FF31E8E724290008E42800087C
:1020EC0073B54FF47A7316460022C0E901231D4BD9
:1020FC00044603604FF0FF33C0F8E8301A4B0D462E
:10210C00984215D1C321FFF7A3FFC221FFF7C4FFEB
:10211C004FF0FF33012E08BFC4F8E8302046D4E955
:10212C00392100934FF0FF33FFF778FF02B070BDF9
:10213C000E4B0F499A680F4B53F82200FFF765FBC3
:10214C00854202D1C3212046DDE70B492846FFF723
:10215C006DFB0749C4F8E8002846FFF767FBC4F895
:10216C00E400D5E7F829000820020020E428000844
:10217C009C2800082429000854280008D0F8E830CE
:10218C0010B5013304460ED10368DB68984794F808
:10219C000C3143B9012304F1940084F80C31BDE8EF
:1021AC001040FFF79DBC10BD10B50446FFF7E6FFCD
:1021BC00B4F80421B4F8003192B29A4217BFD4F8A3
:1021CC00F8204FF0FF30D05C01331CBF03F03F030D
:1021DC00A4F8003110BD0000002202490248FFF7AC
:1021EC007FBF00BF004400402002002010B5044611
:1021FC00FFF718FEE060236820465B6998470028CB
:10220C0008DAFFF70FFEE368C01AA3689842F2D30E
:10221C004FF0FF3010BD2DE9F04107460C460D463E
:10222C008E18B542A5EB040807D03846FFF7DEFF41
:10223C00031E02DB05F8013BF3E74046BDE8F081E5
:10224C002DE9F0410746884616461D4673B1002419
:10225C003846FFF7CBFF031E05DB434503D0335550
:10226C000134A542F4D12046BDE8F0811C46FAE7C2
:10227C0070B500260C4D0D4C641BA410A64209D160
:10228C0000F08AF900260A4D0A4C641BA410A642E1
:10229C0005D170BD55F8043B98470136EEE755F86B
:1022AC00043B98470136F2E77C2A00087C2A000898
:1022BC007C2A00088C2A0008024B0146186800F0A2
:1022CC0089B800BF2C000020024B0146186800F0B2
:1022DC0019B800BF2C0000200A44914200F1FF33D2
:1022EC0000D1704710B511F8014B914203F8014F22
:1022FC00F9D110BD03460244934200D1704703F854
:10230C00011BF9E738B50546002940D051F8043CCB
:10231C000C1F002BB8BFE41800F0E2F81C4A13683D
:10232C0033B9636014602846BDE8384000F0DEB86D
:10233C00A34208D9206821188B4201BF19685B6839
:10234C0009182160EDE71A465B680BB1A342FAD974
:10235C0011685018A0420BD12068014450188342D8
:10236C001160E0D118685B68014411605360DAE7D2
:10237C0002D90C232B60D6E7206821188B4201BFB1
:10238C0019685B680918216063605460CBE738BD3D
:10239C003403002070B50E4E0C463168054611B959
:1023AC0000F08CF830602146284600F087F8431C7A
:1023BC000AD0C41C24F00304A04207D0211A2846DA
:1023CC0000F07CF8013001D14FF0FF34204670BD95
:1023DC00380300202DE9F041CD1C25F0030508350C
:1023EC000C2D38BF0C25002D074601DBA94205D961
:1023FC000C2300263B603046BDE8F0812E4E00F0E9
:10240C006FF833681C4634BB29463846FFF7C2FFC9
:10241C00431C04464DD134682646002E40D1236817
:10242C003146384604EB030800F048F880453AD1B1
:10243C00216803356D1A25F0030508350C2D38BFBE
:10244C000C2538462946FFF7A5FF01302BD0236811
:10245C002B4423600EE02268521B1ED40B2A16D983
:10246C006119A342256018BF5960636808BF3160C9
:10247C0062514B60384604F10B0600F037F826F039
:10248C000706231DF21AB6D09B1BA350B3E7626854
:10249C00A3420CBF32605A60ECE723466468B2E793
:1024AC0034467668B9E70C2338463B6000F01EF8DA
:1024BC00A1E72560DEE700BF3403002038B5002318
:1024CC00054D044608462B60FFF784FB431C02D1E4
:1024DC002B6803B1236038BD3C0300207047704764
:1024EC000148FFF7FBBF00BF400300200148FFF786
:1024FC00F6BF00BF40030020062008B500F02CF802
:10250C000120FFF785FB1F2938B504460D4604D979
:10251C00162303604FF0FF3038BD426C12B152F8F5
:10252C0021304BB9204600F031F82A4601462046AE
:10253C00BDE8384000F018B8012B0AD0591C03D163
:10254C00162303600120E7E70024284642F82540C3
:10255C0098470020E0E70000024B01461868FFF79F
:10256C00D2BF00BF2C00002038B50023064D044616
:10257C00084611462B60FFF74DFB431C02D12B681C
:10258C0003B1236038BD00BF3C030020FFF74ABBFA
:10259C0008B5FFF7B1FF0000F8B500BFF8BC08BCE8
:1025AC009E467047F8B500BFF8BC08BC9E46704705
:1025BC0002030405060708090A0B0C0D0E0F101078
:1025CC0000000000010100000202000004040000F1
:1025DC0008080000101000002020000040400000FF
:1025EC0080800000010001040200020404000404C5
:1025FC0008000804100010042000200440004004CF
:10260C0080008004000000000000000001020304B0
:10261C0006070809000000000000004012800000BE
:10262C0000010000000000401290000001000000BA
:10263C0000000040121201000101000000000040E7
:10264C001210010002000000000000401292010074
:10265C000201000000000040129101000300000084
:10266C0000000040121202000301000000000040B4
:10267C001211020006000000000400401295000038
:10268C0007000000002C0140128D10000701000013
:10269C00000400401215010008000000002C01404D
:1026AC00128E000008010000002C0140128D000069
:1026BC0009000000002C0140120E0100090100006D
:1026CC00002C0140120D01000A000000002C0140FA
:1026DC00128E01000A010000002C0140128D010035
:1026EC000B000000002C0140120E02000B01000038
:1026FC00002C0140120D02000F00000000000040F1
:10270C00129100000F01000000000040128F000029
:10271C0010000000002C0140120D110010010000EF
:10272C00000400401295010010020000000400405B
:10273C001294010011000000002C0140128D1100B8
:10274C0011010000000400401215020011020000EB
:10275C0000040040121402001300000000000040AE
:10276C00121101001301000000000040120F0100C3
:10277C00140000000004004012940000150000003A
:10278C000004004012140100160000000008004074
:10279C0012970000170000000008004012170100FB
:1027AC0018000000000800401297010019000000FA
:1027BC0000080040121702001A0000000000004040
:1027CC00129001001A01000000000040128F01005D
:1027DC001B00000000000040121002001B01000052
:1027EC0000000040120F02001D000000002C0140F0
:1027FC00128E10001E000000002C0140120E110061
:10280C001F000000002C0140128E11002600000059
:10281C000004004012930000270000000004004058
:10282C001213010028000000000400401293010064
:10283C00290000000004004012130200FFFFFFFFFC
:10284C0000000000000000000300000000440040F5
:10285C00100800000A0000000038014010060000BB
:10286C001700000000380140100500001B0000009C
:10287C0000480040100000002B0000000048004001
:10288C00100A0000FFFFFFFF000000000000000026
:10289C000200000000440040120800000900000083
:1028AC0000380140120600001600000000380140FC
:1028BC00120500001A000000004800401200000041
:1028CC002A00000000480040120A0000FFFFFFFF32
:1028DC0000000000000000000000000001000000EB
:1028EC0002000000030000000400000005000000CE
:1028FC00060000000700000010000000110000009E
:10290C002000000021000000220000002300000035
:10291C002400000025000000000000000100000061
:10292C00020000000300000004000000050000008D
:10293C00060000000700000008000000090000006D
:10294C000A0000000B0000000C0000000D0000004D
:10295C000E0000000F00000010000000110000002D
:10296C00120000001300000014000000150000000D
:10297C0016000000170000001800000019000000ED
:10298C001A0000001B0000001C0000001D000000CD
:10299C001E0000001F0000002000000021000000AD
:1029AC00220000002300000024000000250000008D
:1029BC00260000002700000028000000290000006D
:1029CC002A0000002B0000002C0000002D0000004D
:1029DC002E0000002F00000030000000310000002D
:1029EC00320000000000000000000000B91E0008CA
:1029FC00311F00089D1E000815200008731E0008DA
:102A0C00B5210008831E0008232200084D2200086F
:102A1C0000000000000000000000000000000000AA
:102A2C00000000000000000000000000000000009A
:102A3C00000000000000000000000000000000008A
:102A4C00000000000000000000000000000000007A
:102A5C00000000000000000000000000000000006A
:102A6C00000000000000000000000000000000005A
:102A7C008B1C00083101000871130008E5210008C7
:082A8C000D010008F913000818
:102A9400010000001000000000080140000C01408B
:102AA40000100140001401400018014000300240B1
:102AB400000000000024F40048030020300000203F
:102AC400000000003C2A00085C2A00081C2A0008B8
:102AD40000000000000000000000000000000000F2
:102AE40000000000000000000000000000000000E2
:102AF40000000000000000000000000000000000D2
:102B040000000000000000000000000000000000C1
:102B140000000000000000000000000000000000B1
:0400000508001CB122
:00000001FF
