:020000040800F2
:1000000000000120E1540008295500082955000886
:10001000295500082955000829550008000000004E
:10002000000000000000000000000000295500084A
:10003000295500080000000029550008FF37000876
:100040002955000829550008295500082955000898
:100050002955000829550008E1380008E73800084C
:10006000ED380008F3380008F93800082955000871
:100070002955000829550008295500082955000868
:100080002955000829550008295500082955000858
:10009000295500082955000829550008FF3800088F
:1000A00029550008C134000829550008D534000836
:1000B000D9340008ED340008013500087D530008EC
:1000C0008953000895530008A153000829550008DA
:1000D000295500086D43000885430008A143000826
:1000E0001539000829550008295500082955000828
:1000F00051350008295500086535000829550008C4
:10010000295500082955000815350008295500080B
:10011000BD430008D5430008293500083D350008D7
:1001200029550008295500082955000829550008B7
:1001300000000000000000000000000000000000BF
:1001400000000000000000000000000000000000AF
:10015000000000000000000000000000000000009F
:10016000000000000000000000000000000000008F
:10017000000000000000000000000000000000007F
:10018000000000000000000000000000000000006F
:10019000000000000000000000000000000000005F
:1001A000000000000000000000000000000000004F
:1001B000000000000000000000000000000000003F
:1001C000000000000000000000000000000000002F
:1001D000000000000000000000000000000000001F
:0401E0005FF8E0F1F3
:1001E40010B5054C237833B9044B13B10448AFF36D
:1001F40000800123237010BD98000020000000003F
:10020400605E000808B5034B1BB103490348AFF314
:10021400008008BD000000009C000020605E000813
:10022400002070477047F8B505460C4600268F1825
:10023400BC4207D02B6828461B6814F8011B98475A
:100244000644F5E73046F8BD38B500F10805D0F8A6
:10025400B4300446284698474FF6FD729042034650
:1002640013D82846B4F8BA20B4F8B81000F08BFBC1
:1002740094F89030032B08D8DFE803F002090F1339
:10028400B4F8B8301844A4F8B800012038BDB4F864
:10029400BA301844A4F8BA00F7E7B4F8B830181A1A
:1002A400F1E7B4F8BA30181AF4E7000010B5084CB6
:1002B400204600F058FF204600F07AF9204600213D
:1002C40000F059FF2046BDE81040024900F0F8BB99
:1002D400BC000020E45E000838B5084800F03CF992
:1002E400074D064C2B460A220021204600F0AEFBA7
:1002F400204600F03EF90028F4D138BDBC000020AF
:10030400A85E0008002370B50D4A0E4C04F10805E0
:1003140022600D4A2846C4E92D23636000F061FD84
:100324000A4B284623600A4A0A4B0B4900F056F947
:10033400FF232846BDE870401A46194600F090B8DD
:10034400BC5E0008B4000020D70D0008D45E00088D
:100354007504000861030008746300082D2970B552
:100364000446154609D8272971D92939042917D8EB
:10037400DFE801F0382626283C00A1F14C03012BCC
:1003840045D93F2963D901F03F03C21892F82C6084
:10039400FF2E15D011F0300F4CD12946304642E0E3
:1003A40000252C3414F8010BFF2805D00F2D94BF21
:1003B4000121022105F0B8F80135EDB2162DF1D175
:1003C400012070BD234B244A1B68003DB3FBF2F3AC
:1003D40018BF012521495D4348684B681B1A9D429B
:1003E400FBDCEDE7104605F085F9E9E7194B1A4CFB
:1003F4001B68032A34BF05220222B3FBF4F3174916
:10040400534348684A68121A9342FBDCD8E701F068
:100414003F010C4494F82C0042B9012105F084F802
:10042400294694F82C0005F0E9F8C9E7022105F003
:100434007BF8C5E7102B01D105F023F8304605F011
:1004440019F9003818BF012084F82700B8E7002004
:10045400B7E700BF3000002040420F00001000E06A
:1004640080F8371080F8382080F839307047000061
:1004740010B504460846143819460C2828D8DFE875
:1004840000F00C27270718232727272727270A00E8
:10049400104804F055FC012010BDA36923B923685A
:1004A4000D4A5B7B5343A36100210A4804F05CFDC1
:1004B400F1E7A169074804F0AFFB94F8241005485C
:1004C400490804F0C3FBE6E7024804F084FCE2E7D1
:1004D4000020E1E790070020A08601002DE9F74302
:1004E40004460026036890F8509090F8517093F8F1
:1004F40011802368E06C1B7CF5B203FB06F1C90094
:1005040089B201447A190135009120460021D2B202
:10051400EDB200F010FEA94504D90136BB19DBB2D7
:100524009845E6D803B0BDE8F083036800211A7C3F
:1005340090F85030C06C5A43D20005F0FFBA10B5A1
:100544000446836C80F851101B689847A36C2046BE
:10055400BDE810405B68184710B590F8AB3004460E
:100564000BB1FFF7E2FF2046BDE810400021FFF782
:10057400E6BF38B50446FFF7B1FF94F8515094F83C
:10058400501023680D445B7CEDB2AB4204D8204686
:1005940000F0F9FD002038BD94F8AB3013B12046CB
:1005A400FFF7C3FF20462946FFF7C9FF0120F2E702
:1005B40010B50446FFF7D0FF2046FFF7DAFF0146E7
:1005C4000028F9D12046BDE81040FFF7B8BF00006D
:1005D40008230370004870477001002030B585B0CF
:1005E4000D46009309491346094A044600F0F4FDF8
:1005F4000DF10F00FFF7ECFF064B01469DF80F20AD
:100604002046009500F0C6FB05B030BD99100008E7
:10061400110F0008190C00084218435C507800EBD5
:10062400032080B270470020704738B50B780D4620
:1006340003704B78044643708B788370CB78C37017
:100644000B7903714B7943718B798371CB79C371C6
:100654000B7A03724B7A43728B7A8372CB7AC372AE
:100664000B7B03734B7B43738B7B8373CB7BC37396
:100674000B7C112103742846FFF7CEFF13216082FF
:100684002846FFF7C9FF1521A0822846FFF7C4FFBB
:10069400E08238BD70B5047B066862183378D2B244
:1006A400072A43FA04F507D8EBB202734FF0FF3080
:1006B400884023EA000070BD731C03607378C4F1A2
:1006C4000804E4B2A3402B43083ADBB2D2B2ECE70D
:1006D40038B5002300F17805044680F8843081673A
:1006E40090F890102846FFF7D5FF94F8911084F8FD
:1006F40082002846FFF7CEFF94F8AA3084F88300DE
:1007040084F88630B3FA83F35B0984F8873038BD04
:1007140010B5FFF7BFFF01234C1EE4B203FA04F443
:10072400001B40B210BD012B05D0022B05D033B9FC
:10073400104480B270470844FBE7801AF9E7401A76
:10074400F7E7012B05D0022B05D033B9084480B25A
:100754007047801AFBE7401AF9E71044F7E72DE9E0
:10076400F04F04460E4687B090F8805090F88170A0
:10077400059294F882B04FFA87F9ABEB0503DBB22C
:10078400B3429A460393B4F87E304A4669B204935E
:10079400B4F87C0094F8883028BFB246FFF7D1FF44
:1007A40080460498FFF7BFFF05990246A9B194F863
:1007B400861084F8AA10009341465346204600F060
:1007C4009AF9039B35449E42EDB20DD3A5EB0B057C
:1007D4000137EEB2FFB20025CBE794F8851000296B
:1007E400EFD194F88710E4E784F8805084F881907E
:1007F40007B0BDE8F08F2DE9F347044600F178080F
:10080400FFF766FF94F89210404694F98370FFF75F
:100814007FFF94F8931082464046FFF779FF94F8DF
:10082400941006464046FFF773FF94F982508146C0
:10083400002D4ADDBA19524252B2514694F888301A
:10084400B4F87C00FFF77DFFA4F87C000646B4F8FA
:100854007E00FFF768FF0246A4F87E00032B58D8F9
:10086400DFE803F00237414E7319C1199BB289B214
:1008740000912046314600F0B5F930B30023A4F8C6
:10088400803094F88E104046FFF704FF94F88F10E0
:1008940006464046FFF7FEFE054600223146204646
:1008A400FFF75DFF294620460122FFF758FF01218B
:1008B4004046FFF7EFFE0028EFD194F98130BB42A8
:1008C400DFDB94F8863084F8AA30484602B0BDE8ED
:1008D400F087C7F1010C731CB44405449BB2A9B260
:1008E4001FFA8CF6C4E7C5F10105C7F10100731CBA
:1008F40010443544013291B29BB282B2AEB2B7E732
:10090400C5F101050132F319054491B29BB2AAB2B3
:10091400AEE701463346ABE7036FFF2970B503F139
:1009240017030D4612D8602909D9B0F8A020134442
:10093400587818B11A78AA4206D1981C70BD40297B
:10094400F6D9B0F89E20F2E70344F1E7B0F8A240EC
:100954001C44264600213046FFF75EFE0221044473
:100964003046FFF759FE854206F10406F2D8208886
:1009740040BA80B20028E1D0854201D1E01CDDE715
:10098400A3781C44F3E7F8B51F4690F88830044672
:100994000E461546032B07D8DFE803F002151A1E8E
:1009A400436F98470544ADB239462046A4F87C60AD
:1009B400A4F87E50FFF7B0FF014618B12046FFF7B8
:1009C4001AFF80B2F8BD436F9847361AB6B2EBE708
:1009D400436F98472D1AE6E7436F98470644F5E7B7
:1009E4002DE9F0471E4607460C4615464FF0000A0F
:1009F40000F0F7F94FF6FF784FF6FE79013E7B6879
:100A0400384616F8011F9847404503461BD0484511
:100A1400F5D02A4621463846FFF7B5FF97F88830C7
:100A2400032B05D8DFE803F002080B0D0444A4B23D
:100A340050441FFA80FAE2E70544ADB2F8E7241AFD
:100A4400F5E72D1AF9E75046BDE8F08710B4024CDB
:100A5400446010BCFFF7C4BFD70D0008036F10B586
:100A6400C3B190F9994090F99A1090F8A53080F8A4
:100A7400A64080F8A7106BB1012B0CD190F99B30E4
:100A84009C42B8BF80F8A63090F99C30994201DDB1
:100A940080F8A73010BD90F9982090F9963013444F
:100AA4009C42B8BF80F8A6309142C8BF80F8A72006
:100AB400F0E70000014B4367704700BF2B060008B6
:100AC400026F10B58A42044608D001678C30FFF7E4
:100AD400ACFD2046BDE81040FFF7C0BF10BD70B4A8
:100AE400B0F856609DF80C50446C921BA4460395D4
:100AF40092B270BC604770B490F8A4409DF80C505A
:100B0400002C3AD0002B38D0012B04D0022D2BD14D
:100B14000131C91A89B215F0010530D1B0F8644029
:100B240094422AD8B0F86640944226D90B449BB22A
:100B34008B42B0F86040B0F862601CD28E4219D982
:100B4400731E9BB29C4218D2A14238BF21469E42DA
:100B540094BFC1EB0604C1EB0304A3B2846C0395F8
:100B6400A468A44670BC6047032D02BF0132D21AA8
:100B740092B2D0E721468E42E4D870BC7047B0F8F8
:100B840060408C42F9D8B0F862408C42F5D91344E5
:100B94009BB29342B0F86440B0F8666010D29642BB
:100BA4000DD9731E9BB29C42E7D2A24238BF2246A3
:100BB4009E4294BFC2EB0604C2EB0304CDE7224677
:100BC4009642F0D8D9E78A4206D2834208D89A429C
:100BD40094BF0020012070478342F8D8002070475A
:100BE4000120704770B504460D461E46B0F86610E5
:100BF400BDF81030B0F86400FFF7E5FF48B13346A4
:100C04002A46B4F86210B4F86000BDE87040FFF7FB
:100C1400DABF70BDF0B5012490F8AA5002F00707BE
:100C2400BC40012D9DF81460E4B218D8254618D0B4
:100C3400D0F800C022F007029CF810E00EFB02F28C
:100C440092B21144C26C11446EB90A78013B2A4332
:100C540062409BB201F8012B002BF6D1F0BD0025B8
:100C6400E6E70024E4E70A7801372A436240013BBF
:100C740017F007070A709BB20CD1B0F85220114448
:100C840090F8AA20012A0AD80BD001242546002B6B
:100C9400E9D1E3E76D006400EDB2E4B2F7E70124C3
:100CA400F5E71546F3E7F0B590F8505002682C4686
:100CB400EB00A0F85430137C90F85170DB00A0F8DE
:100CC4005230FB00A0F85630517C3D448D42C4BFE5
:100CD400C91B8CB2A0F8583003EBC403A0F85A30F7
:100CE400938AA0F85C30D38AA0F85E30F0BDFFF799
:100CF400DABF10B49DF80440019410BCFFF7EFBEB6
:100D040013B5B0F86E3004460093B0F86A30B0F80A
:100D14006C20B0F86810FFF765FF18B984F8A400D8
:100D240002B010BD0123B4F8602084F8A430B4F8F4
:100D340068309A4238BFA4F86030B4F86220B4F83E
:100D44006A309A4288BFA4F86230B4F86420B4F8D8
:100D54006C309A4238BFA4F86430B4F86620B4F812
:100D64006E309A4288BFA4F86630D9E70022A0F812
:100D74006020B0F85C20A0F86220826D4266FFF724
:100D8400BFBF0000024A836CC0E91A225B6818479F
:100D94000000FFFF70B50025436440F201130446D0
:100DA400049E80F8502080F8515080F8855080F8D7
:100DB400A950A0F8AA30C1643368056786649847CF
:100DC4002046FFF7DFFF2046FFF774FE84F88850C3
:100DD40070BD19B10A2901D088B270474FF6FF706F
:100DE4007047002380F82630704710B40469134616
:100DF400A4460A4610BC1721604707B58DF80710B2
:100E04000DF107020121FFF7F0FF03B05DF804FBC9
:100E1400002310B404691A46A446182110BC604784
:100E2400002310B404691A46A446192110BC604773
:100E3400F8B5044616460D46FFF7EAFF4021204662
:100E4400FFF7DBFF33462A46204627691721B847B8
:100E54002046BDE8F840FFF7E3BF10B4C4680A4673
:100E6400A4460023152110BC604710B4C4680A4688
:100E7400A4460023162110BC604710B4C46813466E
:100E8400A4460A4610BC17216047002310B4C46866
:100E94001A46A446182110BC6047002310B4C46845
:100EA4001A46A446192110BC604773B505460C4682
:100EB400217819290DD8172919D80ED014290AD93F
:100EC400627800232846EE688DF80720B047023484
:100ED400EEE7FE2912D002B070BD637801212846E6
:100EE4000DF107028DF80730FFF7C7FFEFE7002386
:100EF40028461A46EE680134B047D9E762782921BA
:100F040028468DF8072000F046F9E0E714392DE96A
:100F1400F041044615461E4605294ED8DFE801F087
:100F24003303171C4145264E33780BB1FFF778FF86
:100F34002046FFF76DFF00212046FFF75EFF29469C
:100F44002046FFF75AFF01203070BDE8F0811146BA
:100F5400FFF753FF0120F8E7194F3B780BB1FFF778
:100F64005FFF182D324606D829462046FFF760FF5A
:100F740000233B70EEE718212046183DFFF758FF89
:100F8400EDB21836EDE790F824300769FF2B04BF63
:100F9400782380F82430BC463346BDE8F041142160
:100FA40060470022064B1A70D4E7054D2B780BB12D
:100FB400FFF736FF00232B70CCE70020C5E700BF06
:100FC400700500200B39F8B5044615461E46042961
:100FD40055D8DFE801F003540C1B29002AB929492C
:100FE4002046FFF762FF0120F8BD2749F8E73AB928
:100FF4002649FFF75AFF23689B7C84F82230F2E7E6
:101004002349FFF752FF2368DB7CF6E7FFF73DFF38
:1010140081212046FFF721FF29462046FFF725FFBF
:101024002046FFF73AFFDEE7FFF72FFF737994F8C6
:101034002270402107EBC30707F0FF072046FFF7A4
:101044000CFF390941F010012046FFF706FF07F0B5
:101054000F012046FFF709FFB179204641F0B001A6
:10106400FFF703FF31792046C900326801F0F80127
:10107400013DFFF702FF15F0FF05F3D1D0E7002093
:10108400B2E700BFC3630008C863000880630008B8
:101094008763000838B504460D46FFF793FF50B93F
:1010A400092D0AD00A2D07D1204600F014F8204655
:1010B4000449FFF7FAFE012038BD2046024900F03A
:1010C40005F8F8E78E630008D063000801608B7CA4
:1010D40080F82230704738B5002328211A46456924
:1010E4000446A847002314211A462046E568A84769
:1010F400204601224B2100F04EF8236820461A793D
:10110400292100F048F8204600224B2100F043F842
:10111400236820461A79292100F03DF8204601224F
:101124004B2100F038F8236820465A792921BDE87C
:10113400384000F030B813B58DF80430049B8DF8B6
:1011440005108DF80620009301226B460F21846858
:10115400A04702B010BD002310B484681A46A44608
:10116400092110BC6047002310B484681A46A446C1
:101174000A2110BC604710B484680A46A4460023C0
:101184000B2110BC6047002310B484681A46A4469F
:10119400102110BC604710B444690023A44610BC5D
:1011A40060470020704700000023FF21094A0360C4
:1011B400C0E90222C0E9042280F8233080F82630F6
:1011C400836180F8241080F8281016222C3004F053
:1011D400B5BC00BFA71100082DE9F04104460F4635
:1011E40016461D46DDF81880FFF7DEFF2046C4E9E9
:1011F4000276C4E90458BDE8F041FFF7ACBF70477C
:1012040038B50E4B054618784FF47A73B3FBF0F3F8
:101214000B4A1068B0FBF3F000F0A0F8044658B98C
:101224000F2D09D8024629464FF0FF3000F042F84E
:101234002046044B1D6038BD0120FCE7000000205F
:101244003000002004000020074A08B5136803207A
:1012540043F01003136000F01BF80020FFF7D0FFE9
:10126400FFF7CDFF002008BD00200240034A044BD5
:1012740011681B780B441360704700BF740500208D
:1012840000000020014B1868704700BF740500205F
:1012940007490302CA6803F4E06322F4E06212041B
:1012A400120C134343F0BF6343F40033CB60704725
:1012B40000ED00E0164B30B5DC68C4F30224C4F141
:1012C4000703251D042B28BF0423062D4FF0FF35EB
:1012D40098BF002405FA03F388BF033C21EA030303
:1012E400A34005FA04F422EA0402002843EA0203B4
:1012F400ACBF00F16040074A4FEA0313DBB2ABBF57
:1013040000F5614000F00F0080F80033135430BD45
:1013140000ED00E014ED00E0002808DB01234209A1
:1013240000F01F0003FA00F0014B43F8220070475D
:1013340000E100E000280DDB0122430900F01F005A
:1013440002FA00F0044A203342F82300BFF34F8F1F
:10135400BFF36F8F704700BF00E100E00138B0F1C8
:10136400807F0BD24FF0E023F021054A586182F8C8
:1013740023100020072298611A61704701207047EA
:1013840000ED00E0002809DB0122430900F01F0002
:1013940002FA00F0024A603342F82300704700BFAB
:1013A40000E100E0704708B5FFF7FCFF08BD704797
:1013B40010B5044650B1437903F0FF0213B902712A
:1013C400FFF7F5FF01230020637110BD0120FCE746
:1013D40010B5044640B10223037102F0ADF90020B8
:1013E40020616071207110BD0120FCE7012210B55D
:1013F400046801F01001236802FA01F123EA0101F3
:1014040021600271002010BD90F82130022B06D01B
:1014140004238363002380F820300120704703688D
:101424001A6822F00E021A601A6822F001021A6089
:101434000123D0E90F218B4053604FF48073038460
:101444000020704708B590F82130022B03D0042304
:101454008363012008BD036843491A6822F00E0221
:101464001A601A6822F001021A60404A934241D974
:101474008B4238D014318B4237D014318B4236D062
:1014840014318B4223D014318B4223D014318B423C
:1014940023D0934224D002F56272934223D01432B3
:1014A400934222D01432934221D01432934214BF77
:1014B4004FF480334FF480532D4A53604FF48073BC
:1014C4000384436B002B4DD098470020C2E74FF4B0
:1014D4008053F1E74FF48033EEE74FF48013EBE7EA
:1014E4004FF08073E8E70123E6E71023E4E74FF4C5
:1014F4008073E1E78B422ED01E498B422DD01431EC
:101504008B422CD014318B4219D014318B4219D018
:1015140014318B4219D093421AD0174A93421AD0ED
:101524001432934219D01432934218D01432934295
:1015340014BF4FF480334FF48053104ABDE74FF487
:101544008053FAE74FF48033F7E74FF48013F4E75E
:101554004FF08073F1E70123EFE71023EDE74FF439
:101564008073EAE7184675E70800024080000240ED
:10157400000402401C000240080402400000024033
:1015840090F8210070470000044A08B551690142EF
:1015940002D0506102F08CF908BD00BF0004014084
:1015A4002DE9F84606460F4691461D464FEA114A74
:1015B4003368BAF1010F0CBF5C699C6927EA040423
:1015C400A4B2B4FA84F46409A14501D0002017E060
:1015D4006A1CEED0FFF756FE089BC01AA84201D839
:1015E400002DE5D1002320220120336386F83D201D
:1015F40086F83E30326C86F83C3042F02002326489
:10160400BDE8F8867047000070B5044608B90120AB
:1016140070BD90F83D3003F0FF021BB980F83C2008
:10162400FFF7F0FF242384F83D3023681A6822F082
:1016340001021A601A6842F400421A601A6822F41D
:1016440000421A6001F0E6FA3F4A6368934294BF8D
:101654003E4A3F4A90428CBF00220122002AD6D142
:10166400394E3C49B342B0FBF1F188BF4FF4967652
:10167400226800F1FF30556825F03F0545EA010571
:1016840082BF71434FF47A76B1FBF6F15560156A67
:10169400013125F03F0529431162D1692A4D21F416
:1016A4004F41AB4221F0FF0132D85B00B0FBF3F0B5
:1016B400431C40F6FC70034242D0C3F30B030B43BC
:1016C400D3611168D4E9073021F0C00103430B430F
:1016D40013609168D4E9030321F40341034321F027
:1016E400FF010B439360D168D4E9053021F0FF0179
:1016F40003430B43D3601368002043F001031360DA
:101704002023206484F83D30206384F83E007FE782
:10171400A56855B903EB4303B0FBF3F30133C3F3FB
:101724000B037BB143F40043C9E719256B43B0FBBA
:10173400F3F30133C3F30B0323B143F44043BEE794
:101744000423BCE70123BAE7A08601007F841E00BE
:10175400FF083D0040420F002DE9F04F044685B0DC
:101764001E460F469146FFF78DFD94F83D30054621
:10177400202B03D0022005B0BDE8F08F0090192380
:10178400012220464C49FFF70BFF0028F2D194F8C0
:101794003C30012BEED0012384F83C3023684FF019
:1017A400010A1A68DFF810B1D20758BF1A6807F0A7
:1017B400FE075CBF42F001021A601A6822F400625C
:1017C4001A60242384F83D3000232364A3F5803376
:1017D400E36222684FF001111368204643F48073DA
:1017E4001360334600220095FFF7DAFE236838B110
:1017F4001B68DB0502D54FF4007323640320BAE7AA
:101804001F61FFF73FFD4FF0A008054623685A69A2
:101814005B69C2F34002C3F3802394F83D10A0290E
:1018240001D013431DD04FF02008236884F83D8075
:101834005A6912F0020F1A6842F400721A6025D035
:10184400002203925A69204603929B690122039362
:10185400039B194919230095FFF7A2FE88B10120C3
:1018640089E7FFF70FFD401BB04200D80EB984F89A
:101874003D8023685A695B69C2F34002C3F3802345
:10188400CBE784F83D8084F83C0074E76FF4806211
:1018940059465A612046192301220095FFF780FE1C
:1018A4000028DCD10AF1010ACA4592D384F83D80AC
:1018B40084F83C00D3E700BF02001000F7B5002411
:1018C4000094019490F83D40089D202C02D0022001
:1018D40003B0F0BD04682668B60503D4082D01D012
:1018E400012D1ED146F2A817284E3668B6FBF7F62E
:1018F40019277E430196019E013E0196019E6EB911
:101904002023066380F83D3080F83E60036C80F845
:101914003C6043F0200303640120D9E7A669B707BC
:10192400E9D490F83C60012ED1D02668F6075EBF5A
:10193400266846F001062660266826F400662660BE
:10194400212680F83D60102680F83E60002606645B
:101954004385438DC56241640385036B42620093F2
:10196400009B112B05D1B5F52A0F02D0B5F12A4FF2
:1019740003D1236843F480732360002380F83C3050
:101984006268184642F4E0626260A1E73000002019
:1019940037B590F83D4004F02804282C31D10029B3
:1019A4002DD0002A2BD090F83C40012C29D005687A
:1019B4002C68E4075EBF2C6844F001042C602C689A
:1019C40024F400642C60292480F83D40202480F80D
:1019D4003E40002404644285428DC36201946B69D5
:1019E40041620193AB69028580F83C402046019333
:1019F400019B6B6843F4E0636B6003B030BD01206E
:101A0400FBE70220F9E737B590F83D4004F02804DD
:101A1400282C31D100292DD0002A2BD090F83C401D
:101A2400012C29D005682C68E4075EBF2C6844F0BB
:101A340001042C602C6824F400642C602A2480F8AF
:101A44003D40202480F83E40002404644285428DB9
:101A5400C36201946B6941620193AB69028580F8AA
:101A64003C4020460193019B6B6843F4E0636B6048
:101A740003B030BD0120FBE70220F9E790F83D30C8
:101A8400202B14D1282380F83D30036800201A68E5
:101A9400D2075EBF1A6842F001021A601A6842F463
:101AA40080621A605A6842F440725A607047022099
:101AB400704770477047704790F83D2008B5036D34
:101AC400D2B283B9C36C0268012B836C05D1DBB23B
:101AD4001361036D0233036508BDC3F30723136168
:101AE400036D0133F7E7036D012B03D1836C0268A7
:101AF400DBB2F4E7036D022BEED1222A05D1026892
:101B0400136843F480731360EAE7438D9BB263B1B7
:101B1400212A0AD1436A026813F8011B1161436246
:101B2400438D013B9BB24385D6E7438D9BB2002B8B
:101B3400D2D1212AD0D10268516821F4E0615160E8
:101B4400116841F4007111602022036380F83D2084
:101B540080F83E30FFF7AFFFBEE7704770470000E4
:101B6400002337B546F2A81101932C4B406A1B6839
:101B740090F83D20B3FBF1F323214B430193036819
:101B8400D2B2019941BB016C41F020010164446B64
:101B94000CB10021A162816B09B100258D621D6821
:101BA40025F480651D600025458504B1656301B198
:101BB4004D63196821F00101196090F83D10602906
:101BC40011D1202380F83D30002380F83E30036497
:101BD400FFF7C4FF03B030BD0199013901911968C1
:101BE4008905CED4D3E702F02802282A0ED1196839
:101BF40041F001011960196841F480611960002302
:101C0400036380F83D2003F0B1FBE3E7202380F871
:101C14003D30002380F83E30F5E700BF300000205F
:101C240010B590F83D2090F83E300446102BD9B200
:101C3400D2B2036801D0402913D1222A11D11968E4
:101C440021F400611960596811F4006106D1602A19
:101C54001EBF202284F83D2084F83E100022226317
:101C640007E002F028012829EDD10022226384F83C
:101C74003D105A6812F400624FD05A68606B22F427
:101C840000625A6090F82130012B374B2BD043630C
:101C9400FFF7D8FB50B12268606B136823F001038F
:101CA4001360202384F83D30436B9847236C190755
:101CB4001FBF2268536823F4E063536094F83D30F7
:101CC400226CDBB252070DD5282B0BD1274B2022D7
:101CD400E36200232046236384F83D2084F83E30E9
:101CE40003F019FB10BDA06B4363FFF7ABFB0028A7
:101CF400DCD023685A69510605D51A69636A1A70DB
:101D0400636A013363622268A06B136823F00103E2
:101D14001360202384F83D30C6E794F83D10602911
:101D240015D1202184F83D1022645A69520605D544
:101D34001A69636A1A70636A01336362226820460F
:101D4400136823F001031360FFF708FFAEE75A6935
:101D5400500605D51A69636A1A70636A01336362AF
:101D6400204603F003FBA1E7651B00080000FFFF0A
:101D7400F0B5044603688FB05A68C66A90F83E000E
:101D840094F83D101028C5B2C9B202D0402D40F0DD
:101D9400CA829F69586910F0010F07D1B6F52A0F5E
:101DA40002D0B6F12A4F51D10FB0F0BD96054DD5F2
:101DB400E26AB2F52A0F0CD10122E26294F83E20C5
:101DC400402A11D1226D52B9626C02F0FE021A61EE
:101DD400EAE7E26AB2F12A4FF0D10822EDE7626C39
:101DE40042F00102D2B2F2E72269B2F5804F1AD171
:101DF40094F83D20212A626C11D102F0FE021A618E
:101E0400626B0AB1926A2AB9A26B002ACCD0926A98
:101E1400002AC9D05A6842F400625A60C4E742F00A
:101E24000102D2B2EBE7226D32B9626CD21102F038
:101E3400060242F0F002CAE7226D012AB4D1626CB4
:101E4400D21102F0060242F0F102C0E7060703D500
:101E5400960501D5626CE4E7860740F1E6809605B5
:101E640040F1E38094F83E10E26A256B94F83D005B
:101E7400C9B2222840F0D180206D40B9402906D152
:101E840000905A6900929B690093009B8CE7216D36
:101E940089B92069B0F5404F0DD101915A69019279
:101EA4009A690192019A1A6842F480721A60236D49
:101EB4000133236578E7618D89B251B902915A697A
:101EC40002929A690292029A1A6842F400721A60A3
:101ED40019E0618D89B2012949D112F5803F1BD1E6
:101EE4001A6822F480621A605A6812F400620CD0F4
:101EF4001A6822F480621A60002203925A690392DB
:101F04009B690393039B0023D3E704925A690492C9
:101F14009A690492049AD7E7082A1CD0202A1AD076
:101F2400122D0DD1012A16D11A6822F480621A608A
:101F3400002205925A6905929B690593059BE2E785
:101F4400102AF1D8964921FA02F2D607ECD51A687C
:101F540042F48062EBE71A6822F480621A6000227D
:101F640006925A6906929A690692069AACE7618DBE
:101F740089B2022933D1102A05D88949D140C943ED
:101F840011F0010120D0196841F4006119600021A9
:101F9400079159690791996907910799196821F47B
:101FA4008061196059680D05ADD512F5803F06D0E2
:101FB400511E1F29A7D87B4ACA40D007A3D55A6807
:101FC40042F480525A609EE7186840F480601860BA
:101FD400089159690891996908910899E2E7196883
:101FE40041F480611960596809050ED512F5803FE6
:101FF40007D0013A1F2A08D86A4921FA02F2D20707
:1020040003D55A6842F480525A60002209925A69F0
:1020140009929B690993099B75E700220A925A6900
:102024000A929B690A930A9BBEE67F0740F18D8062
:102034005E6836053FF5B8AE0706C0F380063ED5A8
:1020440050053CD5002E3DD194F83D20258D94F8C3
:102054003E10D2B2E06AC9B2C5B9212A18D1082803
:1020640058D0202856D010F5803F53D05A6822F417
:10207400E0625A6011232363002384F83E30202356
:10208400204684F83D30FFF714FD8DE6212A05D063
:1020940040297FF489AE222A7FF486AE628D92B203
:1020A4001AB95A6822F48062B7E694F83E20402AAE
:1020B40016D120460FB0BDE8F040FFF7FDBC002E5E
:1020C4003FF472AE97057FF56FAE212939D1E16AED
:1020D40094F83D20212A7FF467AE628D92B24AB112
:1020E400626A12F8011B19616262638D013B9BB243
:1020F400638559E608290DD020290BD011F5803FBE
:1021040008D0596821F4E06159601123236384F8ED
:102114003E20B4E75A68204622F4E0625A601A6806
:1021240042F400721A6000232022236384F83D20C5
:1021340094F83E2084F83E30402AA4D1FFF7BBFC3B
:1021440032E6402D7FF430AEB3E759680E053FF513
:102154002BAE4506C0F380017BD5500579D5002907
:102164007AD194F83D20222A7FF41EAE628D92B279
:10217400032A19D91A69636A1A70636A013363629C
:10218400638D013B9BB26385638D9BB2032B7FF40C
:102194000BAE2268536823F48063536004E600BFE7
:1021A4001400010081800080E06A02283FF4FCAD45
:1021B400012A3FF6F9AD0B9146F2A811724A126852
:1021C400B2FBF1F202EB82020B920B9A013A0B92F0
:1021D4000B99D1B9226C204642F0200222645A683D
:1021E40022F4E0625A601A69636A1A70636A0133FE
:1021F4006362638D013B9BB26385202384F83D3089
:1022040084F83E1003F0B2F8CEE51A6812F40072B6
:10221400DBD1196821F480611960596821F4E06107
:1022240059601969636A1970636A01336362638D63
:10223400013B9BB26385202384F83D3094F83E3003
:1022440084F83E20402B68D122632046FFF785FCAA
:10225400AAE500293FF4A8AD92057FF5A5ADE26A91
:10226400608D616A80B2042809D15A6822F48062C0
:102274005A601B690B70636A0133636235E7608DD2
:1022840080B203280CD15868042A20F48060586076
:10229400EFD0022AEDD01A6822F480621A60E8E7CF
:1022A400608D80B20228E4D1012A01D0102A28D1FD
:1022B4001A6822F480621A601B690B70626A531CEC
:1022C4006362638D013B9BB2638523681B69537012
:1022D400636A226801336362638D013B9BB2638549
:1022E400536823F440735360202384F83D3094F8FA
:1022F4003E30402B4FF0000384F83E300DD1236371
:10230400A3E7042A01D0022A03D11A6842F48062A6
:10231400D1E71A6842F40072CDE712232046236302
:10232400FFF7C8FB40E5206C08B300255869870710
:102334002CD596052AD5226C02B19D6994F83D20CE
:1023440002F02802282A15D15A686FEA950122F46E
:1023540080625A6000232F06204654BFA289228B34
:1023640001F0010184F83C3002F0A1FF1CE59D69F5
:102374005869DCE700220C9259690C919B6984F836
:102384003C200C930C9B0FE530000020C60640F166
:10239400B180950540F1AE8094F83D505A68EDB295
:1023A40022F4E0625A6000220D925A690D921A6872
:1023B40042F001021A600D9A1A6822F480621A60CF
:1023C4005A68100520D505F0F702222A4AD1A06BDD
:1023D4000268526892B26285628D92B21AB1226C1E
:1023E40042F0040222645A6822F400625A60FFF741
:1023F400C7F8012808D0A06B794B4363FFF722F894
:1024040010B1A06B436B9847638D9BB213B32368E1
:102414005A69510709D51A69636A1A70636A0133E4
:102424006362638D013B9BB2638523685A695206DC
:1024340009D51A69636A1A70636A01336362638D2A
:10244400013B9BB26385638D9BB21BB1236C43F04C
:1024540004032364236C13B320460FB0BDE8F0409B
:10246400FFF7DEBB606B0268526892B26285628DD0
:1024740092B21AB1226C42F0040222645A6822F425
:1024840000625A60FFF77CF80128BDD0606B544BA2
:102494004363FEF7D7FF0028B6D0606BB2E72A2D5E
:1024A40006D123632823204684F83D3002F048FFF8
:1024B40094F83D30282B0CD14A4B2022E3620023B0
:1024C4002046236384F83D2084F83E3002F023FF45
:1024D4006AE4236B222B02D0222D7FF465AC002307
:1024E4002022236384F83D2084F83E30204602F005
:1024F40027FF59E401F0F7012129C0F3800535D104
:10250400070627D5560525D53DBB94F83D00628DB9
:10251400C0B292B2002A3FF447AC626A12F8015B7F
:102524001D616262628D013A92B26285628D92B2DD
:10253400002A7FF439AC29287FF436AC5A68204647
:1025440022F480625A602823216384F83D3002F02B
:1025540009FF29E4002D3FF427AC95057FF524AC51
:10256400628D92B2002A3FF41FACB9E5400627D52C
:10257400510525D53DBB94F83D20618DD2B289B279
:1025840000293FF411AC1969636A1970636A013355
:102594006362638D013B9BB26385638D9BB2002BA9
:1025A4007FF402AC2A2A7FF4FFAB2268536823F439
:1025B4008063536022232363282384F83D3095E706
:1025C400002D3FF4F1AB92057FF5EEAB628D92B234
:1025D400002A3FF4E9AB1A69636A1A704BE600BF3C
:1025E400651B00080000FFFFF8B5036804465F6937
:1025F4005E6890F83E20F805D2B2C7F300250BD5EB
:10260400F105C6F3002507D56FF4807101255961E2
:10261400196841F400411960B80506D5F10542BFB7
:102624006FF4007145F002055961780536D5F1055E
:1026340034D5608D94F83D10202AD4F830C080B28F
:10264400C9B25BD1002859D101F0F700212804D088
:10265400282953D1BCF1210F50D194F83D20E16ACF
:10266400D2B2082901D020292AD1282A28D12C4ADB
:102674002046E2625A6822F4E0625A606FF4806293
:102684005A611A6822F480621A60002320222363AC
:1026940084F83D2084F83E3002F03DFE3A053BD5F7
:1026A400F30539D56FF40062236845F008055A61D3
:1026B400236C20461D432564BDE8F840FFF7B0BAFB
:1026C400212A17D116492046E1622263202284F888
:1026D4003D20002284F83E205A6822F4E0625A60C9
:1026E4006FF480625A611A6822F480621A6002F000
:1026F40039FED3E76FF480625A61CFE76FF48061EB
:10270400102A596145F0040501D0402AC6D11A683F
:1027140042F400721A60C1E7002DC9D1F8BD00BFB0
:102724000000FFFF90F83D007047006C7047000008
:102734002DE9F341054638B30368DB0710D42B6851
:102744009F075ED42B68190700F195802B685A0700
:1027540000F1C180E869002840F02C81002029E0C4
:10276400904C636803F00C03042B07D0636803F0F8
:102774000C03082B0AD16368DE0307D523689C0386
:10278400DDD56B68002BDAD1012013E06B68B3F55B
:10279400803F12D1236843F480332360FEF772FD37
:1027A400064623689803CAD4FEF76CFD801B642890
:1027B400F7D9032002B0BDE8F0819BB9236823F464
:1027C40080332360236823F480232360FEF75AFDBB
:1027D400064623689903B2D5FEF754FD801B64288E
:1027E400F7D9E6E7B3F5A02F236803D143F4802398
:1027F4002360CFE723F480332360236823F480230A
:10280400CBE7684C636813F00C0F07D0636803F0E0
:102814000C03082B10D16368DA030DD423689B07DB
:1028240002D52B69012BAFD123686A6923F0F80321
:1028340043EAC203236085E72A695B4B6AB101223C
:102844001A60FEF71FFD064623689F07ECD4FEF7C7
:1028540019FD801B0228F7D9ABE71A60FEF712FDB9
:102864000646236898077FF56DAFFEF70BFD801BC6
:102874000228F6D99DE7AA694A4E4B4BE2B10122E0
:10288400C3F88024FEF7FEFC0446736A9B070DD54B
:102894004FF4FA52454B1B68B3FBF2F3019300BFAC
:1028A400019B5A1E0192002BF9D14FE7FEF7EAFC77
:1028B400001B0228E9D97CE7C3F88024FEF7E2FC78
:1028C4000446736A9F077FF541AFFEF7DBFC001BEC
:1028D4000228F6D96DE7334CE369D80024D40127E4
:1028E400E36943F08053E361E36903F080530093A9
:1028F400009B2F4E3368D90518D5EB68012B26D1E0
:10290400236A43F001032362FEF7BCFC41F28838DA
:102914000646236A9B073FD5002F3FF41BAFE369AC
:1029240023F08053E36115E70027E2E7336843F4BB
:1029340080733360FEF7A6FC80463368DA05DCD486
:10294400FEF7A0FCA0EB08006428F6D931E7ABB988
:10295400236A41F2883823F001032362236A23F0B7
:1029640004032362FEF78EFC0646236A9807D3D538
:10297400FEF788FC801B4045F7D91AE7052B236A2C
:1029840003D143F004032362BAE723F00103236273
:10299400236A23F00403B6E7FEF774FC801B40456A
:1029A400B7D906E700100240000042423000002080
:1029B400007000402A4C636803F00C03082B3ED0DF
:1029C4000022284B02281A662CD1FEF75BFC06462F
:1029D4002368990120D42B6AB3F5803F05D162683E
:1029E400A96822F400320A436260696A62680B4390
:1029F40022F474121343012263601A4B1A66FEF721
:102A040041FC054623689A013FF5A8AEFEF73AFC5F
:102A1400401B0228F6D9CCE6FEF734FC801B0228C2
:102A2400D6D9C6E6FEF72EFC054623689B017FF542
:102A340095AEFEF727FC401B0228F6D9B9E601281B
:102A44003FF4B8AE63682A6A03F4803191427FF49C
:102A54009BAE6A6A03F4701393423FF47FAE93E62D
:102A6400001002400000424230B5184B87B002AC5F
:102A740003F11005224618685968083303C2AB42B3
:102A84001446F7D140F201231149ADF804304B68E4
:102A940003F00C02082A17D1C3F3834218326A44A4
:102AA400DB0312F8100C0CD54B680A4AC3F34043FD
:102AB400504318336B4413F8143CB0FBF3F007B0E5
:102AC40030BD054B5843FAE70248F8E7E8630008CD
:102AD4000010024000127A0000093D002DE9F04187
:102AE4000D46044610B90120BDE8F081444A13683C
:102AF40003F007038B4228D321688E0730D4CA071A
:102B040043D43F4A136803F00703AB4265D82268F5
:102B14003C4D12F0040F6CD1130706D56B68226983
:102B240023F4605343EAC2036B60FFF79DFF6B68B5
:102B3400354AC3F30313D35CD840344B1860344B89
:102B44001868FEF75DFB0020CEE7136823F0070347
:102B54000B431360136803F007038B42C3D1CBE725
:102B6400284B11F0040F1EBF5A6842F4E0625A6009
:102B7400080742BF5A6842F460525A605A68A06813
:102B840022F0F00202435A60B9E762681D4E012A3E
:102B940033681AD113F4003FA5D0736841F2883822
:102BA40023F0030313437360FEF76CFB074673685B
:102BB400626803F00C03B3EB820FA2D0FEF762FB52
:102BC400C01B4045F3D903208EE7022A02D113F03B
:102BD400007FE1E713F0020FDEE7136823F0070339
:102BE4002B431360136803F00703AB427FF47BAFFE
:102BF4008DE76B68E16823F4E0630B436B608BE75C
:102C040000200240001002403C6400083000002014
:102C140004000020044B054A5B68C3F30223D35C21
:102C2400034A1068D8407047001002404C64000802
:102C340030000020044B054A5B68C3F3C223D35C15
:102C4400034A1068D8407047001002404C640008E2
:102C540030000020704710B50446002851D0436A64
:102C6400002B4AD14268B2F5827F00D0C3610023B1
:102C7400A36294F8513003F0FF0223B9204684F88C
:102C84005020FFF7E7FF0223226884F851301368CD
:102C9400A06823F040031360636800F4044003F465
:102CA40082730343E068A16900F400600343206970
:102CB40000F002000343606900F00100034301F4E3
:102CC40000700343E069090C00F038000343206AF4
:102CD40001F0040100F080000343A06A00F40050F6
:102CE400034313605160D369002023F40063D3616C
:102CF4000123606584F8513010BD0023C0E904331A
:102D0400B5E70120F8E770477047036810B51A6902
:102D1400044691070ED5DA6892070BD56FF00202CC
:102D24001A61012202779B699B0777D000F052FC5D
:102D34000023237723681A69500710D5DA685107EE
:102D44000DD56FF004021A61022222779B69204696
:102D540013F4407F68D000F03DFC00232377236800
:102D64001A6912070FD5DA6810070CD56FF008023C
:102D74001A6104222277DB69204699075AD000F0B1
:102D840029FC0023237723681A69D20610D5DA6850
:102D9400D0060DD56FF010021A6108222277DB6984
:102DA400204613F4407F4BD000F014FC002323771B
:102DB40023681A69D10708D5DA68D20705D56FF0F8
:102DC400010220461A6100F0E2FB23681A6910062A
:102DD40008D5DA68110605D56FF0800220461A611D
:102DE40000F0AFF823681A69520608D5DA6850066D
:102DF40005D56FF0400220461A61FFF785FF23686E
:102E04001A69910622D5DA6892061FD56FF020025E
:102E14002046BDE810401A6100F092B800F0D8FBDB
:102E24002046FFF770FF83E700F0D2FB2046FFF750
:102E34006AFF92E700F0CCFB2046FFF764FFA0E7AF
:102E440000F0C6FB2046FFF75EFFAFE710BD0000B1
:102E5400244A0368904212D002F5006290420ED0D8
:102E6400B0F1804F0BD0A2F59832904207D002F512
:102E74008062904203D002F5806290421DD14A687C
:102E840023F070031343174A904212D002F50062F4
:102E940090420ED0B0F1804F0BD0A2F59832904200
:102EA40007D002F58062904203D002F5806290421E
:102EB40003D1CA6823F4407313434A6923F080039F
:102EC400134303608B68C3620B688362054B9842AB
:102ED40003D003F50063984201D10B690363012316
:102EE40043617047002C014010B5044630B390F89C
:102EF4003D3003F0FF021BB980F83C2001F068F973
:102F04000223206884F83D30211DFFF7A1FF01232F
:102F1400002084F8463084F83E3084F83F3084F84A
:102F2400403084F8413084F8423084F8433084F8E7
:102F3400443084F8453084F83D3010BD0120FCE76E
:102F4400704770470368DA6822F49072DA605A694D
:102F540022F001025A61026B012A02BFDA6822F0F0
:102F64001002DA60202380F83E30002303637047A8
:102F740090F83D30202B18D1A9B1A2B190F83C3083
:102F8400012B12D0C28400238284212201620168B1
:102F9400036480F83C3080F83D20CA68184642F04B
:102FA4008002CA607047012070470220704708B54C
:102FB4000023406AC385C38401F098F908BD7047B3
:102FC40007B58168836AB1F5805F026834D101690D
:102FD400002934D15268C2F3080223F8022BC28DAF
:102FE4008362013A92B2C2851ABB0368D96821F0A0
:102FF4002001D960D96821F48071D960596921F020
:1030040001015961202180F83E10016B012920D172
:103014000263D96821F01001D9601968C90605D581
:1030240001921A6801925B680193019B818DFFF7FD
:10303400C6FF03B05DF804FB39B9016929B95268C8
:10304400D2B21A70836A0133C9E7526802F07F0270
:10305400F7E701F045F9ECE7036837B51A68044669
:1030640012F00F0FD9685D690CD1950667D58D06EE
:1030740065D590F83E30222B5BD103B0BDE83040DB
:10308400FFF79EBF05F0010001F49075054356D08B
:10309400D50705D5CB0542BF236C43F00103236458
:1030A400550704D518B1236C43F002032364930736
:1030B40004D518B1236C43F004032364150707D522
:1030C40001F0200303431EBF236C43F00803236471
:1030D400236C73B3920608D58B0606D594F83E305C
:1030E400222B02D12046FFF76BFF236820465B6941
:1030F400256C03F0400305F008051D431BD0FFF7C2
:1031040021FF23685A69550610D55A69A06B22F02D
:1031140040025A6150B1534B4363FEF793F940B1F7
:10312400A06B436B03B0BDE830401847204601F064
:10313400DDF803B030BD01F0D9F82564F9E7206B60
:10314400012855D1D00653D5CD0651D50021019182
:103154001A6801925A680192019A5A6912F040025F
:103164002AD0A06B0268526892B2002AE1D0A58DE1
:103174009542DED9E2858269202A15D0DA6822F4E4
:103184008072DA605A6922F001025A615A6922F0A7
:1031940040025A61202284F83E202163DA6822F03A
:1031A4001002DA60FEF730F9E38DA18DC91A89B2F5
:1031B4002046FFF704FFBCE7E18D88B2E18D89B2B8
:1031C4000029B6D0A18D091A89B20029B1D0D868D6
:1031D40020F49070D860586920F0010058612020D4
:1031E40084F83E002263DA6822F01002DA60DFE736
:1031F400100626D50D0624D594F83D20212A98D111
:10320400A168226AB1F5805F16D12169A1B932F8AB
:10321400021BC1F3080159602262E28C013A92B2A6
:10322400E284002A85D1DA6822F08002DA60DA6862
:1032340042F04002DA607CE7511C216212785A6045
:10324400EBE750067FF575AF4A067FF572AFDA6893
:10325400204622F04002DA60202384F83D3001F059
:1032640042F866E7B32F000890F83C30012B11D0E8
:103274002423026880F83D30D36823F00C0343F024
:103284000803D360202380F83D30002380F83C30CD
:10329400184670470220704790F83C30012B11D03B
:1032A4002423026880F83D30D36823F00C0343F0F4
:1032B4000403D360202380F83D30002380F83C30A1
:1032C400184670470220704790F83D2090F83E0061
:1032D40010437047C2858285816203462222002002
:1032E400186483F83C0083F83E201B68DA6842F4D3
:1032F4008072DA605A6942F001025A61DA6842F077
:103304002002DA60704770B490F83E60202E10D12D
:1033140061B15AB190F83C40012C0AD0012480F8E4
:103324003C400024046370BCFFF7D4BF012070BC90
:1033340070470220FBE7836810B504462BB10322D3
:10334400014698470023C4E9023310BD836810B5D1
:10335400044613B1032201469847204610BD0000DD
:10336400164A034690421BD0B0F1804F1AD0A2F502
:103374009432904218D002F58062904216D002F541
:103384008062904214D04FF6FF700D4A934211D0E0
:103394000C4A934210D00C4A934208BF072070474E
:1033A4000020F2E70120F0E70220F1E70320F2E732
:1033B400042070470520704706207047002C014008
:1033C400001000400014004000340140014670B574
:1033D400044651F8100FFFF7C3FF0546084600F0F6
:1033E40029FE0023084A04F1600642F82530E36010
:1033F40004F1B005B54204D0103D2846FFF7A6FFFE
:10340400F8E7204670BD00BF78050020F8B50446F3
:103414000846FFF7A5FF4FF6FF73984200D1FEE779
:10342400236903B1FEE71C4D04F10C0245F820208A
:103434000E2204F110063046C4E90C33C4E90E33FD
:10344400C4E91033C4E91623216184F82C30A36441
:1034540084F84C3084F84D30E46000F069FD04F1E8
:10346400600504F1B00728461035FFF764FFBD423C
:10347400F9D100234FF6FF72C4E90033C4E90632E0
:10348400C4E90833A360636180233046A362BDE8C6
:10349400F840FFF729BD00BF78050020002310B5D0
:1034A400044683668367C0F88830C0F89830C0F853
:1034B400A8300361FFF7AAFF204610BD034B18682C
:1034C40010B10430FFF721BC704700BF780500201D
:1034D400FFF7F4BF034B586810B10430FFF715BC75
:1034E400704700BF78050020034B986810B1043082
:1034F400FFF70BBC704700BF78050020034BD8686A
:1035040010B10430FFF701BC704700BF78050020FC
:10351400034B186910B10430FFF7F7BB704700BFC5
:1035240078050020034B586910B10430FFF7EDBB58
:10353400704700BF78050020034B986910B1043030
:10354400FFF7E3BB704700BF78050020034BD86941
:1035540010B10430FFF7D9BB704700BF78050020D5
:10356400FFF7F4BF826810B50AB902F073FCC368B0
:10357400BDE81040184708B500B9FEE700F0D6FCD6
:103584000068836E13B16030FFF7ECFF08BDFFF7EE
:10359400F2BF10B500B9FEE7037F013B072B10D83B
:1035A400DFE803F014040F100F0F0F12022400F0D1
:1035B400BDFC0068063400EB041083680BB1FFF710
:1035C400D1FF10BD0324F2E70424F0E70124EEE761
:1035D400FFF7DFBFFFF7DDBF02F092BA02F098BA3F
:1035E40003460A4910B508680344EFF3088293427E
:1035F40005D90C224FF0FF30054B1A6010BD054A67
:10360400054C121B9342F4D20B60F7E7080000202C
:10361400B40900200000012000040000FEE70000BF
:103624001622024B4FF0FF301A607047B409002095
:103634000120704788B006285AD8DFE800F004114A
:103644001D2935414D002B4B2B489A6942F0040249
:103654009A619B6903F004030193019B08B07047CE
:10366400244B26489A6942F008029A619B6903F048
:1036740008030293029BF1E71E4B21489A6942F02A
:1036840010029A619B6903F010030393039BE5E71F
:10369400184B1C489A6942F020029A619B6903F016
:1036A40020030493049BD9E7124B17489A6942F00C
:1036B40040029A619B6903F040030593059BCDE7A3
:1036C4000C4B12489A6942F080029A619B6903F09C
:1036D40080030693069BC1E7064B0D489A6942F4A2
:1036E40080729A619B6903F480730793079BB5E723
:1036F4000020B3E70010024000080140000C014024
:10370400001001400014014000180140001C014059
:103714000020014008B5074900F0D2FBC0F3C430D3
:10372400012802D0022802D0FEE7002008BD1020A4
:10373400FCE700BFA06400080268094B9A420DD15F
:1037440003F5CE331A6942F000521A611A6922F065
:1037540000521A61DA6922F00052DA61704700BF40
:103764000074004010B50B4986B0044600F086FB97
:10377400019060B12046FFF7CDFF30F01003014601
:1037840005D101A8FDF732FE01A8FDF721FE06B020
:1037940010BD00BFA0640008F8B51449064600F047
:1037A4006DFBFFF7DDFD124D044655F8203073B96B
:1037B4000E49304600F062FB0746B020FFF70CFFCD
:1037C40006463946FFF76AFE55F824301E6055F860
:1037D40024301C6844B12046FFF7F8FD2046BDE8BC
:1037E400F840B021FFF7FABEF8BD00BF1466000828
:1037F40078050020FDF746BD704708B5FDF736FD96
:10380400FDF7D1FDFFF7F8FF08BD70470F4B84B0FB
:10381400DA6942F08052DA61DA6902F08052019288
:10382400019A9A6942F001029A619A6902F00102CE
:103834000292029A5A6942F040025A615B6903F0AB
:1038440040030393039B04B0704700BF0010024081
:103854000C4BD3F8FC20D2015EBFD3F8FC2042F01D
:103864008072C3F8FC200022074B5A601A6842F0A9
:1038740001021A6000BF00BF00BF5868B0FA80F0B0
:103884004009704700ED00E0001000E008B5FFF7C4
:10389400BDFFFFF7DDFFFDF7D7FCFFF7B6FF01F033
:1038A40083FDBDE808400148FDF782BD28000020E3
:1038B4000023012803F1010202D013464008F8E76F
:1038C4001421DBB24B43044A181D1044816811B122
:1038D40013441B6918477047980500200120FDF721
:1038E40053BE0220FDF750BE0420FDF74DBE082054
:1038F400FDF74ABE1020FDF747BE38B50524202544
:10390400A8B2FDF741FE013C4FEA4505F8D138BDA8
:1039140038B506244FF48065A8B2FDF735FE013CA6
:103924004FEA4505F8D138BD0721204B0622197509
:10393400082183F82810092183F83C100A2183F810
:10394400501017211A7083F86410002283F878103D
:1039540083F88C1083F8A01083F8B4102821DA605F
:103964001A625A639A64DA651A67C3F88420C3F842
:103974009820C3F8AC20C3F8C02083F8C810C3F85B
:10398400D42083F8DC10C3F8E82083F8F010C3F8DF
:10399400FC2083F80411C3F8102183F81811C3F82C
:1039A400242183F82C11C3F838217047980500208E
:1039B40038B5054CA4F5A075143C201DFFF7C6FCD2
:1039C400AC42F9D138BD00BFD8060020A04B82B06C
:1039D4009A69013842F001029A619B6903F001037C
:1039E4000193019B2B2834D8DFE810F02C0035001C
:1039F4003C00430048004F0054005B006000670037
:103A0400700075007C0085008A0091009A00A30074
:103A1400A800AF00B800BD00C40033003300330079
:103A2400C900D000D500DC00E100E800ED00F4009E
:103A3400F900FE00030108010D0112011901200122
:103A440027012D01834A536843F0E06343F00103E7
:103A5400536002B070477F4A536823F0010343F078
:103A6400E063F5E77B4A536843F0E06343F0020305
:103A7400EEE7784A536823F00203F0E7754A536887
:103A840043F0E06343F00403E2E7724A536823F02F
:103A94000403E4E76F4A536843F0E06343F0080328
:103AA400D6E76C4A536823F00803D8E7694A536899
:103AB40043F0E06343F03003CAE7664A536823F0F7
:103AC400300343F0E06343F01003C1E7614A5368F5
:103AD40023F03003C3E75F4A536843F0E06343F0E5
:103AE400C003B5E75B4A536823F0C00343F0E063C7
:103AF40043F04003ACE7574A536823F0C003AEE7F2
:103B0400544A536843F0E06343F44073A0E7514AD6
:103B1400536823F4407343F0E06343F4007397E77E
:103B24004C4A536823F4407343F0E06343F48073D6
:103B34008EE7484A536823F4407390E7454A536834
:103B440043F0E06343F4406382E7424A536823F45A
:103B5400406343F0E06343F4006379E73D4A53680C
:103B640023F440637BE73B4A536843F0E06343F448
:103B740080536DE7374A536823F480536FE7354A1F
:103B8400536843F0E06343F4004361E7314A536808
:103B940023F4004363E72F4A536843F0E06343F49C
:103BA400803355E72B4A536823F4803357E7294A77
:103BB400536843F0E06343F4003349E7254A53680C
:103BC40023F400334BE7234A536843F0E06343F4A0
:103BD40080233DE71F4A536823F480233FE71D4AAF
:103BE400536843F0E16333E71A4A536823F400232C
:103BF40035E7184A536843F0E26329E7154A5368E6
:103C040023F480132BE7134A536823F0E0631FE780
:103C1400104A536823F0E06343F0807318E70D4AB9
:103C2400536823F0E06343F0007311E7094A5368D3
:103C340023F0E06343F080630AE7064AD36943F460
:103C44008063D36105E7034AD36923F48063F8E70B
:103C5400001002400000014091FAA1F3B3FA83F38B
:103C640070B50D0E0F2691FAA1F1B1FA81F1445904
:103C74009B0006FA03F3890024EA030402FA01F123
:103C84002143415170BD91FAA1F3B3FA83F370B5A6
:103C94000D0E042691FAA1F1B1FA81F144599B0069
:103CA40006FA03F3890024EA030402FA01F121432A
:103CB400415170BD431C04D00C3151F80C3C5A1CCA
:103CC40001D100207047834201F10C01F5D101209C
:103CD40070470000431C2DE9F34106460F4600D10E
:103CE400FEE7574B00F00F02C0F3031001F0070882
:103CF40053F82240FFF79EFCB8F1010F054643D16B
:103D040094FAA4F3B3FA83F30321200E2A589B00F8
:103D140001FA03F322EA030394FAA4F2B2FA82F258
:103D24009200914001220B432B502146284608F172
:103D3400FF38FFF791FFB8F1010F06D817F008021A
:103D440018BF04222146FFF79EFF94FAA4F2230E23
:103D5400E958B2FA82F39A000F23934094FAA4F23A
:103D6400B2FA82F2C7F301170B409200012F23FA33
:103D740002F321D0022F4AD0082B30D1042221464D
:103D84002846FFF769FF2AE0C7F30620B8F1030FBE
:103D940003D8DFE808F0050F0903FEE70022C4E7B3
:103DA400FFF714FE0822C0E77F2801D0FFF70EFEBC
:103DB4000922BAE74246B8E7042B04D10822214677
:103DC4002846FFF749FFEA68230A22EA142293FAF5
:103DD400A3F30124B3FA83F39C401443EC60194B1E
:103DE4009A6942F001029A619B6903F0010301930D
:103DF400019BA6F10D03012B15D8134A536823F038
:103E0400E06343F08063536002B0BDE8F081042BAB
:103E140004D1082221462846FFF71EFFEB6823EA57
:103E24001423EB60DBE70F2E02D0133E012EEBD8F8
:103E3400054A536823F0E06343F00073E3E700BFEF
:103E4400FC6300080010024000000140431C06D13E
:103E54007047834202D18968FFF73CBF0C310B687D
:103E64005A1CF6D1FEE70B685A1C01D1002070479A
:103E7400834201D1486870470C31F4E7431C01D0F8
:103E8400FFF7F1BF002070474B6813B94FF0FF30C4
:103E94007047834201D1086870470C31F4E708B1D8
:103EA400FFF7F2BF4FF0FF30704703460868421C2B
:103EB40000D17047984201D1886870470C31F5E70A
:103EC400431C01D0FFF7F1BF704703468B420846FD
:103ED40004D01BB100290CBF184600207047000015
:103EE4000F4B1A6842F001021A6059680D4A0A40E1
:103EF4005A601A6822F0847222F480321A601A68B6
:103F040022F480221A605A6822F4FE025A604FF4A6
:103F14001F029A604FF00062034B9A60704700BF23
:103F2400001002400000FFF800ED00E00438704784
:103F34000368384A88B0934218D102F56442916903
:103F440041F400619161926902F400620092009A66
:103F5400314A934237D1314BDA6942F01002DA61C7
:103F6400DB6903F010030593059B15E0B3F1804F63
:103F740014D02B4A93421CD02A4A934231D02A4A65
:103F84009342E5D1254BDA6942F00802DA61DB6934
:103F940003F008030493049B08B070471F4AD169D7
:103FA40041F00101D161D26902F001020192019A4A
:103FB400CEE71A4AD16941F00201D161D26902F017
:103FC40002020292029A194A934214D1134BDA69FB
:103FD40042F02002DA61DB6903F020030693069BBA
:103FE400DAE70E4AD16941F00401D161D26902F0E5
:103FF40004020392039A0E4A9342CDD1074B9A6965
:1040040042F400529A619B6903F400530793079B9F
:10401400C2E700BF002C0140001000400010024025
:104024000004004000080040000C00400014004060
:10403400003401400368224A93420CD121498A6921
:1040440022F400628A61204A934221D11D4AD36935
:1040540023F010030FE0B3F1804F0ED01B4A9342BC
:1040640011D01B4A93421BD01A4A9342EBD1154AF2
:10407400D36923F00803D36170471249CA6922F057
:104084000102CA61DFE70F49CA6922F00202CA616C
:10409400114A934209D10B4AD36923F02003EAE77A
:1040A4000849CA6922F00402CA610C4A934200D04A
:1040B4007047044A936923F400539361704700BF27
:1040C400002C014000100240001000400004004099
:1040D40000080040000C004000140040003401407F
:1040E400431C21D0194B984221D010D8A3F500636A
:1040F40098421ED007D8B0F1804F1CD0A3F580633E
:1041040098421AD0FEE7124B984218D0FAE7114BA6
:10411400984216D003F50063984214D0A3F5903367
:104124009842EFD1372070476FF00D00704736206A
:1041340070471E2070471C2070471D207047322096
:104144007047192070472C20704700BF00100040B2
:10415400000C0040002C0140431C21D0194B984214
:1041640021D010D8A3F5006398421ED007D8B0F12F
:10417400804F1CD0A3F5806398421AD0FEE7124BFF
:10418400984218D0FAE7114B984216D003F5006311
:10419400984214D0A3F590339842EFD1372070475A
:1041A4006FF00D007047362070471E2070471C20AA
:1041B40070471D207047322070471B2070472E2007
:1041C400704700BF00100040000C0040002C01406C
:1041D40038B50446FFF7ACFE0068FFF781FFD4E969
:1041E4001212FDF767F82068FFF77AFFFDF794F8DD
:1041F40022681046FFF7B0FF05461046FFF770FF30
:1042040085420BD0D4E912122846FDF753F82068F2
:10421400FFF7A2FFBDE83840FDF77EB838BD0000C7
:1042240008B5074B90F8612053F82200FFF74CF8CB
:1042340000F02200A0F122035842584108BD00BFFB
:10424400D806002008B5074B90F8612053F82200E7
:10425400FFF73AF800F02100A0F121035842584139
:1042640008BD00BFD806002038B515460446B8B1CD
:10427400C16490F96000FDF75DF8B4F87230A16E86
:104284009BB294F861001944064BAAB253F820007B
:10429400FEF76EFE94F96000BDE83840FDF73CB8C7
:1042A40038BD00BFD806002048B1436D013306D1A4
:1042B40090F86120024B53F82200FEF7D5BF7047F7
:1042C400D806002048B1436D013306D190F861202F
:1042D400024B53F82200FEF7DFBF7047D8060020D8
:1042E400436C04381847836C043818471FB50368B7
:1042F4000446186810F0010013D0002200921A68D6
:1043040000925B680093009B201FFFF789FF40BB6E
:104314000122204604F15E0104B0BDE81040FEF71E
:10432400F2BF196811F0020106D001901A680192D7
:104334005B680193019BE7E71A6812F0040206D058
:1043440002911A6802925B680293029BDCE7196887
:104354000907D9D503921A6803925B680393039BF8
:10436400D2E704B010BD000008B52520FDF70AF817
:10437400024B1868BDE80840FEF76EBED806002060
:10438400262008B5FCF7FEFF034B586818B1BDE8BA
:104394000840FEF761BE08BDD8060020272008B5F6
:1043A400FCF7F0FF034B986818B1BDE80840FEF72E
:1043B40053BE08BDD806002008B53420FCF7E2FF40
:1043C400024BD868BDE80840FEF746BED806002078
:1043D40008B53520FCF7D6FF024B1869BDE8084044
:1043E400FEF73ABED80600207029F0B504460FD96E
:1043F40001F0C003C02B2BD1D42929D8154B01F0CF
:104404003F0053F82000144B53F8203001331FD0E1
:1044140000230C2604F1700506FB03F7EF5FD8B206
:10442400B9420FD00133042BF6D1012A0ED1002357
:104434000C2606FB03F2AF5ED8B2013703D1224447
:10444400A2F87010F0BD0133042BF2D11846F9E73D
:104454000420F7E7406A0008946A000870B5012256
:1044640005460E46FFF7C0FF032804461CD8702EED
:104474000AD0EB6E013307D10121304601F054F824
:104484000121304601F0BAF80C20002300FB04544B
:1044940085F8553094F8792094F87830616F281DA8
:1044A40000F0FAF9A5F8A06070BD82B070B504AC54
:1044B40084E80C00012205460E46FFF795FF032809
:1044C400044626D80C2303FB005305999DF81A20B3
:1044D4005967BDF81810702EA3F8781083F87A2065
:1044E4000AD0EB6E013307D10121304601F01CF8EC
:1044F4000121304601F082F80C2000FB0454281DF1
:1045040094F8783094F87920616F00F0C5F9A5F833
:10451400A060BDE8704002B070472DE9F04186B05C
:104524008DF80F20002204460D461F468DF81720F3
:10453400FFF75AFF0328064604D99DF8170006B072
:10454400BDE8F081B4F9A03004F104089D420CD018
:104554000C2000FB064090F8783090F87920416FE9
:10456400404600F099F9A4F8A050702D06D0E36EEF
:10457400013303D10021284601F040F80C2000FB50
:10458400064696F87A30404601934FF47A730DF15B
:10459400170200930DF10F01012300F0C3FA702DEF
:1045A400CBD0012FC9D1E36E0133C6D13946284699
:1045B40001F024F8C1E72DE9F04186B0ADF80E20F2
:1045C400002204460D461F46ADF81620FFF70CFFE7
:1045D4000328064604D9BDF8160006B0BDE8F081EC
:1045E400B4F9A03004F104089D420CD00C2000FB67
:1045F400064090F8783090F87920416F404600F0FA
:104604004BF9A4F8A0500C2303FB064393F878302D
:1046140023B1BDF80E305BBAADF80E30702D06D064
:10462400E36E013303D10021284600F0E7FF0C2399
:1046340003FB064393F87A30404601934FF47A73B0
:104644000DF1160200930DF10E01022300F06AFA37
:10465400702D08D0012F06D1E36E013303D1394602
:10466400284600F0CBFF0C2000FB064494F8783079
:10467400002BB0D0BDF816305BBAADF81630AAE7FF
:104684002DE9F34704460D46174698469DF82890B1
:10469400002B42D0002A40D00022FFF7A5FE0328B9
:1046A40006463AD8B4F9A03004F1040A9D420CD06D
:1046B4000C2101FB0041504691F8783091F87920A3
:1046C400496F00F0E9F8A4F8A050702D06D0E36E0D
:1046D400013303D10021284600F090FF0C2000FB99
:1046E400064696F87A303A4601934FF47A7339467F
:1046F400009350461FFA88F300F014FA702D0CD082
:10470400B9F1010F09D1E36E013306D149462846B8
:1047140002B0BDE8F04700F071BF02B0BDE8F08719
:104724002DE9F74FDDF830B004460D46174698469C
:104734009DF83490BBF1000F44D0002A42D0002BE6
:1047440040D00022FFF750FE032806463AD8B4F9B9
:10475400A03004F1040A9D420CD00C2101FB00415D
:10476400504691F8783091F87920496F00F094F828
:10477400A4F8A050702D06D0E36E013303D10021BC
:10478400284600F03BFF0C2000FB064696F87A30E2
:10479400424601934FF47A733946009350461FFA08
:1047A4008BF300F0BFF9702D0CD0B9F1010F09D1D2
:1047B400E36E013306D14946284603B0BDE8F04F05
:1047C40000F01CBF03B0BDE8F08F000070B50446D4
:1047D400114B124D44F8703B06460FCD0FC40FCD5C
:1047E4000FC495E80F0084E80F004FF6FF730C4ADE
:1047F400A6F8A03091690B4B304653F8211031666E
:10480400D16953F821107166526953F82230B366A6
:104814004FF0FF33F36670BD5C640008785E0008F7
:10482400406A0008946A00080148FFF7CFBF00BF40
:10483400EC06002091FAA1F3B3FA83F370B50D0EE0
:104844000F2691FAA1F1B1FA81F144599B0006FABD
:1048540003F3890024EA030402FA01F121434151DC
:1048640070BD00000346084A106863B1074A9342CA
:1048740001D1FEF7DFB9064A934201D1FEF7CAB966
:10488400044A9342FAD070473000002000300140BF
:1048940000380040003C00402DE9F04F0D4617461B
:1048A4009846044685B0002800F0D3809449006EF1
:1048B400FFF7E4FA93498146E06DFFF7DFFA924986
:1048C4008246606EFFF7DAFA90490646A06EFFF75B
:1048D400D5FA8346B9F1000F00F0BB80BAF1000F9E
:1048E40000F0B780002E00F0B48051464846FFF730
:1048F400ECFA594682463046FFF7E7FA014681460C
:104904005046FFF7E2FAA065BAF1000F00F0A1806B
:10491400B9F1000F00F09D80002800F09A80A36E8A
:1049240020605A1C14BF4FF480234FF40073A3611A
:104934004FF482736360FFF795FFB5EB500FC0F03F
:104944008B800023002617F0FD0FE3610CBF334674
:104954000123022F636134BF3346022323610723FB
:10496400B045E36214BF334680236549C4E9083681
:10497400206EA660A662E660FFF768FA6149E06D02
:10498400FFF764FA6049606EFFF760FA2369B34287
:10499400636E08BF0225C3F3031218BF0125062A5C
:1049A4008CBF30465A4903F00F0398BF51F82200D8
:1049B400584A022D52F8231091FAA1F24FEA1163DA
:1049C400C658B2FA82F34FEA83024FF00F0303FA98
:1049D40002F391FAA1F2B2FA82F203EA06034FEA71
:1049E400820223FA02F34FEA112554D0042B02D198
:1049F4000822FFF71FFFC268012322EA050295FA85
:104A0400A5F5B5FA85F503FA05F51543C5603F49E3
:104A1400A06EFFF71BFA23683F4A934244D13F4BF1
:104A24009A6942F480529A619A6902F4805201921E
:104A3400019ADA6842F48052DA60DA6822F4805229
:104A4400DA602046FEF707F92268136843F0400352
:104A5400136005B0BDE8F08FB5EB900F01D30823C8
:104A640070E7B5EBD00F01D310236BE7B5EB101F44
:104A740001D3182366E7B5EB501F01D3202361E768
:104A8400B5EB901F01D328235CE7B5EBD01F2CBFF7
:104A94003023382356E7042B02D10822FFF7CAFE3D
:104AA400C36823EA0505B1E71D4A934215D002F510
:104AB40080629342C5D1194BDA6942F40042DA614B
:104AC400DA6902F400420392039A1A6942F400423A
:104AD4001A611A6922F4004210E0104BDA6942F4B8
:104AE4008042DA61DA6902F480420292029A1A6917
:104AF40042F480421A611A6922F480421A61A0E7E2
:104B040060650008246500089C650008D8650008F5
:104B14000C000020FC63000800300140001002403B
:104B2400003800402DE9F047DDF820800C4615469A
:104B34001E469DF8249073B1B8F1000F2CD007687D
:104B4400FCF7A0FB82462644A6420BD10020BB689A
:104B54001B06FCD404E0B8F1000F0CBF01200220B6
:104B6400BDE8F087BB689907FCD514F8013B3B739B
:104B7400B9F1000F05D1BB68DA07FCD53B7B05F81A
:104B8400013BB8F1FF3FDFD0FCF77CFBA0EB0A0050
:104B94004045D9D30120DAE70120E1E7028BC08A3E
:104BA400101A70470346C28A018B914281BF016982
:104BB400885C0132DA8298BF4FF0FF307047028B75
:104BC400C38A9A4286BF0269D05C4FF0FF307047B7
:104BD400806DD0F8DC302BB10023D43020F8B23C07
:104BE400C36818477047000000224FF47A71C0F878
:104BF400CC20C0E90121C0F8DC200549054A016048
:104C0400D16DC0F88410926DC0F88820704700BF41
:104C14007C640008946A000838B5044600F128054D
:104C2400284600F081FA94F8BE304BB9284605496D
:104C340000F036FB2846BDE83840034900F029BBA4
:104C440038BD00BFD54B0008854C000801239940AE
:104C540080F82430002381764384704738B5838AF2
:104C640005468B420C4609D2202938BF202400690E
:104C7400214601F047F810B12861AC8238BDFEE747
:104C840073B5846D0546D4F8CC30866EE3B1E28A00
:104C9400238B9A4218D331462046FFF7DFFF324672
:104CA400206905F1740100F03BFF0023E382D4F88E
:104CB400CC30268301960BB901F0CCF8D4F8D0306F
:104CC40001A904F1C400984702B070BDB1F5806F2A
:104CD40070B505460C4610D8038C8B420AD22029A5
:104CE4000E4638BF2026C069314601F00BF818B1D2
:104CF400E8612E84204670BDFEE70024FAE713B570
:104D040090F8243004468DF807107BB1418C0131B2
:104D1400FFF7DCFF40B10120638C9DF80710E269C6
:104D2400D154638C0133638402B010BD01220DF1B0
:104D34000701283000F020FAB0FA80F04009F3E7C8
:104D440070B590F8243004460E46154683B1418C64
:104D54001144FFF7BBFF88B1638CE0692A4618440D
:104D6400314600F0DDFE638C2B446384284670BD1D
:104D740092B2283000F000FA0028F7D00025F5E7B9
:104D84000346C06918B100211A8C00F0D7BE7047E1
:104D940038B50446D1B94FF42A03A36594F8BE305C
:104DA400012B16D1638CE269A17E04F1280000F086
:104DB4001DFA042828BF042045B22046FFF7E0FF6F
:104DC4000023638484F82430E8B238BD4FF02A43CA
:104DD400E3E70425F8E70121FFF7DABF002110B566
:104DE4000446C1820183006910B1A28A00F0A6FEC4
:104DF400002320466384FFF7C3FF10BD2DE9F84369
:104E04000446D0F8840000F04FFB002100F08CFB36
:104E1400D4F88420C2F30313062B49D8284D294E15
:104E240055F8233002F00F029B6856F82220DB432A
:104E340003EA12239BB2002B40D0D4F8880000F080
:104E440033FB012100F070FB1F4B204A1B68142721
:104E5400B3FBF2F30A225343D4F88800DFF870E07E
:104E6400C0F3031100F00F0C062924D856F82C20A7
:104E740055F82180C2F30F22C8F81420DEF80490FC
:104E8400DEF80440A4EB0904A342F9DCC8F81020BE
:104E9400DEF80440DEF80420121B9342FADC013FE2
:104EA400E2D100F001FB3946BDE8F84300F03CBB19
:104EB40000239B68FFDE00235B61FBE7BDE8F8830A
:104EC4000C000020FC6300083000002040420F006A
:104ED400001000E02DE9F04100251F46D0F8DC3039
:104EE40004460E469046C0E90455C0E907550583BB
:104EF4008576C0F8800033B100F1D401032208465E
:104F04009847C4E93755002384F82430730084F8A3
:104F14002530731E5E425E41204684F8BE6084F8EC
:104F2400BF8084F8C07004F12805FFF767FF94F888
:104F340025304FF480422846084900F033F894F8AD
:104F4400BE304BB92846064900F0AAF92846BDE808
:104F5400F041044900F09DB9BDE8F081A08601004C
:104F6400D54B0008854C00080A4600230121FFF7B1
:104F7400B1BF00000148FFF737BE00BF9007002013
:104F840010B5064C064B204640F8D43BFEF7DEF93C
:104F940004F1C400FEF7DAF910BD00BF9007002049
:104FA4007C6400082DE9F7430D4616461F46044667
:104FB400002800F0A5805449C06DFEF75FFF5349F7
:104FC4008046206EFEF75AFF0146B8F1000F00F04C
:104FD4009780002800F094804046FEF776FF20601A
:104FE400002800F08D804A4B04F10408984265D1F2
:104FF40003F5DE33DA6942F40012DA61DA6902F4A5
:1050040000120092009A1A6942F400121A611A6995
:1050140022F400121A6142F21F03A4F864303D4BDB
:10502400C3F800803949206EFEF710FFE06D364961
:10503400FEF70CFF384823688542636006D9374879
:10504400854203D93648854288BF00204FF00009C5
:1050540094F8973030494A468D428CBF4FF48045CE
:105064004D464B450CBF4B464023236294F8983081
:1050740002214B450CBF4B468023A060636294F928
:105084006400C4E90357C4E90569C4F81C9084F8B2
:105094004190FCF70FF994F96400FCF73DF94A4696
:1050A400022194F96500FCF705F994F96500FCF711
:1050B40033F94046FCF7A8FAF0B1FEE7194B9842E1
:1050C400B0D103F5DC33DA6942F48002DA61DA69DB
:1050D40002F480020192019A1A6942F480021A6170
:1050E4001A6922F480021A6142F22123A4F864307E
:1050F400084BC3F8048095E70223A06684F8953032
:1051040003B0BDE8F08300BFF4640008C464000881
:105114000054004074080020A0860100801A060094
:1051240040420F0000580040104B10B5994204460D
:1051340006D90F4B994203D90E4B994288BF0023DD
:105144006068026822F001020260A360074B201D20
:1051540099428CBF4FF480410021E160FCF754FA7E
:105164006268136843F00103136010BDA086010058
:10517400801A060040420F00202A30B514D80023BC
:105184009CB2A24207D890F894301A44D2B280F864
:105194009420002030BD90F89440CD5C1C4404441D
:1051A40084F874500133EBE70120F3E710B564236E
:1051B40004460430FCF7D0FA02280AD0032801D0B0
:1051C40068B910BD94F84130202B0CBF0220052093
:1051D400F7E794F84130202B18BF0620F1E794F844
:1051E4004130202B0CBF02200420EAE72DE9F74FC1
:1051F40005468B4691461F46FCF744F880463FB966
:1052040001225946284603B0BDE8F04FFFF7CEBF50
:105214000026D5F830A01FFA8BFB04353B464A46DE
:1052240059462846CDF800A0FCF748FB022804465E
:1052340007D1FCF727F8A0EB0806642EEED9062464
:105244001BE010B3042418E0FCF71CF8C61B284626
:10525400FDF76BFA30B92846FDF764FA202801D02F
:10526400632EF1D92846FDF760FA632E09D8820629
:1052740007D4430707D40028E4D1204603B0BDE88F
:10528400F08F0524F9E70324F7E7FBF7FBFF074654
:10529400E1E720B119B1C1660430FCF7EFBB7047F8
:1052A40020B119B101670430FCF7E8BB704770B551
:1052B40090F891300446012B0D46A0F1040609D163
:1052C400436E3BB1836E30469847022384F8913095
:1052D400002363668DB9E36E84F891501BB13046A8
:1052E40084F890509847204694F8902004F1700177
:1052F4002023BDE87040FCF74BBB0023012263660A
:1053040084F89120616E2046743131440423BDE851
:105314007040FCF778BB10B590F891300446012B2F
:1053240004D1436E13B1836E04389847022384F882
:105334009130002320466366BDE81040FCF79EBB15
:10534400436E1F2BDEBF436E0133436690F89130EA
:10535400012BDAB205D1416E042301447031FCF70C
:1053640052BB7047002380F89030704790F8923019
:105374000BB9FCF783BB7047014B1868FCF7F8BC0A
:1053840074080020014B1868FDF72EB9740800203A
:10539400014B5868FCF7ECBC74080020014B5868BA
:1053A400FDF722B97408002010B590B02022002126
:1053B40007A800F0C3FB1422002101A800F0BEFBE3
:1053C400102301220224CDE90A234FF4601306A816
:1053D40006940D940F93FDF7ABF900B1FEE70F238C
:1053E400CDE901344FF480630390CDE904302146C4
:1053F40001A8FDF773FB00B1FEE710B010BD10B5B6
:10540400044600F075F9E060236820465B6998471C
:10541400002808DA00F06CF9E368C01AA36898421F
:10542400F2D34FF0FF3010BD2DE9F04107460C4692
:105434000D468E18B542A5EB040807D03846FFF791
:10544400DEFF031E02DB05F8013BF3E74046BDE83F
:10545400F0812DE9F0410746884616461D4673B192
:1054640000243846FFF7CBFF031E05DB434503D07A
:1054740033550134A542F4D12046BDE8F0811C46E1
:10548400FAE7704708B50320FBF702FFBDE80840C0
:1054940000F04CB908B5AFF30080FAF707FFFAF74C
:1054A4001BFF00F035F9FAE7C0F30312062A03469E
:1054B40010B50ED80020084AD9B252F8044B8C42D9
:1054C40003D103F4E063184310BD01307028F4D114
:1054D400FAE77020F8E700BF946A00080C480D4909
:1054E4000D4A002302E0D458C4500433C4188C423B
:1054F400F9D30A4A0A4C002301E013600432A242A1
:10550400FBD3FEF7EDFC00F0D7FAFFF7C3FF7047BB
:105514000000002098000020086D0008980000207A
:10552400BC090020FEE70000C3B26F2B2DE9F04157
:105534000D462AD82C4A00F4E06052F82340044374
:10554400621C4ED0294EC4F3031756F8273004F0DA
:105554000F0823FA08F3DB0710D520462449FEF789
:10556400A9FB18B32046FEF7FDF8012303FA08F25D
:1055740056F8273023EA020346F82730052D1FD8B2
:10558400DFE805F01F2B2527292D00F0C002C02AD3
:1055940027D1D42B25D8174B00F03F0253F82220F3
:1055A400114B00F4E06053F82240C8E7204612494A
:1055B400FEF780FB0028D8D02046FEF7EDF8D4E7AC
:1055C400FEE700212046BDE8F041FEF783BB102131
:1055D400F8E72021F6E70321F4E70121F2E70921A6
:1055E400F0E7BDE8F08100BF946A00087C08002061
:1055F400A0640008406A000814660008C3B26F2B58
:1056040019D8184A00F4E06052F823301843C0F364
:105614000313062B98BF144A00F00F0098BF52F8EA
:105624002320124B88BF002253F82030C3F30F23EA
:10563400A9B11361704700F0C002C02A0CD1D42B69
:105644000AD80B4B00F03F0253F82220054B00F41C
:10565400E06053F82230D9E74FF0FF30D7E75361C9
:10566400704700BF946A00080C000020FC63000827
:10567400406A0008C3B26F2B0CD8194A00F4E060EA
:1056840052F823301843C0F30313062B16D9002312
:105694009B68FFDE00F0C002C02A0CD1D42B0AD8CC
:1056A400104B00F03F0253F822200D4B00F4E06051
:1056B40053F82230E6E74FF0FF30E4E70A4A00F0FF
:1056C4000F0052F82330094A9B6852F82020D8432F
:1056D40000EA122080B2B0FA80F04009704700BF9F
:1056E400946A0008406A00080C000020FC6300086B
:1056F400FEF780B838B5044648B1FEF77BF8054696
:10570400FFF7BFFEFEF776F8431BA342F8D338BD7C
:1057140008B5044B2BB1044800F00AF808B1AFF304
:10572400008008BD0000000098080020FEF7AEB815
:10573400B0F80431B0F80001181A00F03F007047C7
:10574400B0F80431B0F800219BB293421ABFD0F8EC
:10575400F830985C4FF0FF30704790F80231B0F8A1
:105764000601C0B2834227BFC3F13F03C018C01A69
:1057740000F1FF30704707B503688DF80710012268
:105784005B680DF10701984703B05DF804FB000066
:10579400B0F8722038B5436F134403F03F03A0F808
:1057A4007230B0F87220B0F86E3092B293421BD0CF
:1057B400B0F87220B0F8724095B203F14002521B67
:1057C400534203F03F03A4B202F03F0258BF5A42CF
:1057D400C4F140039A4228BF1A4604494267FEF7BF
:1057E40043FD4FF0FF3038BD0020FCE7955700081B
:1057F40003682DE9F0479B68044688461646984797
:1058040001232374D4F8E830B4F8029101338246BA
:10581400C9F1400904F1940708D194F80C312BB173
:105824000023384684F80C31FEF73EFD23682046F9
:105834009B6898470028F9D035464D4501D8554511
:1058440015D9D14528BFD14623684A4641465B68ED
:1058540020469847236820469B689847B4F802215D
:10586400A5EB0905C8448246C2F14009E5E7B4F84E
:105874000221D4F8FC005319402B104419D82A46AD
:10588400414600F04DF9A946B4F8023138461D44AA
:1058940005F03F05A4F80251FEF7D4FC30B94A469E
:1058A40038460B49C4F80891FEF7DEFC3046BDE8E3
:1058B400F087C2F140094A46414600F031F9D4F874
:1058C400FC00A5EB090208EB090100F029F9DBE76C
:1058D40095570008037C33B1B0F80221B0F80631C3
:1058E4009BB29A42FAD17047C0F8EC30009B9142C7
:1058F40008BF4FF0FF31C0F8F03000F11103C0F8D9
:10590400F8300023C0E9392100F15102A0F8043134
:10591400C0E93F23A0F8063170470000CBB26F2BDB
:1059240008D80E4A01F4E06152F823301943C0F854
:10593400E810704701F0C002C02A0CD1D42B0AD859
:10594400074B01F03F0253F82220044B01F4E061BD
:1059540053F82230EAE74FF0FF31E8E7946A000891
:10596400406A0008CBB26F2B08D80E4A01F4E061FC
:1059740052F823301943C0F8E410704701F0C00214
:10598400C02A0CD1D42B0AD8074B01F03F0253F89C
:105994002220044B01F4E06153F82230EAE74FF08F
:1059A400FF31E8E7946A0008406A000873B54FF4D1
:1059B4007A7316460022C0E901231D4B0446036096
:1059C4004FF0FF33C0F8E8301A4B0D46984215D11A
:1059D400C321FFF7A3FFC221FFF7C4FF4FF0FF333A
:1059E400012E08BFC4F8E8302046D4E939210093D9
:1059F4004FF0FF33FFF778FF02B070BD0E4B0F4935
:105A04009A680F4B53F82200FEF738FA854202D108
:105A1400C3212046DDE70B492846FEF740FA074933
:105A2400C4F8E8002846FEF73AFAC4F8E400D5E7DB
:105A34005C6C000898080020406A0008C8690008E7
:105A4400946A000850690008D0F8E83010B50133B2
:105A540004460ED10368DB68984794F80C3143B9C7
:105A6400012304F1940084F80C31BDE81040FEF7E2
:105A740029BC10BD10B50446FFF7E6FFB4F80421B5
:105A8400B4F8003192B29A4217BFD4F8F8204FF01C
:105A9400FF30D05C01331CBF03F03F03A4F8003196
:105AA40010BD0000002202490248FFF77FBF00BF7B
:105AB400004400409808002070B500260C4D0D4CA1
:105AC400641BA410A64209D100F0C8F900260A4DAF
