:020000040800F2
:1000000000C000207D520008C5520008C5520008FB
:10001000C5520008C5520008C55200080000000083
:10002000000000000000000000000000C5520008B1
:10003000C552000800000000C5520008A73D000896
:10004000C5520008C5520008C5520008C552000834
:10005000C5520008C5520008893E00088F3E0008BE
:10006000953E00089B3E0008A13E0008C5520008CE
:10007000C5520008C5520008C5520008C552000804
:10008000C5520008C5520008C55200080000000013
:10009000000000000000000000000000A73E000873
:1000A0000000000000000000000000000000000050
:1000B000A53A0008B93A0008CD3A0008911700089F
:1000C0009D170008A9170008B5170008C5520008B9
:1000D000C5520008394A0008514A00086D4A000814
:1000E000BD3E0008C55200080000000000000000EE
:1000F0000000000000000000000000000000000000
:10010000C552000800000000E13A0008C55200088E
:10011000894A0008A14A0008F53A0008093B00088E
:10012000C5520008C5520008C5520008C552000853
:1001300000000000000000000000000000000000BF
:1001400000000000000000000000000000000000AF
:10015000000000000000000000000000000000009F
:10016000000000000000000000000000000000008F
:10017000000000000000000000000000000000007F
:10018000000000000000000000000000000000006F
:10019000000000000000000000000000000000005F
:1001A000000000000000000000000000000000004F
:1001B000000000000000000000000000000000003F
:1001C000000000000000000000000000000000002F
:1001D000000000000000000000000000000000001F
:0401E0005FF8E0F1F3
:1001E800034613F8012B002AFBD1181A013870476F
:1001F80081F0004102E000BF83F0004330B54FEAD0
:1002080041044FEA430594EA050F08BF90EA020F3C
:100218001FBF54EA000C55EA020C7FEA645C7FEACF
:10022800655C00F0E2804FEA5454D4EB5555B8BFF2
:100238006D420CDD2C4480EA020281EA030382EA63
:10024800000083EA010180EA020281EA0303362DF5
:1002580088BF30BD11F0004F4FEA01314FF4801CC8
:100268004CEA113102D0404261EB410113F0004FDA
:100278004FEA03334CEA133302D0524263EB430391
:1002880094EA050F00F0A780A4F10104D5F1200E2F
:100298000DDB02FA0EFC22FA05F2801841F100018A
:1002A80003FA0EF2801843FA05F359410EE0A5F15E
:1002B80020050EF1200E012A03FA0EFC28BF4CF08F
:1002C800020C43FA05F3C01851EBE37101F0004545
:1002D80007D54FF0000EDCF1000C7EEB00006EEB52
:1002E8000101B1F5801F1BD3B1F5001F0CD34908DC
:1002F8005FEA30004FEA3C0C04F101044FEA445233
:1003080012F5800F80F09A80BCF1004F08BF5FEAB9
:10031800500C50F1000041EB045141EA050130BD99
:100328005FEA4C0C404141EB0101013C28BFB1F5AB
:10033800801FE9D291F0000F04BF01460020B1FAF6
:1003480081F308BF2033A3F10B03B3F120020CDAC9
:100358000C3208DD02F1140CC2F10C0201FA0CF0A7
:1003680021FA02F10CE002F11402D8BFC2F1200C0C
:1003780001FA02F120FA0CFCDCBF41EA0C019040C2
:10038800E41AA2BF01EB0451294330BD6FEA04040B
:100398001F3C1CDA0C340EDC04F11404C4F12002F6
:1003A80020FA04F001FA02F340EA030021FA04F308
:1003B80045EA030130BDC4F10C04C4F1200220FA5F
:1003C80002F001FA04F340EA0300294630BD21FA9D
:1003D80004F0294630BD94F0000F83F4801306BF63
:1003E80081F480110134013D4EE77FEA645C18BF57
:1003F8007FEA655C29D094EA050F08BF90EA020FEE
:1004080005D054EA000C04BF1946104630BD91EAE5
:10041800030F1EBF0021002030BD5FEA545C05D1E8
:100428004000494128BF41F0004130BD14F5800427
:100438003CBF01F5801130BD01F0004545F0FE419B
:1004480041F470014FF0000030BD7FEA645C1ABFD0
:10045800194610467FEA655C1CBF0B46024650EA07
:10046800013406BF52EA033591EA030F41F4002133
:1004780030BD00BF90F0000F04BF0021704730B5B9
:100488004FF4806404F132044FF000054FF000018E
:1004980050E700BF90F0000F04BF0021704730B54F
:1004A8004FF4806404F1320410F0004548BF404224
:1004B8004FF000013EE700BF42004FEAE2014FEA79
:1004C80031014FEA02701FBF12F07F4393F07F4F54
:1004D80081F06051704732F07F4208BF704793F057
:1004E8007F4F04BF41F40021704730B54FF460746A
:1004F80001F0004521F000411CE700BF50EA01026D
:1005080008BF704730B54FF000050AE050EA010215
:1005180008BF704730B511F0004502D5404261EB85
:1005280041014FF4806404F132045FEA915C3FF4C6
:10053800D8AE4FF003025FEADC0C18BF03325FEA63
:10054800DC0C18BF033202EBDC02C2F1200300FA14
:1005580003FC20FA02F001FA03FE40EA0E0021FA39
:1005680002F11444BDE600BF70B54FF0FF0C4CF427
:10057800E06C1CEA11541DBF1CEA135594EA0C0FD9
:1005880095EA0C0F00F0DEF82C4481EA030621EA14
:100598004C5123EA4C5350EA013518BF52EA03354F
:1005A80041F4801143F4801338D0A0FB02CE4FF001
:1005B8000005E1FB02E506F00042E0FB03E54FF031
:1005C8000006E1FB03569CF0000F18BF4EF0010E29
:1005D800A4F1FF04B6F5007F64F5407404D25FEA25
:1005E8004E0E6D4146EB060642EAC62141EA5551D8
:1005F8004FEAC52040EA5E504FEACE2EB4F1FD0C1A
:1006080088BFBCF5E06F1ED8BEF1004F08BF5FEA97
:10061800500E50F1000041EB045170BD06F0004649
:1006280046EA010140EA020081EA0301B4EB5C04F6
:10063800C2BFD4EB0C0541EA045170BD41F48011EE
:100648004FF0000E013C00F3AB8014F1360FDEBF13
:10065800002001F0004170BDC4F10004203C35DAEF
:100668000C341BDC04F11404C4F1200500FA05F372
:1006780020FA04F001FA05F240EA020001F0004213
:1006880021F0004110EBD37021FA04F642EB060189
:100698005EEA430E08BF20EAD37070BDC4F10C04B3
:1006A800C4F1200500FA04F320FA05F001FA04F277
:1006B80040EA020001F0004110EBD37041F1000163
:1006C8005EEA430E08BF20EAD37070BDC4F120056E
:1006D80000FA05F24EEA020E20FA04F301FA05F2D6
:1006E80043EA020321FA04F001F0004121FA04F27E
:1006F80020EA020000EBD3705EEA430E08BF20EA4E
:10070800D37070BD94F0000F0FD101F00046400087
:1007180041EB010111F4801F08BF013CF7D041EA09
:10072800060195F0000F18BF704703F0004652000D
:1007380043EB030313F4801F08BF013DF7D043EADE
:100748000603704794EA0C0F0CEA135518BF95EA94
:100758000C0F0CD050EA410618BF52EA4306D1D11B
:1007680081EA030101F000414FF0000070BD50EA3A
:10077800410606BF1046194652EA430619D094EAC4
:100788000C0F02D150EA013613D195EA0C0F05D1AE
:1007980052EA03361CBF104619460AD181EA030102
:1007A80001F0004141F0FE4141F470014FF00000BA
:1007B80070BD41F0FE4141F4780170BD70B54FF055
:1007C800FF0C4CF4E06C1CEA11541DBF1CEA1355D5
:1007D80094EA0C0F95EA0C0F00F0A7F8A4EB0504B7
:1007E80081EA030E52EA03354FEA013100F08880AE
:1007F8004FEA03334FF0805545EA131343EA126377
:100808004FEA022245EA111545EA10654FEA00262B
:100818000EF000419D4208BF964244F1FD0404F5E4
:10082800407402D25B084FEA3202B61A65EB030540
:100838005B084FEA32024FF480104FF4002CB6EBFD
:10084800020E75EB030E22BFB61A754640EA0C007D
:100858005B084FEA3202B6EB020E75EB030E22BFBD
:10086800B61A754640EA5C005B084FEA3202B6EBFE
:10087800020E75EB030E22BFB61A754640EA9C00BD
:100888005B084FEA3202B6EB020E75EB030E22BF8D
:10089800B61A754640EADC0055EA060E18D04FEA4B
:1008A800051545EA16754FEA06164FEAC30343EAEB
:1008B80052734FEAC2025FEA1C1CC0D111F4801FB8
:1008C8000BD141EA00014FF000004FF0004CB6E7B1
:1008D80011F4801F04BF01430020B4F1FD0C88BF50
:1008E800BCF5E06F3FF6AFAEB5EB030C04BFB6EB5B
:1008F800020C5FEA500C50F1000041EB045170BD4E
:100908000EF0004E4EEA113114EB5C04C2BFD4EB7A
:100918000C0541EA045170BD41F480114FF0000EFE
:10092800013C90E645EA060E8DE60CEA135594EA7A
:100938000C0F08BF95EA0C0F3FF43BAF94EA0C0F7D
:100948000AD150EA01347FF434AF95EA0C0F7FF4F2
:1009580025AF104619462CE795EA0C0F06D152EA46
:1009680003353FF4FDAE1046194622E750EA41062A
:1009780018BF52EA43067FF4C5AE50EA41047FF43B
:100988000DAF52EA43057FF4EBAE12E74FF0FF3CA0
:1009980006E000BF4FF0010C02E000BF4FF0010C71
:1009A8004DF804CD4FEA410C7FEA6C5C4FEA430CEA
:1009B80018BF7FEA6C5C1BD001B050EA410C0CBF39
:1009C80052EA430C91EA030F02BF90EA020F00209B
:1009D800704710F1000F91EA030F58BF994208BF02
:1009E80090422CBFD8176FEAE37040F001007047BF
:1009F8004FEA410C7FEA6C5C02D150EA013C07D116
:100A08004FEA430C7FEA6C5CD6D152EA033CD3D060
:100A18005DF8040B704700BF8446104662468C465A
:100A28001946634600E000BF01B5FFF7B7FF00288D
:100A380048BF10F1000F01BD4DF808EDFFF7F4FFB6
:100A48000CBF012000205DF808FB00BF4DF808ED41
:100A5800FFF7EAFF34BF012000205DF808FB00BF64
:100A68004DF808EDFFF7E0FF94BF012000205DF886
:100A780008FB00BF4DF808EDFFF7CEFF94BF01203B
:100A880000205DF808FB00BF4DF808EDFFF7C4FF34
:100A980034BF012000205DF808FB00BF4FEA410C7D
:100AA8007FEA6C5C02D150EA013C0AD14FEA430C60
:100AB8007FEA6C5C02D152EA033C02D14FF000009D
:100AC80070474FF0010070474A0011D212F500122A
:100AD80011D20DD56FF47873B3EB62520ED44FEA8E
:100AE800C12343F0004343EA505323FA02F070470E
:100AF8004FF00000704750EA013002D14FF0FF304C
:100B080070474FF00000704710B5054C237833B993
:100B1800044B13B10448AFF300800123237010BDC8
:100B280098000020000000007C58000808B5034B1E
:100B38001BB103490348AFF3008008BD0000000063
:100B48009C0000207C58000810B5074C06224FF482
:100B58001651064804F0BCF9204600F0E9F9204691
:100B6800BDE8104000F030B9D00000203C03002060
:100B780073B51B4DC321284600F0D6F80022012684
:100B8800184C1146204600F0A9F91749204604F0F0
:100B980026FAD5E902232046009604F0F7FADF2169
:100BA800204604F020FA2046104904F018FA32468C
:100BB8002046002100F092F90D49204604F00FFA72
:100BC800D5E900232046009604F0E0FA20460949BA
:100BD80004F005FAC82002B0BDE8704004F058BC23
:100BE800B8000020D0000020A4580008A958000828
:100BF800AB580008B0580008002307B5102200932E
:100C080027210223024800F0BBF803B05DF804FB7B
:100C1800D00000202DE9F74F0C4600250121056181
:100C280005758046204604F04BFB2946204604F013
:100C3800B1FBDFF8E890142004F02AFC01212046DB
:100C480004F0A8FB364AD9F800303649B3FBF2F372
:100C58002822534348684A68121A9342FBDC002151
:100C6800204604F02DFB4FF4C863D9F80050B5FBBB
:100C7800F3F5204604F0CAFB30B9013DF9D16FF015
:100C8800010003B0BDE8F08F4FF4C863D9F80050F5
:100C9800B5FBF3F5204604F0B9FB012802D1013D6C
:100CA800F8D1ECE72825002780264FF4C86BD9F83F
:100CB8000030B3FBFBFA204604F0A8FB18B9BAF1E0
:100CC800010AF8D1DBE704F0E1FBD9F800308246ED
:100CD800B3FBFBF32046019304F098FB012803D1F2
:100CE800019B013BF6D1CAE704F0D0FBA0EB0A0A4E
:100CF800BAF1280F84BF08EB0702137C05F1FF3512
:100D080084BF33431374760802BF01378026FFB2CD
:100D180015F0FF05CBD12846B3E700BF2C00002013
:100D280040420F00001000E070B50446FFF772FF64
:100D380038B10FA3D3E90023C4E90023C4E902238F
:100D480070BD257C2846FFF795FBA67CC4E9000109
:100D58003046FFF78FFB3544C4E90201207DEDB230
:100D6800401B18BF4FF0FF30EAE700BFAFF3008029
:100D78000000000000388FC0002070477047000056
:100D880030B5437300259DF80C3045608373082304
:100D9800024D017205600273C37330BDBC58000870
:100DA80070B504460E46074D017A284600F07EF9D4
:100DB800E17B2846314300F0D2F92846BDE870406F
:100DC80000F039BAE000002008230021C373FFF7C0
:100DD800E7BF0000F8B5114F0C4641F00401064684
:100DE800FFF7DEFF3B680E4A0E4DB3FBF2F269686F
:100DF8006B685B1A9A42FBDC304604F0FB01FFF794
:100E0800CFFF074A3B686968B3FBF2F332225343CA
:100E180004484268521A9342FBDCF8BD2C000020BB
:100E280040420F00001000E038B504460D46FFF7B9
:100E3800B7FF29462046BDE83840FFF7CBBF70B55D
:100E48000D461446064621F00F011143FFF7ECFF4B
:100E580044EA05113046BDE87040C9B2FFF7E4BF67
:100E680008B50122FFF7EBFF012008BD0022FFF7BC
:100E7800E6BF0000012108B5FFF7F8FF074B084A55
:100E88001B680849B3FBF2F34FF4FA62534348680E
:100E98004A68121A9342FBDC08BD00BF2C000020F0
:100EA80040420F00001000E0022108B5FFF7DEFF06
:100EB800074B084A1B680849B3FBF2F34FF4FA6280
:100EC800534348684A68121A9342FBDC08BD00BFC6
:100ED8002C00002040420F00001000E07FB50646BD
:100EE80015460C460C4B0DF1100C0FCB0CE90F00FE
:100EF800727B04ABAA423CBF02F1FF32D5B203EBCE
:100F0800850555F8101C3046214461F07F01C9B2AF
:100F1800FFF7ACFF04B070BD9458000808B5817A9B
:100F280041F00402827241F00C01FFF79FFF08BDF7
:100F380070B500210446364800F046FA0023637273
:100F4800637B012B84BF08226272A27B2AB1012B2A
:100F580002BF637A43F004036372322004F098FA04
:100F6800E17B2046FFF71CFF2A4D4FF47A7004F00E
:100F78008FFA30212046FFF757FF274A2B68274E64
:100F8800B3FBF2F341F29412534371687268521A38
:100F98009342FBDC30212046FFF746FF1E4A2B68B0
:100FA8007168B3FBF2F341F2941253431B4E72681B
:100FB800521A9342FBDC30212046FFF735FF164AD0
:100FC8002B687168B3FBF2F39622534313484268C7
:100FD800521A9342FBDC20462021FFF725FF617A55
:100FE800204641F02001FFF741FF04232046A37269
:100FF800FFF794FF2046FFF73DFF02232046E372E8
:101008000621FFF733FF2046BDE87040FFF74CBFCD
:10101800E00000202C00002040420F00001000E0FB
:10102800028BC08A101A70470346C28A018B91420C
:1010380081BF0169885C0132DA8298BF4FF0FF30C6
:101048007047028BC38A9A4286BF0269D05C4FF010
:10105800FF307047806DD0F8DC302BB10023D430DE
:1010680020F8B23CC36818477047836810B5044637
:1010780013B1032201469847204610BD00224FF4C1
:101088007A71C0F8CC20C0E90121C0F8DC200549FC
:10109800054A0160D16DC0F88410926DC0F88820AF
:1010A800704700BFD4580008AC5D00080123994080
:1010B80080F82430002381764384704738B5838ACA
:1010C80005468B420C4609D2202938BF20240069E6
:1010D800214604F023FB10B12861AC8238BDFEE73D
:1010E80073B5846D0546D4F8CC30866EE3B1E28AD8
:1010F800238B9A4218D331462046FFF7DFFF32464A
:10110800206905F1740104F017FA0023E382D4F88A
:10111800CC30268301960BB904F0A8FBD4F8D03064
:1011280001A904F1C400984702B070BDB1F5806F01
:1011380070B505460C4610D8038C8B420AD220297C
:101148000E4638BF2026C069314604F0E7FA18B1C8
:10115800E8612E84204670BDFEE70024FAE713B547
:1011680090F8243004468DF807107BB1418C01318A
:10117800FFF7DCFF40B10120638C9DF80710E2699E
:10118800D154638C0133638402B010BD01220DF188
:101198000701283000F0F8F9B0FA80F04009F3E7C9
:1011A80070B590F8243004460E46154683B1418C3C
:1011B8001144FFF7BBFF88B1638CE0692A461844E5
:1011C800314604F0B9F9638C2B446384284670BD1A
:1011D80092B2283000F0D8F90028F7D00025F5E7BA
:1011E8000346C06918B100211A8C04F0B3B97047DE
:1011F80038B50446D1B94FF42A03A36594F8BE3034
:10120800012B16D1638CE269A17E04F1280000F05D
:10121800F5F9042828BF042045B22046FFF7E0FF6F
:101228000023638484F82430E8B238BD4FF02A43A1
:10123800E3E70425F8E70121FFF7DABF002110B53D
:101248000446C1820183006910B1A28A04F082F9C0
:10125800002320466384FFF7C3FF10BD2DE9F84340
:101268000446D0F8840003F0EBFF002104F028F8CE
:10127800D4F88420C2F30313062B49D8284D294EED
:1012880055F8233002F00F029B6856F82220DB4302
:1012980003EA12239BB2002B40D0D4F8880003F055
:1012A800CFFF012104F00CF81F4B204A1B681427BC
:1012B800B3FBF2F30A225343D4F88800DFF870E056
:1012C800C0F3031100F00F0C062924D856F82C207F
:1012D80055F82180C2F30F22C8F81420DEF80490D4
:1012E800DEF80440A4EB0904A342F9DCC8F8102096
:1012F800DEF80440DEF80420121B9342FADC013FBA
:10130800E2D103F09DFF3946BDE8F84303F0D8BFAA
:1013180000239B68FFDE00235B61FBE7BDE8F883E1
:10132800080000200C5900082C00002040420F0043
:10133800001000E02DE9F04100251F46D0F8DC3010
:1013480004460E469046C0E90455C0E90755058392
:101358008576C0F8800033B100F1D4010322084635
:101368009847C4E93755002384F82430730084F87B
:101378002530731E5E425E41204684F8BE6084F8C4
:10138800BF8084F8C07004F12805FFF767FF94F860
:1013980025304FF480422846084900F033F894F885
:1013A800BE304BB92846064900F082F92846BDE808
:1013B800F041044900F075B9BDE8F081A08601004C
:1013C8005D100008E91000080A4600230121FFF714
:1013D800B1BF00000148FFF751BE00BFE000002088
:1013E80010B5064C064B204640F8D43BFFF73DFEAF
:1013F80004F1C400FFF739FE10BD00BFE000002073
:10140800D45800082DE9F7430D4616461F460446F2
:10141800002800F0A5805449C06D02F0D1FF53495F
:101428008046206E02F0CCFF0146B8F1000F00F0B4
:101438009780002800F09480404602F0E8FF206082
:10144800002800F08D804A4B04F10408984265D1C9
:1014580003F5DE33DA6942F40012DA61DA6902F47C
:1014680000120092009A1A6942F400121A611A696D
:1014780022F400121A6142F21F03A4F864303D4BB3
:10148800C3F800803949206E02F082FFE06D3649CA
:1014980002F07EFF384823688542636006D93748E2
:1014A800854203D93648854288BF00204FF000099D
:1014B80094F8973030494A468D428CBF4FF48045A6
:1014C8004D464B450CBF4B464023236294F8983059
:1014D80002214B450CBF4B468023A060636294F900
:1014E8006400C4E90357C4E90569C4F81C9084F88A
:1014F800419000F0BDF994F9640000F0EBF94A4618
:10150800022194F9650000F0B3F994F9650000F040
:10151800E1F9404600F056FBF0B1FEE7194B98425E
:10152800B0D103F5DC33DA6942F48002DA61DA69B2
:1015380002F480020192019A1A6942F480021A6147
:101548001A6922F480021A6142F22123A4F8643055
:10155800084BC3F8048095E70223A06684F8953009
:1015680003B0BDE8F08300BFB859000888590008E7
:1015780000540040C4010020A0860100801A060023
:1015880040420F0000580040202A30B514D80023EC
:101598009CB2A24207D890F894301A44D2B280F88C
:1015A8009420002030BD90F89440CD5C1C44044445
:1015B80084F874500133EBE70120F3E710B5642396
:1015C8000446043000F0A6FB02280AD0032801D004
:1015D80068B910BD94F84130202B0CBF02200520BB
:1015E800F7E794F84130202B18BF0620F1E794F86C
:1015F8004130202B0CBF02200420EAE72DE9F74FE9
:1016080005468B4691461F4600F01AF980463FB9B9
:1016180001225946284603B0BDE8F04FFFF7CEBF78
:101628000026D5F830A01FFA8BFB04353B464A4606
:1016380059462846CDF800A000F01EFC02280446B2
:1016480007D100F0FDF8A0EB0806642EEED90624B9
:101658001BE010B3042418E000F0F2F8C61B28467B
:1016680001F041FB30B9284601F03AFB202801D0AF
:10167800632EF1D9284601F036FB632E09D882067D
:1016880007D4430707D40028E4D1204603B0BDE8B7
:10169800F08F0524F9E70324F7E700F0D1F80746AF
:1016A800E1E720B119B1C166043000F0C5BC70474C
:1016B80020B119B10167043000F0BEBC704770B5A5
:1016C80090F891300446012B0D46A0F1040609D18B
:1016D800436E3BB1836E30469847022384F89130BD
:1016E800002363668DB9E36E84F891501BB13046D0
:1016F80084F890509847204694F8902004F170019F
:101708002023BDE8704000F021BC0023012263665D
:1017180084F89120616E2046743131440423BDE879
:10172800704000F04EBC10B590F891300446012B83
:1017380004D1436E13B1836E04389847022384F8AA
:101748009130002320466366BDE8104000F074BC69
:10175800436E1F2BDEBF436E0133436690F8913012
:10176800012BDAB205D1416E04230144703100F037
:1017780028BC7047002380F89030704790F892306A
:101788000BB900F059BC7047014B186800F0CEBD8A
:10179800C4010020014B186801F004BAC4010020FC
:1017A800014B586800F0C2BDC4010020014B5868C5
:1017B80001F0F8B9C40100207047000038B50E4B9D
:1017C800054618784FF47A73B3FBF0F30B4A1068A8
:1017D800B0FBF3F000F0A0F8044658B90F2D09D873
:1017E800024629464FF0FF3000F042F82046044BED
:1017F8001D6038BD0120FCE7000000202C000020FF
:1018080004000020074A08B51368032043F01003BA
:10181800136000F01BF80020FFF7D0FFFFF7CCFFA4
:10182800002008BD00200240034A044B11681B78C1
:101838000B441360704700BFCC010020000000205B
:10184800014B1868704700BFCC010020074903020C
:10185800CA6803F4E06322F4E0621204120C134332
:1018680043F0BF6343F40033CB60704700ED00E002
:10187800164B30B5DC68C4F30224C4F10703251DF8
:10188800042B28BF0423062D4FF0FF3598BF0024F2
:1018980005FA03F388BF033C21EA0303A34005FAD2
:1018A80004F422EA0402002843EA0203ACBF00F170
:1018B8006040074A4FEA0313DBB2ABBF00F5614053
:1018C80000F00F0080F80033135430BD00ED00E045
:1018D80014ED00E0002808DB0123420900F01F0096
:1018E80003FA00F0014B43F82200704700E100E0E2
:1018F80000280DDB0122430900F01F0002FA00F066
:10190800044A203342F82300BFF34F8FBFF36F8F91
:10191800704700BF00E100E00138B0F1807F0BD2D2
:101928004FF0E023F021054A586182F82310002087
:10193800072298611A6170470120704700ED00E0A6
:10194800002809DB0122430900F01F0002FA00F019
:10195800024A603342F82300704700BF00E100E00C
:10196800704708B5FFF7FCFF08BD704710B504467F
:1019780050B1437903F0FF0213B90271FFF7F5FF85
:1019880001230020637110BD0120FCE710B5044657
:1019980040B10223037102F07DF9002020616071DB
:1019A800207110BD0120FCE7012210B5046801F088
:1019B8001001236802FA01F123EA01012160027192
:1019C800002010BD90F82130022B06D00423836339
:1019D800002380F820300120704703681A6822F03D
:1019E8000E021A601A6822F001021A600123D0E977
:1019F8000F218B4053604FF480730384002070479D
:101A080008B590F82130022B03D00423836301200A
:101A180008BD036843491A6822F00E021A601A6862
:101A280022F001021A60404A934241D98B4238D0D1
:101A380014318B4237D014318B4236D014318B425B
:101A480023D014318B4223D014318B4223D09342BC
:101A580024D002F56272934223D01432934222D0EA
:101A68001432934221D01432934214BF4FF480337E
:101A78004FF480532D4A53604FF480730384436BB3
:101A8800002B4DD098470020C2E74FF48053F1E770
:101A98004FF48033EEE74FF48013EBE74FF0807399
:101AA800E8E70123E6E71023E4E74FF48073E1E772
:101AB8008B422ED01E498B422DD014318B422CD014
:101AC80014318B4219D014318B4219D014318B4206
:101AD80019D093421AD0174A93421AD0143293421B
:101AE80019D01432934218D01432934214BF4FF4D1
:101AF80080334FF48053104ABDE74FF48053FAE720
:101B08004FF48033F7E74FF48013F4E74FF0807316
:101B1800F1E70123EFE71023EDE74FF48073EAE7DD
:101B2800184675E7080002408000024000040240A1
:101B38001C000240080402400000024090F8210006
:101B480070470000044A08B55169014202D050614B
:101B580002F080F908BD00BF000401402DE9F846F5
:101B680006460F4691461D464FEA114A3368BAF1B8
:101B7800010F0CBF5C699C6927EA0404A4B2B4FA9B
:101B880084F46409A14501D0002017E06A1CEED056
:101B9800FFF756FE089BC01AA84201D8002DE5D1D0
:101BA800002320220120336386F83D2086F83E304A
:101BB800326C86F83C3042F020023264BDE8F88688
:101BC8007047000070B5044608B9012070BD90F850
:101BD8003D3003F0FF021BB980F83C20FFF7F0FF0F
:101BE800242384F83D3023681A6822F001021A6021
:101BF8001A6842F400421A601A6822F400421A6015
:101C080001F0E6FA3F4A6368934294BF3E4A3F4A6E
:101C180090428CBF00220122002AD6D1394E3C497D
:101C2800B342B0FBF1F188BF4FF49676226800F119
:101C3800FF30556825F03F0545EA010582BF71432D
:101C48004FF47A76B1FBF6F15560156A013125F04B
:101C58003F0529431162D1692A4D21F44F41AB4216
:101C680021F0FF0132D85B00B0FBF3F0431C40F6D3
:101C7800FC70034242D0C3F30B030B43D3611168DA
:101C8800D4E9073021F0C00103430B431360916886
:101C9800D4E9030321F40341034321F0FF010B437B
:101CA8009360D168D4E9053021F0FF0103430B4369
:101CB800D3601368002043F00103136020232064DD
:101CC80084F83D30206384F83E007FE7A56855B965
:101CD80003EB4303B0FBF3F30133C3F30B037BB113
:101CE80043F40043C9E719256B43B0FBF3F3013311
:101CF800C3F30B0323B143F44043BEE70423BCE71B
:101D08000123BAE7A08601007F841E00FF083D007A
:101D180040420F002DE9F04F044685B01E460F469D
:101D28009146FFF78DFD94F83D300546202B03D0F2
:101D3800022005B0BDE8F08F00901923012220464B
:101D48004C49FFF70BFF0028F2D194F83C30012BE7
:101D5800EED0012384F83C3023684FF0010A1A685A
:101D6800DFF810B1D20758BF1A6807F0FE075CBF4A
:101D780042F001021A601A6822F400621A602423F1
:101D880084F83D3000232364A3F58033E36222689E
:101D98004FF001111368204643F4807313603346F3
:101DA80000220095FFF7DAFE236838B11B68DB05CF
:101DB80002D54FF4007323640320BAE71F61FFF7CD
:101DC8003FFD4FF0A008054623685A695B69C2F3D6
:101DD8004002C3F3802394F83D10A02901D0134397
:101DE8001DD04FF02008236884F83D805A6912F00E
:101DF800020F1A6842F400721A6025D0002203927A
:101E08005A69204603929B6901220393039B19494F
:101E180019230095FFF7A2FE88B1012089E7FFF793
:101E28000FFD401BB04200D80EB984F83D802368EE
:101E38005A695B69C2F34002C3F38023CBE784F895
:101E48003D8084F83C0074E76FF4806259465A611B
:101E58002046192301220095FFF780FE0028DCD1D7
:101E68000AF1010ACA4592D384F83D8084F83C00FF
:101E7800D3E700BF02001000F7B5002400940194D6
:101E880090F83D40089D202C02D0022003B0F0BD00
:101E980004682668B60503D4082D01D0012D1ED18B
:101EA80046F2A817284E3668B6FBF7F619277E4380
:101EB8000196019E013E0196019E6EB9202306639C
:101EC80080F83D3080F83E60036C80F83C6043F059
:101ED800200303640120D9E7A669B707E9D490F87D
:101EE8003C60012ED1D02668F6075EBF266846F012
:101EF80001062660266826F400662660212680F8FA
:101F08003D60102680F83E60002606644385438DB8
:101F1800C56241640385036B42620093009B112BE9
:101F280005D1B5F52A0F02D0B5F12A4F03D12368A0
:101F380043F480732360002380F83C3062681846BD
:101F480042F4E0626260A1E72C00002037B590F807
:101F58003D4004F02804282C31D100292DD0002A36
:101F68002BD090F83C40012C29D005682C68E40758
:101F78005EBF2C6844F001042C602C6824F40064D3
:101F88002C60292480F83D40202480F83E4000241D
:101F980004644285428DC36201946B694162019376
:101FA800AB69028580F83C4020460193019B6B6831
:101FB80043F4E0636B6003B030BD0120FBE702200F
:101FC800F9E737B590F83D4004F02804282C31D1C2
:101FD80000292DD0002A2BD090F83C40012C29D084
:101FE80005682C68E4075EBF2C6844F001042C6087
:101FF8002C6824F400642C602A2480F83D402024B6
:1020080080F83E40002404644285428DC3620194F6
:102018006B6941620193AB69028580F83C402046B8
:102028000193019B6B6843F4E0636B6003B030BDC0
:102038000120FBE70220F9E790F83D30202B14D16E
:10204800282380F83D30036800201A68D2075EBF55
:102058001A6842F001021A601A6842F480621A6033
:102068005A6842F440725A607047022070477047BD
:102078007047704790F83D2008B5036DD2B283B918
:10208800C36C0268012B836C05D1DBB21361036D4D
:102098000233036508BDC3F307231361036D0133DE
:1020A800F7E7036D012B03D1836C0268DBB2F4E719
:1020B800036D022BEED1222A05D10268136843F47E
:1020C80080731360EAE7438D9BB263B1212A0AD17A
:1020D800436A026813F8011B11614362438D013B97
:1020E8009BB24385D6E7438D9BB2002BD2D1212AE0
:1020F800D0D10268516821F4E0615160116841F45F
:10210800007111602022036380F83D2080F83E3082
:10211800FFF7AFFFBEE7704770470000002337B5F1
:1021280046F2A81101932C4B406A1B6890F83D2099
:10213800B3FBF1F323214B4301930368D2B2019916
:1021480041BB016C41F020010164446B0CB10021DA
:10215800A162816B09B100258D621D6825F4806537
:102168001D600025458504B1656301B14D6319689B
:1021780021F00101196090F83D10602911D1202348
:1021880080F83D30002380F83E300364FFF7C4FF39
:1021980003B030BD01990139019119688905CED480
:1021A800D3E702F02802282A0ED1196841F001016C
:1021B8001960196841F4806119600023036380F88D
:1021C8003D20FFF7DBFAE3E7202380F83D300023CA
:1021D80080F83E30F5E700BF2C00002010B590F8DD
:1021E8003D2090F83E300446102BD9B2D2B2036895
:1021F80001D0402913D1222A11D1196821F4006194
:102208001960596811F4006106D1602A1EBF2022A6
:1022180084F83D2084F83E100022226307E002F093
:1022280028012829EDD10022226384F83D105A683C
:1022380012F400624FD05A68606B22F400625A6050
:1022480090F82130012B374B2BD04363FFF7D8FB95
:1022580050B12268606B136823F0010313602023D8
:1022680084F83D30436B9847236C19071FBF2268D9
:10227800536823F4E063536094F83D30226CDBB27A
:1022880052070DD5282B0BD1274B2022E3620023C0
:102298002046236384F83D2084F83E30FFF743FA54
:1022A80010BDA06B4363FFF7ABFB0028DCD02368AD
:1022B8005A69510605D51A69636A1A70636A013347
:1022C80063622268A06B136823F001031360202364
:1022D80084F83D30C6E794F83D10602915D12021D7
:1022E80084F83D1022645A69520605D51A69636A52
:1022F8001A70636A0133636222682046136823F008
:1023080001031360FFF708FFAEE75A69500605D5C9
:102318001A69636A1A70636A013363622046FFF7B9
:102328002DFAA1E7252100080000FFFFF0B50446BB
:1023380003688FB05A68C66A90F83E0094F83D105A
:102348001028C5B2C9B202D0402D40F0CA829F6998
:10235800586910F0010F07D1B6F52A0F02D0B6F16F
:102368002A4F51D10FB0F0BD96054DD5E26AB2F5AE
:102378002A0F0CD10122E26294F83E20402A11D1A2
:10238800226D52B9626C02F0FE021A61EAE7E26A53
:10239800B2F12A4FF0D10822EDE7626C42F0010257
:1023A800D2B2F2E72269B2F5804F1AD194F83D20F3
:1023B800212A626C11D102F0FE021A61626B0AB125
:1023C800926A2AB9A26B002ACCD0926A002AC9D094
:1023D8005A6842F400625A60C4E742F00102D2B27D
:1023E800EBE7226D32B9626CD21102F0060242F0BC
:1023F800F002CAE7226D012AB4D1626CD21102F050
:10240800060242F0F102C0E7060703D5960501D59A
:10241800626CE4E7860740F1E680960540F1E380C8
:1024280094F83E10E26A256B94F83D00C9B2222860
:1024380040F0D180206D40B9402906D100905A69FA
:1024480000929B690093009B8CE7216D89B92069F4
:10245800B0F5404F0DD101915A6901929A690192E4
:10246800019A1A6842F480721A60236D0133236559
:1024780078E7618D89B251B902915A6902929A69D5
:102488000292029A1A6842F400721A6019E0618D89
:1024980089B2012949D112F5803F1BD11A6822F46B
:1024A80080621A605A6812F400620CD01A6822F42A
:1024B80080621A60002203925A6903929B6903930F
:1024C800039B0023D3E704925A6904929A69049201
:1024D800049AD7E7082A1CD0202A1AD0122D0DD129
:1024E800012A16D11A6822F480621A600022059225
:1024F8005A6905929B690593059BE2E7102AF1D872
:10250800964921FA02F2D607ECD51A6842F480629D
:10251800EBE71A6822F480621A60002206925A6970
:1025280006929A690692069AACE7618D89B20229E9
:1025380033D1102A05D88949D140C94311F0010186
:1025480020D0196841F40061196000210791596988
:102558000791996907910799196821F480611960B1
:1025680059680D05ADD512F5803F06D0511E1F29BB
:10257800A7D87B4ACA40D007A3D55A6842F48052EC
:102588005A609EE7186840F480601860089159699D
:102598000891996908910899E2E7196841F48061FE
:1025A8001960596809050ED512F5803F07D0013A20
:1025B8001F2A08D86A4921FA02F2D20703D55A68B5
:1025C80042F480525A60002209925A6909929B6922
:1025D8000993099B75E700220A925A690A929B6936
:1025E8000A930A9BBEE67F0740F18D805E68360538
:1025F8003FF5B8AE0706C0F380063ED550053CD57A
:10260800002E3DD194F83D20258D94F83E10D2B28D
:10261800E06AC9B2C5B9212A18D1082858D020289B
:1026280056D010F5803F53D05A6822F4E0625A60C1
:1026380011232363002384F83E302023204684F8A6
:102648003D30FFF714FD8DE6212A05D040297FF49F
:1026580089AE222A7FF486AE628D92B21AB95A6880
:1026680022F48062B7E694F83E20402A16D120462C
:102678000FB0BDE8F040FFF7FDBC002E3FF472AE8E
:1026880097057FF56FAE212939D1E16A94F83D208D
:10269800212A7FF467AE628D92B24AB1626A12F85B
:1026A800011B19616262638D013B9BB2638559E628
:1026B80008290DD020290BD011F5803F08D0596882
:1026C80021F4E06159601123236384F83E20B4E7C4
:1026D8005A68204622F4E0625A601A6842F400728E
:1026E8001A6000232022236384F83D2094F83E20BA
:1026F80084F83E30402AA4D1FFF7BBFC32E6402DD7
:102708007FF430AEB3E759680E053FF52BAE4506AA
:10271800C0F380017BD5500579D500297AD194F88A
:102728003D20222A7FF41EAE628D92B2032A19D967
:102738001A69636A1A70636A01336362638D013BC5
:102748009BB26385638D9BB2032B7FF40BAE22682B
:10275800536823F48063536004E600BF140001004B
:1027680081800080E06A02283FF4FCAD012A3FF630
:10277800F9AD0B9146F2A811724A1268B2FBF1F258
:1027880002EB82020B920B9A013A0B920B99D1B988
:10279800226C204642F0200222645A6822F4E06249
:1027A8005A601A69636A1A70636A01336362638DD7
:1027B800013B9BB26385202384F83D3084F83E10AA
:1027C800FEF7DCFFCEE51A6812F40072DBD1196857
:1027D80021F480611960596821F4E0615960196930
:1027E800636A1970636A01336362638D013B9BB24C
:1027F8006385202384F83D3094F83E3084F83E20E9
:10280800402B68D122632046FFF785FCAAE5002902
:102818003FF4A8AD92057FF5A5ADE26A608D616AC7
:1028280080B2042809D15A6822F480625A601B6970
:102838000B70636A0133636235E7608D80B20328E9
:102848000CD15868042A20F480605860EFD0022A1E
:10285800EDD01A6822F480621A60E8E7608D80B2D1
:102868000228E4D1012A01D0102A28D11A6822F4BA
:1028780080621A601B690B70626A531C6362638D05
:10288800013B9BB2638523681B695370636A2268A6
:1028980001336362638D013B9BB26385536823F404
:1028A80040735360202384F83D3094F83E30402B29
:1028B8004FF0000384F83E300DD12363A3E7042AC8
:1028C80001D0022A03D11A6842F48062D1E71A685B
:1028D80042F40072CDE7122320462363FFF7C8FBBA
:1028E80040E5206C08B30025586987072CD5960564
:1028F8002AD5226C02B19D6994F83D2002F0280285
:10290800282A15D15A686FEA950122F480625A6024
:1029180000232F06204654BFA289228B01F0010113
:1029280084F83C30FEF7CBFE1CE59D695869DCE76E
:1029380000220C9259690C919B6984F83C200C93F5
:102948000C9B0FE52C000020C60640F1B1809505D0
:1029580040F1AE8094F83D505A68EDB222F4E0623E
:102968005A6000220D925A690D921A6842F00102CB
:102978001A600D9A1A6822F480621A605A68100563
:1029880020D505F0F702222A4AD1A06B02685268C6
:1029980092B26285628D92B21AB1226C42F0040240
:1029A80022645A6822F400625A60FFF7C7F80128C7
:1029B80008D0A06B794B4363FFF722F810B1A06BE6
:1029C800436B9847638D9BB213B323685A695107C9
:1029D80009D51A69636A1A70636A01336362638D81
:1029E800013B9BB2638523685A69520609D51A6967
:1029F800636A1A70636A01336362638D013B9BB239
:102A08006385638D9BB21BB1236C43F0040323647D
:102A1800236C13B320460FB0BDE8F040FFF7DEBBD0
:102A2800606B0268526892B26285628D92B21AB186
:102A3800226C42F0040222645A6822F400625A604E
:102A4800FFF77CF80128BDD0606B544B4363FEF759
:102A5800D7FF0028B6D0606BB2E72A2D06D12363D2
:102A68002823204684F83D30FEF772FE94F83D3066
:102A7800282B0CD14A4B2022E362002320462363F3
:102A880084F83D2084F83E30FEF74DFE6AE4236B5F
:102A9800222B02D0222D7FF465AC00232022236351
:102AA80084F83D2084F83E302046FEF751FE59E474
:102AB80001F0F7012129C0F3800535D1070627D594
:102AC800560525D53DBB94F83D00628DC0B292B243
:102AD800002A3FF447AC626A12F8015B1D6162622A
:102AE800628D013A92B26285628D92B2002A7FF4B9
:102AF80039AC29287FF436AC5A68204622F4806223
:102B08005A602823216384F83D30FEF733FE29E418
:102B1800002D3FF427AC95057FF524AC628D92B269
:102B2800002A3FF41FACB9E5400627D5510525D545
:102B38003DBB94F83D20618DD2B289B200293FF4A3
:102B480011AC1969636A1970636A01336362638D32
:102B5800013B9BB26385638D9BB2002B7FF402AC73
:102B68002A2A7FF4FFAB2268536823F480635360FA
:102B780022232363282384F83D3095E7002D3FF472
:102B8800F1AB92057FF5EEAB628D92B2002A3FF46D
:102B9800E9AB1A69636A1A704BE600BF2521000881
:102BA8000000FFFFF8B5036804465F695E6890F8A7
:102BB8003E20F805D2B2C7F300250BD5F105C6F3C0
:102BC800002507D56FF4807101255961196841F412
:102BD80000411960B80506D5F10542BF6FF40071D0
:102BE80045F002055961780536D5F10534D5608D73
:102BF80094F83D10202AD4F830C080B2C9B25BD115
:102C0800002859D101F0F700212804D0282953D1F0
:102C1800BCF1210F50D194F83D20E16AD2B20829C5
:102C280001D020292AD1282A28D12C4A2046E2621C
:102C38005A6822F4E0625A606FF480625A611A6836
:102C480022F480621A6000232022236384F83D2046
:102C580084F83E30FEF767FD3A053BD5F30539D5D4
:102C68006FF40062236845F008055A61236C20461A
:102C78001D432564BDE8F840FFF7B0BA212A17D1F3
:102C880016492046E1622263202284F83D20002272
:102C980084F83E205A6822F4E0625A606FF4806239
:102CA8005A611A6822F480621A60FEF763FDD3E75E
:102CB8006FF480625A61CFE76FF48061102A59611E
:102CC80045F0040501D0402AC6D11A6842F40072C2
:102CD8001A60C1E7002DC9D1F8BD00BF0000FFFF91
:102CE80090F83D007047006C704700002DE9F341F3
:102CF800054638B30368DB0710D42B689F075ED4FA
:102D08002B68190700F195802B685A0700F1C180DC
:102D1800E869002840F02C81002029E0904C636885
:102D280003F00C03042B07D0636803F00C03082B93
:102D38000AD16368DE0307D523689C03DDD56B6879
:102D4800002BDAD1012013E06B68B3F5803F12D174
:102D5800236843F480332360FEF772FD0646236838
:102D68009803CAD4FEF76CFD801B6428F7D90320AA
:102D780002B0BDE8F0819BB9236823F48033236057
:102D8800236823F480232360FEF75AFD0646236850
:102D98009903B2D5FEF754FD801B6428F7D9E6E7FE
:102DA800B3F5A02F236803D143F480232360CFE732
:102DB80023F480332360236823F48023CBE7684C13
:102DC800636813F00C0F07D0636803F00C03082B3B
:102DD80010D16368DA030DD423689B0702D52B69E9
:102DE800012BAFD123686A6923F0F80343EAC203D1
:102DF800236085E72A695B4B6AB101221A60FEF7F6
:102E08001FFD064623689F07ECD4FEF719FD801BBB
:102E18000228F7D9ABE71A60FEF712FD06462368C9
:102E280098077FF56DAFFEF70BFD801B0228F6D9DA
:102E38009DE7AA694A4E4B4BE2B10122C3F88024B0
:102E4800FEF7FEFC0446736A9B070DD54FF4FA5251
:102E5800454B1B68B3FBF2F3019300BF019B5A1E5D
:102E68000192002BF9D14FE7FEF7EAFC001B02287C
:102E7800E9D97CE7C3F88024FEF7E2FC0446736ACC
:102E88009F077FF541AFFEF7DBFC001B0228F6D950
:102E98006DE7334CE369D80024D40127E36943F094
:102EA8008053E361E36903F080530093009B2F4E46
:102EB8003368D90518D5EB68012B26D1236A43F06E
:102EC80001032362FEF7BCFC41F288380646236AF8
:102ED8009B073FD5002F3FF41BAFE36923F08053D6
:102EE800E36115E70027E2E7336843F48073336052
:102EF800FEF7A6FC80463368DA05DCD4FEF7A0FCB2
:102F0800A0EB08006428F6D931E7ABB9236A41F28F
:102F1800883823F001032362236A23F00403236221
:102F2800FEF78EFC0646236A9807D3D5FEF788FC81
:102F3800801B4045F7D91AE7052B236A03D143F0D4
:102F480004032362BAE723F001032362236A23F010
:102F58000403B6E7FEF774FC801B4045B7D906E7C3
:102F680000100240000042422C0000200070004087
:102F78002A4C636803F00C03082B3ED00022284B30
:102F880002281A662CD1FEF75BFC064623689901D5
:102F980020D42B6AB3F5803F05D16268A96822F472
:102FA80000320A436260696A62680B4322F4741251
:102FB8001343012263601A4B1A66FEF741FC05466B
:102FC80023689A013FF5A8AEFEF73AFC401B022899
:102FD800F6D9CCE6FEF734FC801B0228D6D9C6E623
:102FE800FEF72EFC054623689B017FF595AEFEF79C
:102FF80027FC401B0228F6D9B9E601283FF4B8AEF1
:1030080063682A6A03F4803191427FF49BAE6A6A4E
:1030180003F4701393423FF47FAE93E6001002402E
:103028000000424230B5184B87B002AC03F11005DE
:10303800224618685968083303C2AB421446F7D1D0
:1030480040F201231149ADF804304B6803F00C023B
:10305800082A17D1C3F3834218326A44DB0312F8F3
:10306800100C0CD54B680A4AC3F34043504318333D
:103078006B4413F8143CB0FBF3F007B030BD054BBC
:103088005843FAE70248F8E7F858000800100240E9
:1030980000127A0000093D002DE9F0410D46044672
:1030A80010B90120BDE8F081444A136803F0070312
:1030B8008B4228D321688E0730D4CA0743D43F4AAD
:1030C800136803F00703AB4265D822683C4D12F041
:1030D800040F6CD1130706D56B68226923F460537B
:1030E80043EAC2036B60FFF79DFF6B68354AC3F381
:1030F8000313D35CD840344B1860344B1868FEF780
:103108005DFB0020CEE7136823F007030B43136031
:10311800136803F007038B42C3D1CBE7284B11F0A8
:10312800040F1EBF5A6842F4E0625A60080742BFA3
:103138005A6842F460525A605A68A06822F0F00255
:1031480002435A60B9E762681D4E012A33681AD1F2
:1031580013F4003FA5D0736841F2883823F00303C5
:1031680013437360FEF76CFB07467368626803F0ED
:103178000C03B3EB820FA2D0FEF762FBC01B4045E5
:10318800F3D903208EE7022A02D113F0007FE1E78A
:1031980013F0020FDEE7136823F007032B431360D5
:1031A800136803F00703AB427FF47BAF8DE76B68CE
:1031B800E16823F4E0630B436B608BE70020024077
:1031C800001002404C5900082C0000200400002088
:1031D800044B054A5B68C3F30223D35C034A1068B7
:1031E800D8407047001002405C5900082C000020AD
:1031F800044B054A5B68C3F3C223D35C034A1068D7
:10320800D8407047001002405C5900082C0000208C
:1032180070477047036810B51A69044691070ED5C0
:10322800DA6892070BD56FF002021A610122027761
:103238009B699B0777D000F0A5FC002323772368C0
:103248001A69500710D5DA6851070DD56FF00402D6
:103258001A61022222779B69204613F4407F68D0C6
:1032680000F090FC0023237723681A6912070FD512
:10327800DA6810070CD56FF008021A610422227769
:10328800DB69204699075AD000F07CFC002323779D
:1032980023681A69D20610D5DA68D0060DD56FF002
:1032A80010021A6108222277DB69204613F4407F56
:1032B8004BD000F067FC0023237723681A69D107F5
:1032C80008D5DA68D20705D56FF0010220461A61E1
:1032D80000F035FC23681A69100608D5DA6811066B
:1032E80005D56FF0800220461A6100F096F8236831
:1032F8001A69520608D5DA68500605D56FF04002FB
:1033080020461A61FFF785FF23681A69910622D5BE
:10331800DA6892061FD56FF020022046BDE81040FB
:103328001A6100F079B800F02BFC2046FFF770FF17
:1033380083E700F025FC2046FFF76AFF92E700F0DC
:103348001FFC2046FFF764FFA0E700F019FC2046A9
:10335800FFF75EFFAFE710BDB0F1804F03680AD0FA
:10336800164A904207D002F58062904203D002F5D7
:103378008062904216D14A6823F07003B0F1804F02
:1033880043EA02030AD00D4A904207D002F5806250
:10339800904203D002F58062904203D1CA6823F4B8
:1033A800407313434A6923F08003134303608B6817
:1033B800C3620B68836201234361704700040040C5
:1033C80010B5044630B390F83D3003F0FF021BB946
:1033D80080F83C2001F01AF90223206884F83D3077
:1033E800211DFFF7B9FF0123002084F8463084F837
:1033F8003E3084F83F3084F8403084F8413084F817
:10340800423084F8433084F8443084F8453084F8F6
:103418003D3010BD0120FCE7704770470368DA684B
:1034280022F49072DA605A6922F001025A61026B42
:10343800012A02BFDA6822F01002DA60202380F83D
:103448003E3000230363704710B504460368C16823
:103458001A6922F440520A431A6182680069D968DD
:103468000243606921F4B05121F00C0102430A4380
:10347800DA605A69A16922F440720A435A610E4A15
:10348800934215D1FFF7B4FE1923434362682068BD
:103498009200B3FBF2F36422B3FBF2F102FB1133A7
:1034A8001B013233B3FBF2F303EB0113836010BD4E
:1034B800FFF78EFEE8E700BF00380140704710B5FF
:1034C800044640B390F83D3003F0FF021BB980F882
:1034D8003C20FFF7F3FF2423226884F83D30D368AB
:1034E800204623F40053D360FFF7AEFF2368002083
:1034F8001A6922F490421A615A6922F02A025A6122
:10350800DA6842F40052DA602023206484F83D30FF
:1035180084F83E3010BD0120FCE710B5044660B3C6
:1035280090F83D3003F0FF021BB980F83C20FFF70C
:10353800C5FF2423226884F83D30D368204623F44D
:103548000053D360FFF780FF236800201A6922F434
:1035580090421A615A6922F022025A615A6942F06D
:1035680008025A61DA6842F40052DA6020232064C3
:1035780084F83D3084F83E3010BD0120FCE790F817
:103588003D30202B18D1A9B1A2B190F83C30012BC5
:1035980012D0C2840023828421220162016803645C
:1035A80080F83C3080F83D20CA68184642F0800216
:1035B800CA607047012070470220704708B5002391
:1035C800406AC385C38401F0F5F908BD704707B5A3
:1035D8008168836AB1F5805F026834D10169002986
:1035E80034D15268C2F3080223F8022BC28D8362D9
:1035F800013A92B2C2851ABB0368D96821F020014A
:10360800D960D96821F48071D960596921F0010124
:103618005961202180F83E10016B012920D10263F5
:10362800D96821F01001D9601968C90605D5019239
:103638001A6801925B680193019B818DFFF7C6FFB1
:1036480003B05DF804FB39B9016929B95268D2B2EF
:103658001A70836A0133C9E7526802F07F02F7E7FC
:1036680001F0A2F9ECE70000036837B51A680446D0
:1036780012F00F0FD9685D690CD1950667D58D06D4
:1036880065D590F83E30222B5BD103B0BDE83040C1
:10369800FFF79DBF05F0010001F49075054356D072
:1036A800D50705D5CB0542BF236C43F0010323643E
:1036B800550704D518B1236C43F00203236493071C
:1036C80004D518B1236C43F004032364150707D508
:1036D80001F0200303431EBF236C43F00803236457
:1036E800236C73B3920608D58B0606D594F83E3042
:1036F800222B02D12046FFF76AFF236820465B6928
:10370800256C03F0400305F008051D431BD0FFF7A7
:1037180085FE23685A69550610D55A69A06B22F0B0
:1037280040025A6150B1534B4363FEF769F940B107
:10373800A06B436B03B0BDE830401847204601F04A
:1037480039F903B030BD01F035F92564F9E7206B8C
:10375800012855D1D00653D5CD0651D50021019168
:103768001A6801925A680192019A5A6912F0400245
:103778002AD0A06B0268526892B2002AE1D0A58DC7
:103788009542DED9E2858269202A15D0DA6822F4CA
:103798008072DA605A6922F001025A615A6922F08D
:1037A80040025A61202284F83E202163DA6822F020
:1037B8001002DA60FEF706F9E38DA18DC91A89B205
:1037C8002046FFF703FFBCE7E18D88B2E18D89B29F
:1037D8000029B6D0A18D091A89B20029B1D0D868BC
:1037E80020F49070D860586920F0010058612020BA
:1037F80084F83E002263DA6822F01002DA60DFE71C
:10380800100626D50D0624D594F83D20212A98D1F6
:10381800A168226AB1F5805F16D12169A1B932F891
:10382800021BC1F3080159602262E28C013A92B28C
:10383800E284002A85D1DA6822F08002DA60DA6848
:1038480042F04002DA607CE7511C216212785A602B
:10385800EBE750067FF575AF4A067FF572AFDA6879
:10386800204622F04002DA60202384F83D3001F03F
:103878009EF866E7C535000890F83C30012B11D05A
:103888002423026880F83D30D36823F00C0343F00A
:103898000803D360202380F83D30002380F83C30B3
:1038A800184670470220704790F83C30012B11D021
:1038B8002423026880F83D30D36823F00C0343F0DA
:1038C8000403D360202380F83D30002380F83C3087
:1038D800184670470220704790F83D2090F83E0047
:1038E80010437047C28582858162034622220020E8
:1038F800186483F83C0083F83E201B68DA6842F4B9
:103908008072DA605A6942F001025A61DA6842F05C
:103918002002DA60704770B490F83E60202E10D113
:1039280061B15AB190F83C40012C0AD0012480F8CA
:103938003C400024046370BCFFF7D4BF012070BC76
:1039480070470220FBE7836810B504462BB10322B9
:10395800014698470023C4E9023310BDB0F1804FF7
:10396800034615D00F4A904214D002F58062904267
:1039780012D002F58062904210D002F58062904227
:103988000ED04FF6FF70084A934208BF05207047D3
:103998000020F8E70120F6E702207047032070476F
:1039A800042070470004004000140040014670B530
:1039B800044651F8100FFFF7D1FF0546084600F0FE
:1039C800BBFD0023084A04F1600642F82530E36095
:1039D80004F1B005B54204D0103D2846FDF745FB7B
:1039E800F8E7204670BD00BFD0010020F8B50446B6
:1039F8000846FFF7B3FF4FF6FF73984200D1FEE782
:103A0800236903B1FEE71C4D04F10C0245F82020A0
:103A18000E2204F110063046C4E90C33C4E90E3313
:103A2800C4E91033C4E91623216184F82C30A36457
:103A380084F84C3084F84D30E46000F01BFD04F14C
:103A4800600504F1B00728461035FFF77CFFBD423A
:103A5800F9D100234FF6FF72C4E90033C4E90632F6
:103A6800C4E90833A360636180233046A362BDE8DC
:103A7800F840FFF7A5BC00BFD0010020002310B517
:103A8800044683668367C0F88830C0F89830C0F869
:103A9800A8300361FFF7AAFF204610BD034B186842
:103AA80010B10430FFF7B6BB704700BFD00100204B
:103AB800034B586810B10430FFF7ACBB704700BF28
:103AC800D0010020034B986810B10430FFF7A2BB67
:103AD800704700BFD0010020034BD86810B10430F4
:103AE800FFF798BB704700BFD0010020034B18694F
:103AF80010B10430FFF78EBB704700BFD001002023
:103B0800034B586910B10430FFF784BB704700BFFE
:103B1800D0010020826810B50AB901F0A7FEC36879
:103B2800BDE81040184708B500B9FEE700F0A0FC52
:103B38000068836E13B16030FFF7ECFF08BDFFF734
:103B4800F2BF10B500B9FEE7037F013B072B10D881
:103B5800DFE803F014040F100F0F0F12022400F017
:103B680087FC0068063400EB041083680BB1FFF78C
:103B7800D1FF10BD0324F2E70424F0E70124EEE7A7
:103B8800FFF7DFBFFFF7DDBF01F0C6BC01F0CCBC1B
:103B980088B006285AD8DFE800F004111D293541FD
:103BA8004D002B4B2B489A6942F004029A619B699D
:103BB80003F004030193019B08B07047244B264887
:103BC8009A6942F008029A619B6903F0080302931C
:103BD800029BF1E71E4B21489A6942F010029A6154
:103BE8009B6903F010030393039BE5E7184B1C48FC
:103BF8009A6942F020029A619B6903F020030493BA
:103C0800049BD9E7124B17489A6942F040029A611F
:103C18009B6903F040030593059BCDE70C4B1248C5
:103C28009A6942F080029A619B6903F080030693C7
:103C3800069BC1E7064B0D489A6942F480729A6167
:103C48009B6903F480730793079BB5E70020B3E7EC
:103C58000010024000080140000C01400010014023
:103C68000014014000180140001C014000200140E0
:103C780008B5074900F0C6FBC0F3C430012802D0DC
:103C8800022802D0FEE7002008BD1020FCE700BF94
:103C9800645900080268094B9A420DD103F5CE33E6
:103CA8001A6942F000521A611A6922F000521A6128
:103CB800DA6922F00052DA61704700BF00740040F0
:103CC80010B50B4986B0044600F07AFB019060B14C
:103CD8002046FFF7CDFF30F01003014605D101A8BB
:103CE800FDF762FE01A8FDF751FE06B010BD00BF4A
:103CF80064590008F8B51449064600F061FBFFF75F
:103D08002DFE124D044655F8203073B90E49304641
:103D180000F056FB0746B020FFF736FF0646394647
:103D2800FFF7ACFE55F824301E6055F824301C68A7
:103D380044B12046FFF73AFE2046BDE8F840B021DE
:103D4800FFF724BFF8BD00BFE8590008D0010020E4
:103D580037B54FF0E025FDF773FDAB6904460093D6
:103D6800FDF76EFDAB698442019369694FF47A737C
:103D780001F1010108D0019A8A1A5A43B2FBF1F203
:103D880003FB002003B030BD009A8A1A5A43B2FBE5
:103D9800F1F203FB0420F5E7FDF752BD704708B5C3
:103DA800FDF742FDFDF7DDFDFFF7F8FF08BD7047A1
:103DB8000F4B84B0DA6942F08052DA61DA6902F0B6
:103DC80080520192019A9A6942F001029A619A69B5
:103DD80002F001020292029A5A6942F040025A61C4
:103DE8005B6903F040030393039B04B0704700BF73
:103DF800001002400C4BD3F8FC20D2015EBFD3F870
:103E0800FC2042F08072C3F8FC200022074B5A6065
:103E18001A6842F001021A6000BF00BF00BF58686C
:103E2800B0FA80F04009704700ED00E0001000E0B3
:103E380008B5FFF7BDFFFFF7DDFFFDF7E3FCFFF770
:103E4800B6FF00F05FFEBDE808400148FDF78EBDF3
:103E5800240000200023012803F1010202D01346A8
:103E68004008F8E71421DBB24B43044A181D1044FC
:103E7800816811B113441B6918477047E801002095
:103E88000120FDF75FBE0220FDF75CBE0420FDF7B0
:103E980059BE0820FDF756BE1020FDF753BE38B5B1
:103EA80005242025A8B2FDF74DFE013C4FEA450543
:103EB800F8D138BD38B506244FF48065A8B2FDF7AF
:103EC80041FE013C4FEA4505F8D138BD0721204B9A
:103ED80006221975082183F82810092183F83C1057
:103EE8000A2183F8501017211A7083F864100022F1
:103EF80083F8781083F88C1083F8A01083F8B41036
:103F08002821DA601A625A639A64DA651A67C3F874
:103F18008420C3F89820C3F8AC20C3F8C02083F8E5
:103F2800C810C3F8D42083F8DC10C3F8E82083F85D
:103F3800F010C3F8FC2083F80411C3F8102183F8AB
:103F48001811C3F8242183F82C11C3F838217047BD
:103F5800E801002038B5054CA4F5A075143C201DD7
:103F6800FDF783F8AC42F9D138BD00BF2803002023
:103F7800884B82B09A69013842F001029A619B69C4
:103F880003F001030193019B272830D8DFE810F0E4
:103F98002800310038003F0044004B005000570013
:103FA8005C0063006C0071007800810086008D0061
:103FB80096009F00A400AB00B400B900C0002F0019
:103FC8002F002F00C500CC00D100D8002F002F00F3
:103FD8002F002F00DD00E200E900F000F700FD00EF
:103FE8006D4A536843F0E06343F00103536002B045
:103FF8007047694A536823F0010343F0E063F5E72B
:10400800654A536843F0E06343F00203EEE7624A0F
:10401800536823F00203F0E75F4A536843F0E06314
:1040280043F00403E2E75C4A536823F00403E4E73F
:10403800594A536843F0E06343F00803D6E7564A09
:10404800536823F00803D8E7534A536843F0E06302
:1040580043F03003CAE7504A536823F0300343F073
:10406800E06343F01003C1E74B4A536823F0300381
:10407800C3E7494A536843F0E06343F0C003B5E738
:10408800454A536823F0C00343F0E06343F040031C
:10409800ACE7414A536823F0C003AEE73E4A536891
:1040A80043F0E06343F44073A0E73B4A536823F4CA
:1040B800407343F0E06343F4007397E7364A53686C
:1040C80023F4407343F0E06343F480738EE7324A8D
:1040D800536823F4407390E72F4A536843F0E06332
:1040E80043F4406382E72C4A536823F4406343F067
:1040F800E06343F4006379E7274A536823F4406395
:104108007BE7254A536843F0E06343F480536DE747
:10411800214A536823F480536FE71F4A536843F0DA
:10412800E06343F4004361E71B4A536823F4004308
:1041380063E7194A536843F0E06343F4803355E773
:10414800154A536823F4803357E7134A536823F01A
:10415800E0634BE7104A536823F0E06343F0807351
:1041680044E70D4A536823F0E06343F000733DE7EA
:10417800094A536823F0E06343F0806336E7064A50
:10418800D36943F48063D36131E7034AD36923F4E5
:104198008063F8E7001002400000014091FAA1F3A3
:1041A800B3FA83F370B50D0E0F2691FAA1F1B1FAA7
:1041B80081F144599B0006FA03F3890024EA0304B9
:1041C80002FA01F12143415170BD91FAA1F3B3FA0A
:1041D80083F370B50D0E042691FAA1F1B1FA81F1BD
:1041E80044599B0006FA03F3890024EA030402FAFF
:1041F80001F12143415170BD431C04D00C3151F8E9
:104208000C3C5A1C01D100207047834201F10C017B
:10421800F5D1012070470000431C2DE9F341064603
:104228000F4600D1FEE7574B00F00F02C0F3031012
:1042380001F0070853F82240FFF7AAFCB8F1010F74
:10424800054643D194FAA4F3B3FA83F30321200E6D
:104258002A589B0001FA03F322EA030394FAA4F212
:10426800B2FA82F29200914001220B432B50214670
:10427800284608F1FF38FFF791FFB8F1010F06D87B
:1042880017F0080218BF04222146FFF79EFF94FA90
:10429800A4F2230EE958B2FA82F39A000F2393404E
:1042A80094FAA4F2B2FA82F2C7F301170B40920013
:1042B800012F23FA02F321D0022F4AD0082B30D144
:1042C800042221462846FFF769FF2AE0C7F30620A3
:1042D800B8F1030F03D8DFE808F0050F0903FEE77C
:1042E8000022C4E7FFF744FE0822C0E77F2801D078
:1042F800FFF73EFE0922BAE74246B8E7042B04D18D
:10430800082221462846FFF749FFEA68230A22EADD
:10431800142293FAA3F30124B3FA83F39C401443C1
:10432800EC60194B9A6942F001029A619B6903F0AB
:1043380001030193019BA6F10D03012B15D8134A24
:10434800536823F0E06343F08063536002B0BDE834
:10435800F081042B04D1082221462846FFF71EFFCE
:10436800EB6823EA1423EB60DBE70F2E02D0133E41
:10437800012EEBD8054A536823F0E06343F000733D
:10438800E3E700BF0C59000800100240000001409C
:10439800431C06D17047834202D18968FFF73CBFAE
:1043A8000C310B685A1CF6D1FEE70B685A1C01D178
:1043B80000207047834201D1486870470C31F4E708
:1043C800431C01D0FFF7F1BF002070474B6813B9B9
:1043D8004FF0FF307047834201D1086870470C31B5
:1043E800F4E708B1FFF7F2BF4FF0FF30704703461C
:1043F8000868421C00D17047984201D1886870470C
:104408000C31F5E7431C01D0FFF7F1BF70470346B5
:104418008B42084604D01BB100290CBF1846002067
:10442800704700000F4B1A6842F001021A60596881
:104438000D4A0A405A601A6822F0847222F48032C7
:104448001A601A6822F480221A605A6822F4FE025E
:104458005A604FF41F029A604FF00062034B9A6053
:10446800704700BF001002400000FFF800ED00E0B8
:1044780004387047036886B0B3F1804F17D1294AD2
:10448800D16941F00101D161D26902F001020092C3
:10449800009A254A934237D1224BDA6942F020022A
:1044A800DA61DB6903F020030593059B2CE01F4AC2
:1044B800934214D002F5806293421BD01C4A934267
:1044C80024D01C4A9342E4D1164BDA6942F0100218
:1044D800DA61DB6903F010030493049B14E0114ACA
:1044E800D16941F00201D161D26902F00202019260
:1044F800019ACEE70B4BDA6942F00402DA61DB6914
:1045080003F004030293029B06B07047054BDA6977
:1045180042F00802DA61DB6903F008030393039BA6
:10452800F2E700BF00100240001400400004004001
:10453800000C0040001000400368B3F1804F08D120
:104548001749CA6922F00102CA61164A934222D069
:104558007047154A93420ED002F5806293420FD0FD
:10456800124A934212D0124A9342EED10C4AD369AE
:1045780023F0100308E00A49CA6922F00202E3E7BF
:10458800074AD36923F00403D3617047044AD36907
:1045980023F00803F8E7024AD36923F02003F3E77E
:1045A800001002400014004000040040000C0040CD
:1045B80000100040431C18D0124B984218D00BD85A
:1045C800A3F50063984215D003F58063984213D091
:1045D800B0F1804F12D0FEE70B4B984210D003F594
:1045E80080639842F7D1372070476FF00D0070470D
:1045F800322070471D2070471E2070471C207047CE
:1046080036207047000C00400010004010B50446EA
:10461800FFF730FF0068FFF7CDFFD4E91212FDF76E
:1046280027F92068FFF7C6FFFDF754F92068BDE8B1
:104638001040FFF7BFBF00002DE9F04F044689B0D6
:104648008A46006D7C4998469146DDF848B0FFF7E8
:10465800B7FE7A490190606DFFF7B2FE78490646C9
:10466800A06DFFF7ADFE77490546E06DFFF7A8FEA0
:10467800019B0746002B00F0DB80626D013202D0FF
:10468800002E00F0D580A26D013202D0002D00F07E
:10469800CF80E26D013202D0002F00F0C9801846A9
:1046A8003146FFF7B4FE29462060FFF7B0FE3946D1
:1046B8002060FFF7ACFE2060002800F0B980624B54
:1046C80098424BD103F55843DA6842F48042DA60E5
:1046D800DA6822F48042DA609A6942F480429A6188
:1046E8009B6903F480430393039B2523A4F860305C
:1046F8005149206DFFF74CFE1EB15049606DFFF720
:1047080047FE2DB14E49A06DFFF742FE4FF480756C
:104718002FB14C49E06D45F40075FFF739FE94F868
:1047280061204A4B271D43F8227023680022C4E900
:10473800013A0C2394F960000121C4E9039BC4E900
:104748000635C4F814802262FDF792F83846002E28
:1047580069D109B0BDE8F04FFEF7DFBE3C4B984287
:1047680015D103F5E6331A6942F400321A611A6961
:1047780022F400321A61DA6942F40032DA61DB6944
:1047880003F400330493049B4FF49373AEE7314B67
:10479800984215D103F5E4331A6942F480221A616C
:1047A8001A6922F480221A61DA6942F48022DA61F5
:1047B800DB6903F480230593059B40F2272395E7E3
:1047C800254B984215D103F5E2331A6942F40022C9
:1047D8001A611A6922F400221A61DA6942F4002285
:1047E800DA61DB6903F400230693069B4FF44D73EB
:1047F8007CE71A4B98427FF47BAF03F5E0331A69E4
:1048080042F480121A611A6922F480121A61DA6974
:1048180042F48012DA61DB6903F480130793079B83
:1048280040F2354362E709B0BDE8F04FFEF747BEF6
:1048380009B0BDE8F08F00BFF45C00087C5C00089C
:10484800285C0008D45B00080038014028030020D9
:104858000044004000480040004C00400050004028
:1048680010B410B110BCFFF7E7BE10BC70470000D1
:1048780008B5074B90F8612053F82200FFF72CF891
:1048880000F02200A0F122035842584108BD00BFA1
:104898002803002008B5074B90F8612053F8220040
:1048A800FFF71AF800F02100A0F1210358425841FF
:1048B80008BD00BF2803002070B50E46054610B994
:1048C8004FF0FF3070BDFFF7D3FF04460028F7D143
:1048D800294611F8623F0122337095F86100034BB5
:1048E80053F82000FFF717F82046EBE728030020CD
:1048F80038B50D460446B8B1FFF7BAFFA0B994F928
:104908006000A564FCF7F4FF94F86100074B04F11C
:10491800620153F820000122FEF7FDFF94F96000C0
:10492800BDE83840FCF7D6BF38BD00BF28030020DB
:1049380038B515460446B8B1C16490F96000FCF773
:10494800D7FFB4F87230A16E9BB294F86100194495
:10495800064BAAB253F82000FEF711FE94F9600046
:10496800BDE83840FCF7B6BF38BD00BF28030020BB
:1049780048B1436D013306D190F86120024B53F8DA
:104988002200FEF779BF70472803002048B1436D25
:10499800013306D190F86120024B53F82200FEF74C
:1049A80083BF704728030020436C04381847836C82
:1049B800043818471FB503680446186810F001004A
:1049C80013D0002200921A6800925B680093009B43
:1049D800201FFFF74DFF40BB0122204604F15E0176
:1049E80004B0BDE81040FEF796BF196811F0020147
:1049F80006D001901A6801925B680193019BE7E772
:104A08001A6812F0040206D002911A6802925B68D2
:104A18000293029BDCE719680907D9D503921A6843
:104A280003925B680393039BD2E704B010BD0000B8
:104A380008B52520FCF784FF024B1868BDE808403C
:104A4800FEF712BE28030020262008B5FCF778FFE1
:104A5800034B586818B1BDE80840FEF705BE08BD0D
:104A680028030020272008B5FCF76AFF034B986845
:104A780018B1BDE80840FEF7F7BD08BD28030020BF
:104A880008B53420FCF75CFF024BD868BDE8084045
:104A9800FEF7EABD2803002008B53520FCF750FFD3
:104AA800024B1869BDE80840FEF7DEBD2803002068
:104AB80003460A4910B508680344EFF30882934295
:104AC80005D90C224FF0FF30054B1A6010BD054A7E
:104AD800054C121B9342F4D20B60F7E7300000201C
:104AE8007404002000C0002000040000FEE700005D
:104AF8001622024B4FF0FF301A60704774040020F2
:104B08000120704730B591B02022002107A800F09D
:104B180021FD1422002101A800F01CFD012510230D
:104B28000224CDE90A534FF4E01306A806940D9425
:104B38000F93FEF7DBF800B1FEE70F23CDE9030082
:104B48000590294601A8CDE90134FEF7A5FA00B180
:104B5800FEE711B030BDB0F80431B0F80001181A02
:104B680000F03F007047B0F80431B0F800219BB264
:104B780093421ABFD0F8F830985C4FF0FF30704776
:104B880090F80231B0F80601C0B2834227BFC3F1E2
:104B98003F03C018C01A00F1FF30704707B503681B
:104BA8008DF8071001225B680DF10701984703B0E3
:104BB8005DF804FB13B50DF107010446FFF77CFE11
:104BC80090B9B4F87030B4F86C20013303F03F03A7
:104BD800934209D0B4F870209DF80700616E92B234
:104BE8009BB28854A4F8703002B010BDB0F872209F
:104BF80038B5436F134403F03F03A0F87230B0F8A0
:104C08007220B0F86E3092B293421BD0B0F8722086
:104C1800B0F8724095B203F14002521B534203F0C0
:104C28003F03A4B202F03F0258BF5A42C4F1400306
:104C38009A4228BF1A4604494267FFF779FE4FF0A7
:104C4800FF3038BD0020FCE7F54B000803682DE96C
:104C5800F0479B6804468846164698470123237404
:104C6800D4F8E830B4F8029101338246C9F140091A
:104C780004F1940708D194F80C312BB1002338467D
:104C880084F80C31FFF774FE236820469B68984728
:104C98000028F9D035464D4501D8554515D9D14597
:104CA80028BFD14623684A4641465B682046984754
:104CB800236820469B689847B4F80221A5EB0905AC
:104CC800C8448246C2F14009E5E7B4F80221D4F8A5
:104CD800FC005319402B104419D82A46414600F0CD
:104CE8002BFCA946B4F8023138461D4405F03F05AF
:104CF800A4F80251FFF7CEFD30B94A4638460B49B1
:104D0800C4F80891FFF714FE3046BDE8F087C2F1F9
:104D180040094A46414600F00FFCD4F8FC00A5EBD8
:104D2800090208EB090100F007FCDBE7F54B000876
:104D3800037C33B1B0F80221B0F806319BB29A4235
:104D4800FAD17047C0F8EC30009B914208BF4FF091
:104D5800FF31C0F8F03000F11103C0F8F83000233B
:104D6800C0E9392100F15102A0F80431C0E93F231C
:104D7800A0F8063170470000CBB26F2B08D80E4A56
:104D880001F4E06152F823301943C0F8E810704785
:104D980001F0C002C02A0CD1CF2B0AD8074B01F072
:104DA8003F0253F82220044B01F4E06153F822300B
:104DB800EAE74FF0FF31E8E7AC5D00086C5D0008FA
:104DC800CBB26F2B08D80E4A01F4E06152F82330B9
:104DD8001943C0F8E410704701F0C002C02A0CD192
:104DE800CF2B0AD8074B01F03F0253F82220044B7F
:104DF80001F4E06153F82230EAE74FF0FF31E8E7C9
:104E0800AC5D00086C5D000873B54FF47A73164604
:104E18000022C0E901231D4B044603604FF0FF3315
:104E2800C0F8E8301A4B0D46984215D1C321FFF758
:104E3800A3FFC221FFF7C4FF4FF0FF33012E08BFC5
:104E4800C4F8E8302046D4E9392100934FF0FF3305
:104E5800FFF778FF02B070BD0E4B0F499A680F4BF1
:104E680053F82200FFF7ACFA854202D1C32120464D
:104E7800DDE70B492846FFF7B4FA0749C4F8E8000C
:104E88002846FFF7AEFAC4F8E400D5E77C5F0008CF
:104E98003C0300206C5D0008F45C0008AC5D000871
:104EA8007C5C0008D0F8E83010B5013304460ED118
:104EB8000368DB68984794F80C3143B9012304F17F
:104EC800940084F80C31BDE81040FFF75FBD10BDB9
:104ED80002F00703023BDBB2042B37B50546C0F8E6
:104EE800101180F80D2196BF17480024C45C02F009
:104EF8003003302B0DD14FF4C063013412F0080F8A
:104F080014BF4FF400500020082C09D0092C18D0E9
:104F1800FEE712F020031CBF4FF480630134EDE775
:104F2800002205F1940400902046FFF799FC2846DA
:104F3800FFF7B8FF2046054903B0BDE83040FFF74A
:104F4800D7BC4FF48052ECE76C5F0008BD4B0008FB
:104F580010B50446FFF7A6FFB4F80421B4F80031F1
:104F680092B29A4217BFD4F8F8204FF0FF30D05CC5
:104F780001331CBF03F03F03A4F8003110BD00004B
:104F8800002202490248FFF73FBF00BF004400402B
:104F98003C0300202DE9F04105460C460E468F18CB
:104FA800BE42A6EB040807D02B6828461B6816F8F3
:104FB800011B98470028F3D14046BDE8F08170B541
:104FC80005460C46084649B1FBF70AF92B68024624
:104FD80021462846BDE870405B68184770BD08B593
:104FE800FFF7EDFF08BD03681B6818470023012A77
:104FF80098BF0A2230B58BB00C468DF8243009A929
:105008002546B4FBF2F404FB1253DBB2092B94BF20
:1050180030333733DBB2AA4201F8013DF0D9FFF74C
:10502800CEFF0BB030BD00002DE9F84F19460546FC
:10503800104692461F469DF82860FBF72FFD38B1B1
:105048004A492846FFF7BBFF04462046BDE8F88FCB
:1050580027F000444FF0FF3250462146444BFBF7FF
:105068001DFD48B94FF0FF3250462146404BFBF733
:10507800F7FC08B93F49E4E74FF06042504639462B
:105088003D4BFBF701FD08B13C49DAE74FF06042C0
:10509800504639463A4BFBF7D9FC0028F4D1002298
:1050A800002350463946FBF7D1FC044630B12D2188
:1050B8002846FFF798FF044607F100474FF0000B1A
:1050C80000204FF000082F49DFF8BC905FFA8BF3FF
:1050D8009E4206D942464B46FBF770FB0BF1010B8B
:1050E800F4E73B465246FBF789F889468046FBF7CA
:1050F800EBFC0746FBF7BEF902460B46404649461D
:10510800FBF77AF80A228046894628463946FFF78F
:105118006DFF0444002E98D02E212846FFF763FF28
:105128004FF0000ADFF860B00444002E8DD05B46D3
:10513800524640464946FBF717FA89468046FBF730
:10514800C3FC0A22014607462846FFF74FFF0444DE
:105158003846FBF78FF902460B4640464946FBF7AF
:105168004BF8013E80468946F6B2DEE7A05F0008AC
:10517800FFFFEF7FA45F0008FFFFEF41A85F000873
:10518800FFFFEFC10000E03F000024409DF8001041
:105198000091FFF749BF10B5044600F075F9E060CB
:1051A800236820465B699847002808DA00F06CF904
:1051B800E368C01AA3689842F2D34FF0FF3010BDDD
:1051C8002DE9F04107460C460D468E18B542A5EB71
:1051D800040807D03846FFF7DEFF031E02DB05F898
:1051E800013BF3E74046BDE8F0812DE9F041074671
:1051F800884616461D4673B100243846FFF7CBFF94
:10520800031E05DB434503D033550134A542F4D1D1
:105218002046BDE8F0811C46FAE708B50320FCF7F4
:1052280015FBBDE8084000F04FB908B5AFF30080A2
:10523800FBF78AFCFBF79CFC00F038F9FAE7000062
:10524800C0F30312062A034610B50ED80020084AF8
:10525800D9B252F8044B8C4203D103F4E0631843EB
:1052680010BD01307028F4D1FAE77020F8E700BFCC
:10527800AC5D00080C480D490D4A002302E0D458E3
:10528800C4500433C4188C42F9D30A4A0A4C002388
:1052980001E013600432A242FBD3FFF7C3F800F029
:1052A80017F9FFF7C2FF70470000002098000020A0
:1052B80030600008980000207C040020FEE7000011
:1052C800C3B26F2B2DE9F0410D462AD82C4A00F4C1
:1052D800E06052F823400443621C4ED0294EC4F3C8
:1052E800031756F8273004F00F0823FA08F3DB07F2
:1052F80010D520462449FEF77FFF18B32046FEF755
:10530800DFFC012303FA08F256F8273023EA0203E8
:1053180046F82730052D1FD8DFE805F01F2B252775
:10532800292D00F0C002C02A27D1CF2B25D8174B32
:1053380000F03F0253F82220114B00F4E06053F8CC
:105348002240C8E720461249FEF756FF0028D8D069
:105358002046FEF7CFFCD4E7FEE700212046BDE853
:10536800F041FEF759BF1021F8E72021F6E70321A5
:10537800F4E70121F2E70921F0E7BDE8F08100BF79
:10538800AC5D000850040020645900086C5D0008FA
:10539800E8590008C3B26F2B19D8184A00F4E06026
:1053A80052F823301843C0F30313062B98BF144A4E
:1053B80000F00F0098BF52F82320124B88BF00223C
:1053C80053F82030C3F30F23A9B11361704700F0DD
:1053D800C002C02A0CD1CF2B0AD80B4B00F03F02D9
:1053E80053F82220054B00F4E06053F82230D9E747
:1053F8004FF0FF30D7E75361704700BFAC5D00083E
:10540800080000200C5900086C5D0008C3B26F2B1F
:105418000CD8194A00F4E06052F823301843C0F35E
:105428000313062B16D900239B68FFDE00F0C00289
:10543800C02A0CD1CF2B0AD8104B00F03F0253F8EA
:1054480022200D4B00F4E06053F82230E6E74FF0DD
:10545800FF30E4E70A4A00F00F0052F82330094A07
:105468009B6852F82020D84300EA122080B2B0FA94
:1054780080F04009704700BFAC5D00086C5D000813
:10548800080000200C590008FEF786BCFEF760BC37
:1054980038B5044648B1FEF77FFC054600F016F81B
:1054A800FEF77AFC431BA342F8D338BD08B5044B7A
:1054B8002BB10448FFF74FFB08B1AFF3008008BDDC
:1054C800000000003C030020FEF7B2BC704700005B
:1054D80070B500260C4D0D4C641BA410A64209D1D2
:1054E80000F0C8F900260A4D0A4C641BA410A64215
:1054F80005D170BD55F8043B98470136EEE755F8DD
:10550800043B98470136F2E70C6000080C6000087D
:105518000C60000824600008024B0146186800F07F
:1055280089B800BF34000020024B0146186800F01B
:1055380019B800BF340000200A44914200F1FF333B
:1055480000D1704710B511F8014B914203F8014F93
:10555800F9D110BD03460244934200D1704703F8C5
:10556800011BF9E738B50546002940D051F8043C3D
:105578000C1F002BB8BFE41800F0EAF81C4A1368A7
:1055880033B9636014602846BDE8384000F0E6B8D7
:10559800A34208D9206821188B4201BF19685B68AB
:1055A80009182160EDE71A465B680BB1A342FAD9E6
:1055B80011685018A0420BD120680144501883424A
:1055C8001160E0D118685B68014411605360DAE744
:1055D80002D90C232B60D6E7206821188B4201BF23
:1055E80019685B680918216063605460CBE738BDAF
:1055F8006C04002070B50E4E0C463168054611B992
:1056080000F094F830602146284600F08FF8431CDB
:105618000AD0C41C24F00304A04207D0211A28464B
:1056280000F084F8013001D14FF0FF34204670BDFE
:10563800700400202DE9F041CD1C25F00305083544
:105648000C2D38BF0C25002D074601DBA94205D9D2
:105658000C2300263B603046BDE8F0812E4E00F05A
:1056680077F833681C4634BB29463846FFF7C2FF33
:10567800431C04464DD134682646002E40D1236889
:105688003146384604EB030800F050F880453AD11B
:10569800216803356D1A25F0030508350C2D38BF30
:1056A8000C2538462946FFF7A5FF01302BD0236883
:1056B8002B4423600EE02268521B1ED40B2A16D9F5
:1056C8006119A342256018BF5960636808BF31603B
:1056D80062514B60384604F10B0600F03FF826F0A3
:1056E8000706231DF21AB6D09B1BA350B3E76268C6
:1056F800A3420CBF32605A60ECE723466468B2E705
:1057080034467668B9E70C2338463B6000F026F843
:10571800A1E72560DEE700BF6C040020024B0A46C3
:105728000146186800F020B83400002038B500237E
:10573800054D044608462B60FFF7BAF9431C02D111
:105748002B6803B1236038BD74040020704770478C
:105758000148FFF7FBBF00BF780400200148FFF7AE
:10576800F6BF00BF780400202DE9F04180461446BA
:105778000E4621B91146BDE8F041FFF75BBF2AB9D3
:10578800FFF7F0FE25462846BDE8F08100F022F834
:105798008442074602D8B4EB500F12D8214640463F
:1057A800FFF748FF05460028EDD0BC4222463146A7
:1057B80028BF3A46FFF7C0FE31464046FFF7D2FE03
:1057C800E1E73546DFE7062008B500F033F80120A9
:1057D800FFF78CF951F8043C181F002BBCBF0B587D
:1057E800C01870471F2938B504460D4604D916233A
:1057F80003604FF0FF3038BD426C12B152F82130CF
:105808004BB9204600F030F82A4601462046BDE84C
:10581800384000F017B8012B0AD0591C03D11623C1
:1058280003600120E7E70024284642F8254098470E
:105838000020E0E7024B01461868FFF7D3BF00BF1E
:105848003400002038B50023064D044608461146AA
:105858002B60FFF74DF9431C02D12B6803B123607D
:1058680038BD00BF74040020FFF74AB908B5FFF738
:10587800AAFF0000F8B500BFF8BC08BC9E467047F8
:0C588800F8B500BFF8BC08BC9E46704795
:10589400000000004000000014000000540000005C
:1058A40054656D3A00430048756D3A0020250000A8
:1058B4000000000000000000690E00089D4F000871
:1058C400810D0008850D00080000000000000000A4
:1058D40067110008A9110008810D0008451200088D
:1058E40029100008311000084B100008C9510008A5
:1058F400F351000802030405060708090A0B0C0DFE
:105904000E0F101000000000010100000202000050
:10591400040400000808000010100000202000000B
:1059240040400000808000000100010402000204E5
:1059340004000404080008041000100420002004DB
:1059440040004004800080040000000000000000CB
:105954000102030406070809000000000102030411
:1059640004000000007400400380000005000000F3
:105974000074004003000100FFFFFFFF000000006F
:105984000000000016000000005400400A0400005B
:1059940018000000005400400A0300001A00000030
:1059A400005800400A000000FFFFFFFF0000000055
:1059B4000000000017000000005400400A0400002A
:1059C40019000000005400400A0300001B000000FE
:1059D400005800400A000000FFFFFFFF0000000025
:1059E40000000000000000000000004012800000E1
:1059F40000010000000000401290000000020000BE
:105A0400000C004012800000010000000000004073
:105A140012120100010100000000004012100100F8
:105A240001020000000C004012000100020000000E
:105A3400000000401292010002010000000000403A
:105A44001291010002020000000C004012800100CB
:105A540003000000000000401212020003010000D5
:105A6400000000401211020003020000000C00407C
:105A7400120002000600000000040040129500001D
:105A84000700000000040040121501000F00000090
:105A940000000040129100000F01000000000040CF
:105AA400128F000010000000000400401295010055
:105AB40010010000000400401294010011000000D5
:105AC400000400401215020011010000000400400F
