:020000040800F2
:1000000000800020BD240008052500080525000803
:10001000052500080525000805250008000000004A
:10002000000000000000000000000000052500089E
:100030000525000800000000052500081F1600081F
:1000400005250008052500080525000805250008E8
:1000500005250008052500080117000807170008F6
:100060000D170008131700081917000805250008C8
:1000700005250008052500080525000805250008B8
:1000800005250008052500080525000800000000DA
:100090000000000000000000000000001F17000822
:1000A000B5130008DD120008C91300080113000889
:1000B00015130008291300083D1300080525000842
:1000C0000525000805250008052500080525000868
:1000D000052500087123000889230008A5230008CE
:1000E0003517000805250008052500088D130008B0
:1000F00005250008A1130008000000000000000012
:100100000000000000000000511300080525000851
:10011000C1230008D92300086513000879130008DB
:100120000525000805250008052500080525000807
:10013000052500080000000000000000000000008D
:1001400000000000000000000000000000000000AF
:10015000000000000000000000000000000000009F
:10016000000000000000000000000000000000008F
:10017000000000000000000000000000000000007F
:10018000000000000000000000000000000000006F
:10019000000000000000000000000000000000005F
:1001A000000000000000000000000000000000004F
:1001B000000000000000000000000000000000003F
:1001C000000000000000000000000000000000002F
:1001D000000000000000000000000000000000001F
:0401E0005FF808F1CB
:1001E40010B5054C237833B9044B13B10448AFF36D
:1001F40000800123237010BD98000020000000003F
:10020400C82D000808B5034B1BB103490348AFF3DD
:10021400008008BD000000009C000020C82D0008DC
:1002240008B50121662002F06DF9BDE808400121FE
:10023400672002F067B908B50021662002F0CCF906
:100244004FF47A7002F006FA0021672002F0C4F934
:100254004FF47A7002F0FEF90121672002F0BCF934
:100264004FF47A7002F0F6F96620012102F0B4F935
:10027400BDE808404FF47A7002F0ECB97047000012
:1002840038B50E4B054618784FF47A73B3FBF0F388
:100294000B4A1068B0FBF3F000F09AF8044658B922
:1002A4000F2D09D8024629464FF0FF3000F03CF8E4
:1002B4002046044B1D6038BD0120FCE700000020EF
:1002C4002C0000200400002008B5032000F01AF8D8
:1002D4000020FFF7D5FFFFF7D1FF002008BD000085
:1002E400034A044B11681B780B441360704700BF2A
:1002F400B400002000000020014B1868704700BFC4
:10030400B400002007490302CA6803F4E06322F43E
:10031400E0621204120C134343F0BF6343F400334E
:10032400CB60704700ED00E0164B30B5DC68C4F3D9
:100334000224C4F10703251D042B28BF0423062D22
:100344004FF0FF3598BF002405FA03F388BF033C40
:1003540021EA0303A34005FA04F422EA0402002874
:1003640043EA0203ACBF00F16040074A4FEA0313BB
:10037400DBB2ABBF00F5614000F00F0080F8003342
:10038400135430BD00ED00E014ED00E0002808DB5C
:100394000123420900F01F0003FA00F0014B43F867
:1003A4002200704700E100E000280DDB0122430930
:1003B40000F01F0002FA00F0044A203342F8230040
:1003C400BFF34F8FBFF36F8F704700BF00E100E0B2
:1003D4000138B0F1807F0BD24FF0E023F021054AC1
:1003E400586182F823100020072298611A6170472F
:1003F4000120704700ED00E0002809DB01224309D9
:1004040000F01F0002FA00F0024A603342F82300B1
:10041400704700BF00E100E0704708B5FFF7FCFF3C
:1004240008BD704710B5044650B1437903F0FF028C
:1004340013B90271FFF7F5FF01230020637110BDAA
:100444000120FCE710B5044640B10223037101F01A
:1004540083F8002020616071207110BD0120FCE749
:10046400012210B5046801F01001236802FA01F1B9
:1004740023EA010121600271002010BD90F82130AF
:10048400022B06D004238363002380F8203001204C
:10049400704703681A6822F00E021A601A6822F084
:1004A40001021A600123D0E90F218B4053604FF4FD
:1004B400807303840020704708B590F82130022B24
:1004C40003D004238363012008BD036843491A68E9
:1004D40022F00E021A601A6822F001021A60404AE1
:1004E400934241D98B4238D014318B4237D01431E6
:1004F4008B4236D014318B4223D014318B4223D01B
:1005040014318B4223D0934224D002F56272934279
:1005140023D01432934222D01432934221D0143285
:10052400934214BF4FF480334FF480532D4A5360E9
:100534004FF480730384436B002B4DD09847002005
:10054400C2E74FF48053F1E74FF48033EEE74FF402
:100554008013EBE74FF08073E8E70123E6E710230D
:10056400E4E74FF48073E1E78B422ED01E498B42BF
:100574002DD014318B422CD014318B4219D014312C
:100584008B4219D014318B4219D093421AD0174A96
:1005940093421AD01432934219D01432934218D091
:1005A4001432934214BF4FF480334FF48053104AF3
:1005B400BDE74FF48053FAE74FF48033F7E74FF485
:1005C4008013F4E74FF08073F1E70123EFE7102382
:1005D400EDE74FF48073EAE7184675E70800024038
:1005E40080000240000402401C0002400804024053
:1005F40000000240044A08B55169014202D050612A
:1006040001F066F808BD00BF000401402DE9F34184
:10061400054638B30368DB0710D42B689F075ED404
:100624002B68190700F195802B685A0700F1C180E7
:10063400E869002840F02C81002029E0904C636890
:1006440003F00C03042B07D0636803F00C03082B9E
:100654000AD16368DE0307D523689C03DDD56B6884
:10066400002BDAD1012013E06B68B3F5803F12D17F
:10067400236843F480332360FFF73EFE0646236875
:100684009803CAD4FFF738FE801B6428F7D90320E7
:1006940002B0BDE8F0819BB9236823F48033236062
:1006A400236823F480232360FFF726FE064623688D
:1006B4009903B2D5FFF720FE801B6428F7D9E6E73B
:1006C400B3F5A02F236803D143F480232360CFE73D
:1006D40023F480332360236823F48023CBE7684C1E
:1006E400636813F00C0F07D0636803F00C03082B46
:1006F40010D16368DA030DD423689B0702D52B69F4
:10070400012BAFD123686A6923F0F80343EAC203DB
:10071400236085E72A695B4B6AB101221A60FFF7FF
:10072400EBFD064623689F07ECD4FFF7E5FD801B2D
:100734000228F7D9ABE71A60FFF7DEFD0646236807
:1007440098077FF56DAFFFF7D7FD801B0228F6D918
:100754009DE7AA694A4E4B4BE2B10122C3F88024BB
:10076400FFF7CAFD0446736A9B070DD54FF4FA528E
:10077400454B1B68B3FBF2F3019300BF019B5A1E68
:100784000192002BF9D14FE7FFF7B6FD001B0228B9
:10079400E9D97CE7C3F88024FFF7AEFD0446736A09
:1007A4009F077FF541AFFFF7A7FD001B0228F6D98D
:1007B4006DE7334CE369D80024D40127E36943F09F
:1007C4008053E361E36903F080530093009B2F4E51
:1007D4003368D90518D5EB68012B26D1236A43F079
:1007E40001032362FFF788FD41F288380646236A35
:1007F4009B073FD5002F3FF41BAFE36923F08053E1
:10080400E36115E70027E2E7336843F4807333605C
:10081400FFF772FD80463368DA05DCD4FFF76CFD20
:10082400A0EB08006428F6D931E7ABB9236A41F29A
:10083400883823F001032362236A23F0040323622C
:10084400FFF75AFD0646236A9807D3D5FFF754FDF0
:10085400801B4045F7D91AE7052B236A03D143F0DF
:1008640004032362BAE723F001032362236A23F01B
:100874000403B6E7FFF740FD801B4045B7D906E700
:1008840000100240000042422C0000200070004092
:100894002A4C636803F00C03082B3ED00022284B3B
:1008A40002281A662CD1FFF727FD06462368990112
:1008B40020D42B6AB3F5803F05D1E26AA96822F0FF
:1008C4000F020A43E262696A62680B4322F47412FB
:1008D4001343012263601A4B1A66FFF70DFD0546A8
:1008E40023689A013FF5A8AEFFF706FD401B0228D6
:1008F400F6D9CCE6FFF700FD801B0228D6D9C6E660
:10090400FFF7FAFC054623689B017FF595AEFFF7D8
:10091400F3FC401B0228F6D9B9E601283FF4B8AE2F
:1009240063682A6A03F4803191427FF49BAE6A6A59
:1009340003F4701393423FF47FAE93E60010024039
:100944000000424230B589B06C461B4B03F11005E0
:10095400224618685968083303C2AB421446F7D1DB
:10096400164B04AC03F11005224618685968083385
:1009740003C2AB421446F7D111494B6803F00C0291
:10098400082A17D1C3F3834220326A44DB0312F8E6
:10099400200C0CD5CB6A0B4A03F00F0350432033D1
:1009A4006B4413F8103CB0FBF3F009B030BD064BB8
:1009B4005843FAE70348F8E7E02D0008F12D000852
:1009C4000010024000127A0000093D00F8B5054607
:1009D40008B90120F8BD0268304C12F0020F11D0A2
:1009E400570742BF636843F4E0636360160742BF7E
:1009F400636843F4605363606368816823F0F003C1
:100A04000B436360D0071BD42A6851073FD41307F4
:100A140006D563682A6923F4605343EAC20363601A
:100A2400FFF790FF63681E4AC3F30313D35CD840F7
:100A34001C4B18601C4B1868FFF722FC0020C9E708
:100A44006A682368012A1AD113F4003FC1D063688D
:100A540041F2883723F0030313436360FFF74CFC30
:100A6400064663686A6803F00C03B3EB820FCBD0CD
:100A7400FFF742FC801BB842F3D90320AAE7022AFD
:100A840002D113F0007FE1E713F0020FDEE76368A1
:100A9400E96823F4E0630B436360B8E700100240A5
:100AA400442E00082C0000200400002070477047EA
:100AB400036810B51A69044691070ED5DA689207DF
:100AC4000BD56FF002021A61012202779B699B0722
:100AD40077D000F0B9FC0023237723681A69500704
:100AE40010D5DA6851070DD56FF004021A6102229D
:100AF40022779B69204613F4407F68D000F0A4FC61
:100B04000023237723681A6912070FD5DA681007C0
:100B14000CD56FF008021A6104222277DB692046A3
:100B240099075AD000F090FC0023237723681A69B0
:100B3400D20610D5DA68D0060DD56FF010021A610E
:100B440008222277DB69204613F4407F4BD000F063
:100B54007BFC0023237723681A69D10708D5DA6858
:100B6400D20705D56FF0010220461A6100F049FC56
:100B740023681A69100608D5DA68110605D56FF0DE
:100B8400800220461A6100F0C8F823681A695206E8
:100B940008D5DA68500605D56FF0400220461A6180
:100BA400FFF785FF23681A69910622D5DA68920651
:100BB4001FD56FF020022046BDE810401A6100F0F6
:100BC400ABB800F03FFC2046FFF770FF83E700F06E
:100BD40039FC2046FFF76AFF92E700F033FC204619
:100BE400FFF764FFA0E700F02DFC2046FFF75EFF4F
:100BF400AFE710BD304A036890420ED0B0F1804F89
:100C04000BD0A2F59432904207D002F58062904254
:100C140003D002F58062904215D14A6823F0700334
:100C24001343254A904225D0B0F1804F22D0A2F53B
:100C3400943290421ED002F5806290421AD002F59E
:100C44008062904216D01D4A904213D002F5806211
:100C540090420FD002F5806290420BD002F59032A0
:100C6400904207D002F58062904203D002F5806280
:100C7400904203D1CA6823F4407313434A6923F0B2
:100C84008003134303608B68C3620B6883620A4B5F
:100C940098420BD003F5A053984207D003F5806324
:100CA400984203D003F58063984201D10B69036332
:100CB40001234361704700BF002C0140001800402D
:100CC40010B5044630B390F83D3003F0FF021BB971
:100CD40080F83C2001F07EFA0223206884F83D303D
:100CE400211DFFF787FF0123002084F8463084F894
:100CF4003E3084F83F3084F8403084F8413084F842
:100D0400423084F8433084F8443084F8453084F821
:100D14003D3010BD0120FCE7704770470368DA6876
:100D240022F49072DA605A6922F001025A61026B6D
:100D3400012A02BFDA6822F01002DA60202380F868
:100D44003E3000230363704790F83D30202B18D1C8
:100D5400A9B1A2B190F83C30012B12D0C284002377
:100D64008284212201620168036480F83C3080F8A7
:100D74003D20CA68184642F08002CA6070470120CC
:100D840070470220704708B50023406AC385C384B6
:100D940001F0AEFA08BD704707B58168836AB1F502
:100DA400805F026834D10169002934D15268C2F3EA
:100DB400080223F8022BC28D8362013A92B2C285E3
:100DC4001ABB0368D96821F02001D960D96821F4DD
:100DD4008071D960596921F001015961202180F89D
:100DE4003E10016B012920D10263D96821F0100162
:100DF400D9601968C90605D501921A6801925B6821
:100E04000193019B818DFFF7C6FF03B05DF804FBDE
:100E140039B9016929B95268D2B21A70836A0133A7
:100E2400C9E7526802F07F02F7E701F05BFAECE7EA
:100E3400036837B51A68044612F00F0FD9685D6964
:100E44000CD1950667D58D0665D590F83E30222BDA
:100E54005BD103B0BDE83040FFF79EBF05F0010051
:100E640001F49075054356D0D50705D5CB0542BF8F
:100E7400236C43F001032364550704D518B1236C94
:100E840043F002032364930704D518B1236C43F0A1
:100E940004032364150707D501F0200303431EBF91
:100EA400236C43F008032364236C73B3920608D5C0
:100EB4008B0606D594F83E30222B02D12046FFF74C
:100EC4006BFF236820465B69256C03F0400305F043
:100ED40008051D431BD0FFF721FF23685A695506F7
:100EE40010D55A69A06B22F040025A6150B1534B9D
:100EF4004363FFF7E1FA40B1A06B436B03B0BDE875
:100F040030401847204601F0F3F903B030BD01F03A
:100F1400EFF92564F9E7206B012855D1D00653D5A4
:100F2400CD0651D5002101911A6801925A680192A7
:100F3400019A5A6912F040022AD0A06B02685268E2
:100F440092B2002AE1D0A58D9542DED9E28582696C
:100F5400202A15D0DA6822F48072DA605A6922F005
:100F640001025A615A6922F040025A61202284F82F
:100F74003E202163DA6822F01002DA60FFF77EFA7D
:100F8400E38DA18DC91A89B22046FFF704FFBCE79F
:100F9400E18D88B2E18D89B20029B6D0A18D091AFC
:100FA40089B20029B1D0D86820F49070D86058690B
:100FB40020F001005861202084F83E002263DA68A2
:100FC40022F01002DA60DFE7100626D50D0624D5DC
:100FD40094F83D20212A98D1A168226AB1F5805F56
:100FE40016D12169A1B932F8021BC1F30801596075
:100FF4002262E28C013A92B2E284002A85D1DA6854
:1010040022F08002DA60DA6842F04002DA607CE7BB
:10101400511C216212785A60EBE750067FF575AFD8
:101024004A067FF572AFDA68204622F04002DA60A1
:10103400202384F83D3001F058F966E78B0D000851
:1010440090F83C30012B11D02423026880F83D3005
:10105400D36823F00C0343F00803D360202380F803
:101064003D30002380F83C3018467047022070471A
:1010740090F83C30012B11D02423026880F83D30D5
:10108400D36823F00C0343F00403D360202380F8D7
:101094003D30002380F83C301846704702207047EA
:1010A40090F83D2090F83E0010437047C285828539
:1010B4008162034622220020186483F83C0083F8EE
:1010C4003E201B68DA6842F48072DA605A6942F0A2
:1010D40001025A61DA6842F02002DA60704770B4A3
:1010E40090F83E60202E10D161B15AB190F83C4086
:1010F400012C0AD0012480F83C400024046370BC15
:10110400FFF7D4BF012070BC70470220FBE783685F
:1011140010B504462BB10322014698470023C4E9C5
:10112400023310BD836810B5044613B1032201468F
:101134009847204610BD0000234A034690422BD016
:10114400B0F1804F2AD0A2F59432904228D002F513
:101154008062904226D002F58062904224D04FF6FD
:10116400FF701A4A934221D0194A934220D0194A57
:1011740093421FD002F5806293421DD0164A9342D7
:101184001CD0164A93421BD0154A93421AD0154AD2
:10119400934208BF0C2070470020E2E70120E0E7FB
:1011A4000220E1E70320E2E70420E7E70520E8E77F
:1011B4000620E9E70720EAE708207047092070477E
:1011C4000A2070470B207047002C0140001000409B
:1011D400001400400018004000200040004001407E
:1011E4000044014000480140014670B5044651F8EE
:1011F400100FFFF7A1FF0546084600F0ADFE0023DF
:10120400084A04F1600642F82530E36004F1B005B1
:10121400B54204D0103D2846FFF784FFF8E7204686
:1012240070BD00BFB8000020F8B504460846FFF7BB
:1012340083FF4FF6FF73984200D1FEE7236903B1A1
:10124400FEE71C4D04F10C0245F820200E2204F1A7
:1012540010063046C4E90C33C4E90E33C4E9103334
:10126400C4E91623216184F82C30A36484F84C303B
:1012740084F84D30E46000F0A1FD04F1600504F150
:10128400B00728461035FFF742FFBD42F9D10023CD
:101294004FF6FF72C4E90033C4E90632C4E90833E7
:1012A400A360636180233046A362BDE8F840FFF782
:1012B40007BD00BFB8000020002310B504468366B4
:1012C4008367C0F88830C0F89830C0F8A83003614C
:1012D400FFF7AAFF204610BD10B5074C206810B1D7
:1012E4000430FFF7E5FBE06A20B1BDE810400430AC
:1012F400FFF7DEBB10BD00BFB8000020034B186829
:1013040010B10430FFF7D4BB704700BFB800002011
:10131400034B586810B10430FFF7CABB704700BFD5
:10132400B8000020034B986810B10430FFF7C0BB2D
:10133400704700BFB8000020034BD86810B10430D8
:10134400FFF7B6BB704700BFB8000020034B186915
:1013540010B10430FFF7ACBB704700BFB8000020E9
:10136400034B586910B10430FFF7A2BB704700BFAC
:10137400B8000020034B986910B10430FFF798BB04
:10138400704700BFB8000020034BD86910B1043087
:10139400FFF78EBB704700BFB8000020034B586AAC
:1013A40010B10430FFF784BB704700BFB8000020C1
:1013B400034B986A10B10430FFF77ABB704700BF43
:1013C400B8000020034B186B10B10430FFF770BB5A
:1013D400704700BFB8000020826810B50AB901F058
:1013E400EDFCC368BDE81040184708B500B9FEE736
:1013F40000F0E2FC0068836E13B16030FFF7ECFF8D
:1014040008BDFFF7F2BF10B500B9FEE7037F013B4B
:10141400072B10D8DFE803F014040F100F0F0F127E
:10142400022400F0C9FC0068063400EB0410836851
:101434000BB1FFF7D1FF10BD0324F2E70424F0E75A
:101444000124EEE7FFF7DFBFFFF7DDBF01F04ABB82
:1014540001F050BB88B006285AD8DFE800F0041128
:101464001D2935414D002B4B2B489A6942F004024B
:101474009A619B6903F004030193019B08B07047D0
:10148400244B26489A6942F008029A619B6903F04A
:1014940008030293029BF1E71E4B21489A6942F02C
:1014A40010029A619B6903F010030393039BE5E721
:1014B400184B1C489A6942F020029A619B6903F018
:1014C40020030493049BD9E7124B17489A6942F00E
:1014D40040029A619B6903F040030593059BCDE7A5
:1014E4000C4B12489A6942F080029A619B6903F09E
:1014F40080030693069BC1E7064B0D489A6942F4A4
:1015040080729A619B6903F480730793079BB5E724
:101514000020B3E70010024000080140000C014025
:10152400001001400014014000180140001C01405B
:101534000020014008B5074900F011FCC0F3C43095
:10154400012802D0022802D0FEE7002008BD1020A6
:10155400FCE700BF542E00080268094B9A420DD1E3
:1015640003F5CE331A6942F000521A611A6922F067
:1015740000521A61DA6922F00052DA61704700BF42
:101584000074004010B50B4986B0044600F0C5FB5A
:10159400019060B12046FFF7CDFF30F01003014603
:1015A40005D101A8FEF75CFF01A8FEF74BFF06B0CA
:1015B40010BD00BF542E0008F8B51449064600F0CB
:1015C400ACFBFFF7B9FD124D044655F8203073B952
:1015D4000E49304600F0A1FB0746B020FFF736FF66
:1015E40006463946FFF768FE55F824301E6055F864
:1015F40024301C6844B12046FFF7F6FD2046BDE8C0
:10160400F840B021FFF724BFF8BD00BF782E0008D2
:10161400B8000020FEF770BE704708B5FEF760FE04
:10162400FEF7FBFEFFF7F8FF08BD70470F4B84B0D1
:10163400DA6942F08052DA61DA6902F0805201928A
:10164400019A9A6942F001029A619A6902F00102D0
:101654000292029A5A6942F040025A615B6903F0AD
:1016640040030393039B04B0704700BF0010024083
:101674000C4BD3F8FC20D2015EBFD3F8FC2042F01F
:101684008072C3F8FC200022074B5A601A6842F0AB
:1016940001021A6000BF00BF00BF5868B0FA80F0B2
:1016A4004009704700ED00E0001000E008B5FFF7C6
:1016B400BDFFFFF7DDFFFEF707FEFFF7B6FF00F003
:1016C400BFFEBDE808400148FEF7ACBE2400002080
:1016D4000023012803F1010202D013464008F8E771
:1016E4001421DBB24B43044A181D1044816811B124
:1016F40013441B6918477047EC0000200120FEF7D3
:1017040079BF0220FEF776BF0420FEF773BF0820DE
:10171400FEF770BF1020FEF76DBF38B505242025F5
:10172400A8B2FEF767FF013C4FEA4505F8D138BD82
:1017340038B506244FF48065A8B2FEF75BFF013C80
:101744004FEA4505F8D138BD0721204B062219750B
:10175400082183F82810092183F83C100A2183F812
:10176400501017211A7083F86410002283F878103F
:1017740083F88C1083F8A01083F8B4102821DA6061
:101784001A625A639A64DA651A67C3F88420C3F844
:101794009820C3F8AC20C3F8C02083F8C810C3F85D
:1017A400D42083F8DC10C3F8E82083F8F010C3F8E1
:1017B400FC2083F80411C3F8102183F81811C3F82E
:1017C400242183F82C11C3F838217047EC00002041
:1017D40038B5054CA4F5A075143C201DFFF7A2FCF8
:1017E400AC42F9D138BD00BF2C0200209F4B82B01F
:1017F4009A69013842F001029A619B6903F001037E
:101804000193019B3B2844D8DFE810F03C004500DD
:101814004C00530058005F0064006B0070007700B8
:10182400800085008C0095009A00A100AA00B300F6
:10183400B800BF00C800CD00D400430043004300FB
:10184400D900E000E500EC004300430043004300FE
:10185400F100F600FD0004010B01110116011B014A
:10186400200125012A01340139013E0143014801C7
:101874004D01520157015C01610166016B01700168
:1018840075017A017A4A536843F0E06343F0010337
:10189400536002B07047764A536823F0010343F063
:1018A400E063F5E7724A536843F0E06343F00203F0
:1018B400EEE76F4A536823F00203F0E76C4A53687B
:1018C40043F0E06343F00403E2E7694A536823F01A
:1018D4000403E4E7664A536843F0E06343F0080313
:1018E400D6E7634A536823F00803D8E7604A53688D
:1018F40043F0E06343F03003CAE75D4A536823F0E2
:10190400300343F0E06343F01003C1E7584A5368DF
:1019140023F03003C3E7564A536843F0E06343F0CF
:10192400C003B5E7524A536823F0C00343F0E063B1
:1019340043F04003ACE74E4A536823F0C003AEE7DC
:101944004B4A536843F0E06343F44073A0E7484ACA
:10195400536823F4407343F0E06343F4007397E760
:10196400434A536823F4407343F0E06343F48073C1
:101974008EE73F4A536823F4407390E73C4A536828
:1019840043F0E06343F4406382E7394A536823F445
:10199400406343F0E06343F4006379E7344A5368F7
:1019A40023F440637BE7324A536843F0E06343F433
:1019B40080536DE72E4A536823F480536FE72C4A13
:1019C400536843F0E06343F4004361E7284A5368F3
:1019D40023F4004363E7264A536843F0E06343F487
:1019E400803355E7224A536823F4803357E7204A6B
:1019F400536823F0E0634BE71D4A536823F0E06328
:101A040043F0807344E71A4A536823F0E06343F0D9
:101A140000733DE7164A536823F0E06343F08063A4
:101A240036E7134AD36943F48073D36131E7104A2C
:101A3400D36923F48073F8E70D4AD36943F4007340
:101A4400F3E70B4AD36923F40073EEE7084AD3693A
:101A540043F48063E9E7064AD36923F48063E4E747
:101A6400034AD36943F00103DFE700BF00100240DB
:101A740000000140254AD36923F00103D5E7234A36
:101A8400D36943F00203D0E7204AD36923F0020369
:101A9400CBE71E4AD36943F00403C6E71B4AD36964
:101AA40023F00403C1E7194AD36943F00803BCE7F0
:101AB400164AD36923F00803B7E7144AD36943F0FD
:101AC4001003B2E7114AD36923F01003ADE70F4ABC
:101AD400D36943F40063A8E70C4AD36923F4006391
:101AE400A3E70A4AD36943F480539EE7074AD369BC
:101AF40023F4805399E7054AD36943F4005394E7E8
:101B0400024AD36923F400538FE700BF0000014069
:101B140091FAA1F3B3FA83F370B50D0E0F2691FA7F
:101B2400A1F1B1FA81F144599B0006FA03F389004B
:101B340024EA030402FA01F12143415170BD91FAF0
:101B4400A1F3B3FA83F370B50D0E042691FAA1F153
:101B5400B1FA81F144599B0006FA03F3890024EA9F
:101B6400030402FA01F12143415170BD431C04D026
:101B74000C3151F80C3C5A1C01D1002070478342AF
:101B840001F10C01F5D1012070470000431C2DE93F
:101B9400F34106460F4600D1FEE7574B00F00F0213
:101BA400C0F3031001F0070853F82240FFF752FC7A
:101BB400B8F1010F054643D194FAA4F3B3FA83F3C1
:101BC4000321200E2A589B0001FA03F322EA03039F
:101BD40094FAA4F2B2FA82F29200914001220B43E9
:101BE4002B502146284608F1FF38FFF791FFB8F142
:101BF400010F06D817F0080218BF04222146FFF788
:101C04009EFF94FAA4F2230EE958B2FA82F39A00E2
:101C14000F23934094FAA4F2B2FA82F2C7F30117A5
:101C24000B409200012F23FA02F321D0022F4AD055
:101C3400082B30D1042221462846FFF769FF2AE009
:101C4400C7F30620B8F1030F03D8DFE808F0050F47
:101C54000903FEE70022C4E7FFF7C8FD0822C0E736
:101C64007F2801D0FFF7C2FD0922BAE74246B8E750
:101C7400042B04D1082221462846FFF749FFEA68CD
:101C8400230A22EA142293FAA3F30124B3FA83F376
:101C94009C401443EC60194B9A6942F001029A612A
:101CA4009B6903F001030193019BA6F10D03012B32
:101CB40015D8134A536823F0E06343F080635360FC
:101CC40002B0BDE8F081042B04D108222146284645
:101CD400FFF71EFFEB6823EA1423EB60DBE70F2E0C
:101CE40002D0133E012EEBD8054A536823F0E0637B
:101CF40043F00073E3E700BF042E00080010024025
:101D0400000001400B685A1C01D100207047834237
:101D140001D1486870470C31F4E7431C01D0FFF748
:101D2400F1BF002070474B6813B94FF0FF30704784
:101D3400834201D1086870470C31F4E708B1FFF71A
:101D4400F2BF4FF0FF30704703460868421C00D1D1
:101D54007047984201D1886870470C31F5E7431CFD
:101D640001D0FFF7F1BF7047104B1A6842F001022F
:101D74001A6059680E4A0A405A601A6822F084723E
:101D840022F480321A601A6822F480221A605A6897
:101D940022F4FE025A604FF41F029A600022DA62B3
:101DA4004FF00062034B9A60704700BF001002407E
:101DB4000000FFF800ED00E0043870470368594A5A
:101DC4008EB0934225D102F56442916941F40061D9
:101DD4009161926902F400620192019A524A93421B
:101DE40050D1524AD16941F01001D161D26902F057
:101DF40010020692069A4E4A934250D14B4B9A696E
:101E040042F480329A619B6903F480330B930B9BF9
:101E14006DE0B3F1804F20D0464A934228D0464A21
:101E240093424AD0454A9342D8D1404AD16941F0BD
:101E34000801D161D26902F008020592059A404A6C
:101E44009342D8D1394BDA6942F48072DA61DB69A2
:101E540003F480730A930A9B49E0344AD16941F040
:101E64000101D161D26902F001020292029AB5E73E
:101E74002E4AD16941F00201D161D26902F0020215
:101E84000392039A2F4A934221D1284AD16941F0FF
:101E94002001D161D26902F020020792079A2A4AEE
:101EA400934230D1214B9A6942F400329A619B6982
:101EB40003F400330C930C9B19E01C4AD16941F0E4
:101EC4000401D161D26902F004020492049A1F4A07
:101ED40093420ED01E4A9342B1D1144BDA6942F0B8
:101EE4008002DA61DB6903F080030993099B0EB079
:101EF40070470E4AD16941F04001D161D26902F0C4
:101F040040020892089A134A9342F0D1074B9A6907
:101F140042F480229A619B6903F480230D930D9B04
:101F2400E5E700BF002C0140001000400010024013
:101F3400004001400004004000080040000C004044
:101F440000200040001400400044014000180040FC
:101F5400001C0040004801400368364A934215D1F2
:101F640035498A6922F400628A61344A934231D144
:101F74003149CA6922F01002CA61314A934231D10F
:101F84002D4A936923F4803393617047B3F1804FF2
:101F940015D02C4A934218D02B4A93422AD02B4A6C
:101FA4009342E2D12449CA6922F00802CA61284A4C
:101FB4009342E2D1204AD36923F4807329E01E4975
:101FC400CA6922F00102CA61CFE71B49CA6922F03B
:101FD4000202CA611F4A934211D11749CA6922F009
:101FE4002002CA611C4A93421AD1134A936923F40A
:101FF4000033C9E71049CA6922F00402CA61174ACA
:10200400934208D0164A9342D1D10B4AD36923F0A4
:102014008003D36170470849CA6922F04002CA614B
:10202400104A934200D07047034A936923F48023F3
:10203400AAE700BF002C014000100240001000403D
:10204400004001400004004000080040000C004033
:1020540000200040001400400044014000180040EB
:10206400001C004000480140431C36D0274B9842D6
:1020740036D018D8A3F54063984233D00BD8A3F5D3
:102084000063984230D003F5806398422ED0B0F1BB
:10209400804F2DD0FEE71E4B98422BD003F5806372
:1020A400984229D0F6E71B4B984227D00CD8A3F5C9
:1020B4009033984224D003F58633984224D0A3F574
:1020C400883398421ED0E5E7134B98421CD003F5A1
:1020D40080639842DED11A2070476FF00D0070477C
:1020E4002B207047322070471D2070471E207047F8
:1020F4001C207047362070473720704718207047DF
:102104002D2070472C20704719207047001800407C
:10211400001000400040014000440140431C36D000
:10212400284B984236D018D8A3F54063984233D050
:102134000BD8A3F50063984230D003F5806398422E
:102144002ED0B0F1804F2DD0FEE71F4B98422BD0FC
:1021540003F58063984229D0F6E71C4B984227D0B8
:102164000CD8A3F59033984224D003F586339842D3
:1021740022D0A3F58833984220D0E5E7144B984247
:102184001ED003F580639842DED11A2070476FF0A9
:102194000D0070472B207047322070471D20704778
:1021A4001E2070471C207047362070473720704728
:1021B400182070472D2070471B2070472C20704733
:1021C40019207047001800400010004000400140F2
:1021D4000044014038B50446FFF7F0FD0068FFF7FE
:1021E40043FFD4E91212FEF79FF82068FFF73CFF83
:1021F400FEF7CCF822681046FFF790FF054610461C
:10220400FFF732FF85420BD0D4E912122846FEF7BD
:102214008BF82068FFF782FFBDE83840FEF7B6B8B8
:1022240038BD000008B5074B90F8612053F8220030
:10223400FEF736FF00F02200A0F122035842584175
:1022440008BD00BF2C02002008B5074B90F86120A0
:1022540053F82200FEF724FF00F02100A0F121032F
:102264005842584108BD00BF2C02002038B515461D
:102274000446B8B1C16490F96000FEF795F8B4F86B
:102284007230A16E9BB294F861001944064BAAB255
:1022940053F82000FEF758FD94F96000BDE838407B
:1022A400FEF774B838BD00BF2C02002048B1436D5E
:1022B400013306D190F86120024B53F82200FEF757
:1022C400BFBE70472C02002048B1436D013306D1D4
:1022D40090F86120024B53F82200FEF7C9BE704704
:1022E4002C020020436C04381847836C04381847C8
:1022F4001FB503680446186810F0010013D00022CB
:1023040000921A6800925B680093009B201FFFF7FD
:1023140089FF40BB0122204604F15E0104B0BDE800
:102324001040FEF7DCBE196811F0020106D00190DE
:102334001A6801925B680193019BE7E71A6812F03F
:10234400040206D002911A6802925B680293029B0F
:10235400DCE719680907D9D503921A6803925B6808
:102364000393039BD2E704B010BD000008B52520F9
:10237400FEF742F8024B1868BDE80840FEF758BD66
:102384002C020020262008B5FEF736F8034B5868C7
:1023940018B1BDE80840FEF74BBD08BD2C02002073
:1023A400272008B5FEF728F8034B986818B1BDE854
:1023B4000840FEF73DBD08BD2C02002008B53420BE
:1023C400FEF71AF8024BD868BDE80840FEF730BDA6
:1023D4002C02002008B53520FEF70EF8024B1869D0
:1023E400BDE80840FEF724BD2C02002003460A493C
:1023F40010B508680344EFF30882934205D90C2210
:102404004FF0FF30054B1A6010BD054A054C121BF6
:102414009342F4D20B60F7E73000002078030020E9
:102424000080002000040000FEE700001622024B9A
:102434004FF0FF301A607047780300200120704786
:1024440010B590B02022002107A800F069FB0021FC
:10245400142201A800F064FB012210230224CDE918
:102464000A234FF4801306A806940D940F93FEF7E5
:10247400CDF8014600B1FEE70F23CDE90300059036
:1024840001A8CDE90134FEF7A1FA00B1FEE710B0CE
:1024940010BD08B50320FDF735FFBDE8084000F086
:1024A400F5B808B5AFF30080FDF7BAFEFDF7C3FE3B
:1024B40000F0DEF8FAE700000C480D490D4A00234D
:1024C40002E0D458C4500433C4188C42F9D30A4AE5
:1024D4000A4C002301E013600432A242FBD3FFF74D
:1024E40043FC00F0DBFAFFF7DCFF7047000000203C
:1024F40098000020D83500089800002080030020B0
:10250400FEE70000C3B26F2B2DE9F0410D462AD837
:102514002C4A00F4E06052F823400443621C4ED07D
:10252400294EC4F3031756F8273004F00F0823FA92
:1025340008F3DB0710D520462449FFF717FB18B32F
:102544002046FFF71FF8012303FA08F256F8273054
:1025540023EA020346F82730052D1FD8DFE805F0EB
:102564001F2B2527292D00F0C002C02A27D1CF2BED
:1025740025D8174B00F03F0253F82220114B00F4EA
:10258400E06053F82240C8E720461249FFF7EEFA0C
:102594000028D8D02046FFF70FF8D4E7FEE7002143
:1025A4002046BDE8F041FFF7F1BA1021F8E72021F9
:1025B400F6E70321F4E70121F2E70921F0E7BDE89A
:1025C400F08100BF7433000840020020542E00083C
:1025D40034330008782E0008C3B26F2B19D8184A78
:1025E40000F4E06052F823301843C0F30313062BC1
:1025F40098BF144A00F00F0098BF52F82320124BE2
:1026040088BF002253F82030C3F30F23A9B113610C
:10261400704700F0C002C02A0CD1CF2B0AD80B4B54
:1026240000F03F0253F82220054B00F4E06053F819
:102634002230D9E74FF0FF30D7E75361704700BF2E
:102644007433000808000020042E00083433000806
:10265400FEF7E0BF38B5044648B1FEF7DBFF054698
:1026640000F016F8FEF7D6FF431BA342F8D338BD9B
:1026740008B5044B2BB1044800F00BF808B1AFF3D4
:10268400008008BD000000005C020020FFF70EB8C7
:102694007047B0F80431B0F80001181A00F03F0098
:1026A4007047B0F80431B0F800219BB293421ABFCE
:1026B400D0F8F830985C4FF0FF30704790F8023152
:1026C400B0F80601C0B2834227BFC3F13F03C0186C
:1026D400C01A00F1FF30704707B503688DF8071082
:1026E40001225B680DF10701984703B05DF804FB14
:1026F400B0F8722038B5436F134403F03F03A0F8D9
:102704007230B0F87220B0F86E3092B293421BD09F
:10271400B0F87220B0F8724095B203F14002521B37
:10272400534203F03F03A4B202F03F0258BF5A429F
:10273400C4F140039A4228BF1A4604494267FFF78E
:1027440095FD4FF0FF3038BD0020FCE7F52600086A
:1027540003682DE9F0479B68044688461646984767
:1027640001232374D4F8E830B4F80291013382468B
:10277400C9F1400904F1940708D194F80C312BB144
:102784000023384684F80C31FFF790FD2368204677
:102794009B6898470028F9D035464D4501D85545E2
:1027A40015D9D14528BFD14623684A4641465B68BE
:1027B40020469847236820469B689847B4F802212E
:1027C400A5EB0905C8448246C2F14009E5E7B4F81F
:1027D4000221D4F8FC005319402B104419D82A467E
:1027E400414600F08FF9A946B4F8023138461D4439
:1027F40005F03F05A4F80251FFF726FD30B94A461B
:1028040038460B49C4F80891FFF730FD3046BDE85F
:10281400F087C2F140094A46414600F073F9D4F802
:10282400FC00A5EB090208EB090100F06BF9DBE7FA
:10283400F5260008037C33B1B0F80221B0F8063164
:102844009BB29A42FAD17047C0F8EC30009B914297
:1028540008BF4FF0FF31C0F8F03000F11103C0F8A9
:10286400F8300023C0E9392100F15102A0F8043105
:10287400C0E93F23A0F8063170470000CBB26F2BAC
:1028840008D80E4A01F4E06152F823301943C0F825
:10289400E810704701F0C002C02A0CD1CF2B0AD82F
:1028A400074B01F03F0253F82220044B01F4E0618E
:1028B40053F82230EAE74FF0FF31E8E774330008B9
:1028C40034330008CBB26F2B08D80E4A01F4E06110
:1028D40052F823301943C0F8E410704701F0C002E5
:1028E400C02A0CD1CF2B0AD8074B01F03F0253F872
:1028F4002220044B01F4E06153F82230EAE74FF060
:10290400FF31E8E7743300083433000873B54FF43B
:102914007A7316460022C0E901231D4B0446036066
:102924004FF0FF33C0F8E8301A4B0D46984215D1EA
:10293400C321FFF7A3FFC221FFF7C4FF4FF0FF330A
:10294400012E08BFC4F8E8302046D4E939210093A9
:102954004FF0FF33FFF778FF02B070BD0E4B0F4905
:102964009A680F4B53F82200FFF7D7F9854202D13A
:10297400C3212046DDE70B492846FFF7DFF9074965
:10298400C4F8E8002846FFF7D9F9C4F8E400D5E70D
:102994003C3500085C02002034330008BC320008D7
:1029A4007433000844320008D0F8E83010B501331D
:1029B40004460ED10368DB68984794F80C3143B998
:1029C400012304F1940084F80C31BDE81040FFF7B2
:1029D4007BBC10BD10B50446FFF7E6FFB4F8042134
:1029E400B4F8003192B29A4217BFD4F8F8204FF0ED
:1029F400FF30D05C01331CBF03F03F03A4F8003167
:102A040010BD0000002202490248FFF77FBF00BF4B
:102A1400004400405C02002010B50446FFF718FE95
:102A2400E060236820465B699847002808DAFFF7CE
:102A34000FFEE368C01AA3689842F2D34FF0FF3048
:102A440010BD2DE9F04107460C460D468E18B542DF
:102A5400A5EB040807D03846FFF7DEFF031E02DBB0
:102A640005F8013BF3E74046BDE8F0812DE9F0416C
:102A74000746884616461D4673B100243846FFF7BC
:102A8400CBFF031E05DB434503D033550134A54278
:102A9400F4D12046BDE8F0811C46FAE770B5002663
:102AA4000C4D0D4C641BA410A64209D100F08AF908
:102AB40000260A4D0A4C641BA410A64205D170BD21
:102AC40055F8043B98470136EEE755F8043B984720
:102AD4000136F2E7C0350008C0350008C0350008EB
:102AE400D0350008024B0146186800F089B800BFD1
:102AF40034000020024B0146186800F019B800BFEA
:102B0400340000200A44914200F1FF3300D17047A1
:102B140010B511F8014B914203F8014FF9D110BDE2
:102B240003460244934200D1704703F8011BF9E7BE
:102B340038B50546002940D051F8043C0C1F002B41
:102B4400B8BFE41800F0E2F81C4A136833B96360B4
:102B540014602846BDE8384000F0DEB8A34208D926
:102B6400206821188B4201BF19685B68091821602D
:102B7400EDE71A465B680BB1A342FAD91168501805
:102B8400A0420BD120680144501883421160E0D167
:102B940018685B68014411605360DAE702D90C23BA
:102BA4002B60D6E7206821188B4201BF19685B6847
:102BB4000918216063605460CBE738BD70030020BE
:102BC40070B50E4E0C463168054611B900F08CF80C
:102BD40030602146284600F087F8431C0AD0C41C04
:102BE40024F00304A04207D0211A284600F07CF800
:102BF400013001D14FF0FF34204670BD7403002032
:102C04002DE9F041CD1C25F0030508350C2D38BF06
:102C14000C25002D074601DBA94205D90C2300260B
:102C24003B603046BDE8F0812E4E00F06FF833680B
:102C34001C4634BB29463846FFF7C2FF431C0446F2
:102C44004DD134682646002E40D12368314638469B
:102C540004EB030800F048F880453AD121680335B5
:102C64006D1A25F0030508350C2D38BF0C253846A0
:102C74002946FFF7A5FF01302BD023682B4423609E
:102C84000EE02268521B1ED40B2A16D96119A342E6
:102C9400256018BF5960636808BF316062514B609A
:102CA400384604F10B0600F037F826F00706231D1A
:102CB400F21AB6D09B1BA350B3E76268A3420CBFC1
:102CC40032605A60ECE723466468B2E734467668BB
:102CD400B9E70C2338463B6000F01EF8A1E72560F5
:102CE400DEE700BF7003002038B50023054D04461D
:102CF40008462B60FFF77AFB431C02D12B6803B113
:102D0400236038BD78030020704770470148FFF7FF
:102D1400FBBF00BF7C0300200148FFF7F6BF00BFE4
:102D24007C030020062008B500F02CF80120FFF7F2
:102D34007BFB1F2938B504460D4604D916230360CE
:102D44004FF0FF3038BD426C12B152F821304BB90C
:102D5400204600F031F82A4601462046BDE83840B6
:102D640000F018B8012B0AD0591C03D116230360B4
:102D74000120E7E70024284642F825409847002030
:102D8400E0E70000024B01461868FFF7D2BF00BF1E
:102D94003400002038B50023064D04460846114689
:102DA4002B60FFF743FB431C02D12B6803B1236064
:102DB40038BD00BF78030020FFF740BB08B5FFF71C
:102DC400B1FF0000F8B500BFF8BC08BC9E467047D0
:0C2DD400F8B500BFF8BC08BC9E46704774
:102DE00002030405060708090A0B0C0D0E0F10104C
:102DF000000102030405060708090A0B0C0D0E0F5B
:102E000010000000010100000202000004040000A4
:102E100008080000101000002020000040400000C2
:102E20008080000001000104020002040400040488
:102E30000800080410001004200020044000400492
:102E40008000800400000000000000000102030474
:102E50000607080904000000007400400380000019
:102E6000050000000074004003000100FFFFFFFFA9
:102E70000000000000000000000000000000004012
:102E800012800000000100000000004012900000CD
:102E900000020000000C0040128000000100000051
:102EA000000000401212010001010000000000407B
:102EB0001210010001020000000C0040120001008D
:102EC0000200000000000040129201000201000018
:102ED000000000401291010002020000000C0040BE
:102EE00012800100020300000040014012AE000009
:102EF0000300000000000040121202000301000065
:102F0000000000401211020003020000000C00400B
:102F1000120002000303000000400140122E0100D5
:102F200006000000000400401295000006010000A9
:102F30000044014012AF000007000000002C0140D7
:102F4000128D10000701000000040040121501005E
:102F5000070200000048014012B100000800000014
:102F6000002C0140128E000008010000002C0140DE
:102F7000128D000009000000002C0140120E01001B
:102F800009010000002C0140120D01000A000000A0
:102F9000002C0140128E01000A010000002C0140AB
:102FA000128D01000B000000002C0140120E0200E7
:102FB0000B010000002C0140120D02000F00000068
:102FC00000000040129100000F01000000000040CE
:102FD000128F000010000000002C0140120D1100A3
:102FE00010010000000400401295010010020000D2
:102FF000000400401294010010030000001C004077
:1030000012A7000011000000002C0140128D1100D9
:10301000110100000004004012150200110200001E
:1030200000040040121402001103000000200040C0
:1030300012A900001300000000000040121101005E
:103040001301000000000040120F010014000000F6
:10305000000400401294000015000000000400402D
:103060001214010016000000000800401297000032
:1030700016010000004401401280100017000000FB
:10308000000800401217010017010000004801402D
:103090001280100018000000000800401297010084
:1030A000180100000044014012B0000019000000A7
:1030B00000080040121702001901000000480140FA
:1030C00012B200001A00000000000040129001003F
:1030D0001A01000000000040128F01001B000000D8
:1030E00000000040121002001B0100000000004020
:1030F000120F02001C0000000018004012B900006E
:103100001D000000002C0140128E10001D01000067
:1031100000180040123901001E000000002C014080
:10312000120E11001E0100000040014012AD00000F
:103130001F000000002C0140128E11001F01000032
:1031400000400140128010001F02000000400140BA
:10315000122D0100240000000018004012BA0000E7
:103160002500000000180040123A0100260000006F
:1031700000040040129300002700000000040040FB
:103180001213010028000000000400401293010007
:1031900028010000001C004012A8000029000000C7
:1031A000000400401213020029010000002000402A
:1031B00012AA00003C000000000800401296000027
:1031C0003D00000000080040121601003E00000013
:1031D00000080040129601003F0000000008004077
:1031E0001216020048000000002C0140128C100052
:1031F00049000000002C0140128C00004A00000031
:10320000002C0140120C11004B000000002C01406A
:10321000120C01004C000000002C0140128C110027
:103220004D000000002C0140128C01004E000000F7
:10323000002C0140120C0200FFFFFFFF0000000005
:1032400000000000030000000044004010080000DF
:103250000A000000003801401006000017000000BE
:1032600000380140100500001B000000004800402D
:10327000100000002B000000004C00401000000077
:103280002B01000000480040100A0000320000003E
:1032900000500040100000003600000000440040D4
:1032A000100700003900000000480040100900002D
:1032B000FFFFFFFF00000000000000000200000010
:1032C00000440040120800000900000000380140DE
:1032D0001206000016000000003801401205000030
:1032E0001A00000000480040120000002A00000000
:1032F000004C0040120000002A010000004800407D
:10330000120A00002C0000000050004012000000D3
:1033100035000000004400401207000038000000A3
:103320000048004012090000FFFFFFFF00000000FE
:10333000000000000000000001000000020000008A
:10334000030000000400000005000000060000006B
:103350000700000010000000110000002000000025
:1033600021000000220000002300000024000000D3
:103370002500000000000000010000000200000025
:10338000030000000400000005000000060000002B
:103390000700000008000000090000000A0000000B
:1033A0000B0000000C0000000D0000000E000000EB
:1033B0000F000000100000001100000012000000CB
:1033C00013000000140000001500000016000000AB
:1033D0001700000018000000190000001A0000008B
:1033E0001B0000001C0000001D0000001E0000006B
:1033F0001F0000002000000021000000220000004B
:10340000230000002400000025000000260000002A
:103410002700000028000000290000002A0000000A
:103420002B0000002C0000002D0000002E000000EA
:103430002F000000300000003100000032000000CA
:1034400033000000340000003500000036000000AA
:103450003700000038000000390000003A0000008A
:103460003B0000003C0000003D0000003E0000006A
:103470003F0000004000000041000000420000004A
:10348000430000004400000045000000460000002A
:103490004700000048000000490000004A0000000A
:1034A0004B0000004C0000004D0000004E000000EA
:1034B0004F000000500000005100000052000000CA
:1034C00053000000540000005500000056000000AA
:1034D0005700000058000000590000005A0000008A
:1034E0005B0000005C0000005D0000005E0000006A
:1034F0005F0000006000000061000000620000004A
:103500006300000064000000650000006600000029
:103510006700000068000000690000006A00000009
:103520006B0000006C0000006D0000006E000000E9
:103530006F0000000000000000000000DD26000811
:1035400055270008C12600083928000897260008DA
:10355000D9290008A7260008472A0008712A000870
:10356000000000000000000000000000000000005B
:10357000000000000000000000000000000000004B
:10358000000000000000000000000000000000003B
:10359000000000000000000000000000000000002B
:1035A000000000000000000000000000000000001B
:1035B000000000000000000000000000000000000B
:1035C00097240008090200084D170008092A00087E
:0835D000E5010008D517000811
:1035D800010000001000000000080140000C01403C
:1035E800001001400014014000180140001C014077
:1035F8000020014000300240000000000024F400D8
:1036080080030020380000200000000080350008FA
:10361800A035000860350008000000000000000028
:103628000000000000000000000000000000000092
:103638000000000000000000000000000000000082
:103648000000000000000000000000000000000072
:103658000000000000000000000000000000000062
:0836680000000000000000005A
:04000005080024BD0E
:00000001FF
